{
  "contractName": "ERC20Mintable",
  "abi": [
    {
      "anonymous": false,
      "inputs": [
        {
          "indexed": true,
          "internalType": "address",
          "name": "owner",
          "type": "address"
        },
        {
          "indexed": true,
          "internalType": "address",
          "name": "spender",
          "type": "address"
        },
        {
          "indexed": false,
          "internalType": "uint256",
          "name": "value",
          "type": "uint256"
        }
      ],
      "name": "Approval",
      "type": "event"
    },
    {
      "anonymous": false,
      "inputs": [],
      "name": "Finalized",
      "type": "event"
    },
    {
      "anonymous": false,
      "inputs": [
        {
          "indexed": true,
          "internalType": "address",
          "name": "previousOwner",
          "type": "address"
        },
        {
          "indexed": true,
          "internalType": "address",
          "name": "newOwner",
          "type": "address"
        }
      ],
      "name": "OwnershipTransferred",
      "type": "event"
    },
    {
      "anonymous": false,
      "inputs": [
        {
          "indexed": false,
          "internalType": "address",
          "name": "account",
          "type": "address"
        }
      ],
      "name": "Paused",
      "type": "event"
    },
    {
      "anonymous": false,
      "inputs": [
        {
          "indexed": true,
          "internalType": "bytes32",
          "name": "role",
          "type": "bytes32"
        },
        {
          "indexed": true,
          "internalType": "address",
          "name": "account",
          "type": "address"
        },
        {
          "indexed": true,
          "internalType": "address",
          "name": "sender",
          "type": "address"
        }
      ],
      "name": "RoleGranted",
      "type": "event"
    },
    {
      "anonymous": false,
      "inputs": [
        {
          "indexed": true,
          "internalType": "bytes32",
          "name": "role",
          "type": "bytes32"
        },
        {
          "indexed": true,
          "internalType": "address",
          "name": "account",
          "type": "address"
        },
        {
          "indexed": true,
          "internalType": "address",
          "name": "sender",
          "type": "address"
        }
      ],
      "name": "RoleRevoked",
      "type": "event"
    },
    {
      "anonymous": false,
      "inputs": [
        {
          "indexed": true,
          "internalType": "address",
          "name": "from",
          "type": "address"
        },
        {
          "indexed": true,
          "internalType": "address",
          "name": "to",
          "type": "address"
        },
        {
          "indexed": false,
          "internalType": "uint256",
          "name": "value",
          "type": "uint256"
        }
      ],
      "name": "Transfer",
      "type": "event"
    },
    {
      "anonymous": false,
      "inputs": [
        {
          "indexed": false,
          "internalType": "address",
          "name": "account",
          "type": "address"
        }
      ],
      "name": "Unpaused",
      "type": "event"
    },
    {
      "inputs": [],
      "name": "DEFAULT_ADMIN_ROLE",
      "outputs": [
        {
          "internalType": "bytes32",
          "name": "",
          "type": "bytes32"
        }
      ],
      "stateMutability": "view",
      "type": "function"
    },
    {
      "inputs": [],
      "name": "MINTER_ADMIN_ROLE",
      "outputs": [
        {
          "internalType": "bytes32",
          "name": "",
          "type": "bytes32"
        }
      ],
      "stateMutability": "view",
      "type": "function"
    },
    {
      "inputs": [],
      "name": "MINTER_ROLE",
      "outputs": [
        {
          "internalType": "bytes32",
          "name": "",
          "type": "bytes32"
        }
      ],
      "stateMutability": "view",
      "type": "function"
    },
    {
      "inputs": [
        {
          "internalType": "bytes32",
          "name": "role",
          "type": "bytes32"
        },
        {
          "internalType": "address",
          "name": "account",
          "type": "address"
        }
      ],
      "name": "addAdmin",
      "outputs": [
        {
          "internalType": "bool",
          "name": "",
          "type": "bool"
        }
      ],
      "stateMutability": "nonpayable",
      "type": "function"
    },
    {
      "inputs": [
        {
          "internalType": "address",
          "name": "owner",
          "type": "address"
        },
        {
          "internalType": "address",
          "name": "spender",
          "type": "address"
        }
      ],
      "name": "allowance",
      "outputs": [
        {
          "internalType": "uint256",
          "name": "",
          "type": "uint256"
        }
      ],
      "stateMutability": "view",
      "type": "function"
    },
    {
      "inputs": [
        {
          "internalType": "address",
          "name": "spender",
          "type": "address"
        },
        {
          "internalType": "uint256",
          "name": "amount",
          "type": "uint256"
        }
      ],
      "name": "approve",
      "outputs": [
        {
          "internalType": "bool",
          "name": "",
          "type": "bool"
        }
      ],
      "stateMutability": "nonpayable",
      "type": "function"
    },
    {
      "inputs": [
        {
          "internalType": "address",
          "name": "account",
          "type": "address"
        }
      ],
      "name": "balanceOf",
      "outputs": [
        {
          "internalType": "uint256",
          "name": "",
          "type": "uint256"
        }
      ],
      "stateMutability": "view",
      "type": "function"
    },
    {
      "inputs": [
        {
          "internalType": "address",
          "name": "spender",
          "type": "address"
        },
        {
          "internalType": "uint256",
          "name": "subtractedValue",
          "type": "uint256"
        }
      ],
      "name": "decreaseAllowance",
      "outputs": [
        {
          "internalType": "bool",
          "name": "",
          "type": "bool"
        }
      ],
      "stateMutability": "nonpayable",
      "type": "function"
    },
    {
      "inputs": [],
      "name": "finalize",
      "outputs": [],
      "stateMutability": "nonpayable",
      "type": "function"
    },
    {
      "inputs": [
        {
          "internalType": "bytes32",
          "name": "role",
          "type": "bytes32"
        }
      ],
      "name": "getRoleAdmin",
      "outputs": [
        {
          "internalType": "bytes32",
          "name": "",
          "type": "bytes32"
        }
      ],
      "stateMutability": "view",
      "type": "function"
    },
    {
      "inputs": [
        {
          "internalType": "bytes32",
          "name": "role",
          "type": "bytes32"
        },
        {
          "internalType": "uint256",
          "name": "index",
          "type": "uint256"
        }
      ],
      "name": "getRoleMember",
      "outputs": [
        {
          "internalType": "address",
          "name": "",
          "type": "address"
        }
      ],
      "stateMutability": "view",
      "type": "function"
    },
    {
      "inputs": [
        {
          "internalType": "bytes32",
          "name": "role",
          "type": "bytes32"
        }
      ],
      "name": "getRoleMemberCount",
      "outputs": [
        {
          "internalType": "uint256",
          "name": "",
          "type": "uint256"
        }
      ],
      "stateMutability": "view",
      "type": "function"
    },
    {
      "inputs": [
        {
          "internalType": "bytes32",
          "name": "role",
          "type": "bytes32"
        },
        {
          "internalType": "address",
          "name": "account",
          "type": "address"
        }
      ],
      "name": "grantRole",
      "outputs": [],
      "stateMutability": "nonpayable",
      "type": "function"
    },
    {
      "inputs": [
        {
          "internalType": "bytes32",
          "name": "role",
          "type": "bytes32"
        },
        {
          "internalType": "address",
          "name": "account",
          "type": "address"
        }
      ],
      "name": "hasRole",
      "outputs": [
        {
          "internalType": "bool",
          "name": "",
          "type": "bool"
        }
      ],
      "stateMutability": "view",
      "type": "function"
    },
    {
      "inputs": [
        {
          "internalType": "address",
          "name": "spender",
          "type": "address"
        },
        {
          "internalType": "uint256",
          "name": "addedValue",
          "type": "uint256"
        }
      ],
      "name": "increaseAllowance",
      "outputs": [
        {
          "internalType": "bool",
          "name": "",
          "type": "bool"
        }
      ],
      "stateMutability": "nonpayable",
      "type": "function"
    },
    {
      "inputs": [],
      "name": "owner",
      "outputs": [
        {
          "internalType": "address",
          "name": "",
          "type": "address"
        }
      ],
      "stateMutability": "view",
      "type": "function"
    },
    {
      "inputs": [],
      "name": "paused",
      "outputs": [
        {
          "internalType": "bool",
          "name": "",
          "type": "bool"
        }
      ],
      "stateMutability": "view",
      "type": "function"
    },
    {
      "inputs": [],
      "name": "renounceOwnership",
      "outputs": [],
      "stateMutability": "nonpayable",
      "type": "function"
    },
    {
      "inputs": [
        {
          "internalType": "bytes32",
          "name": "role",
          "type": "bytes32"
        },
        {
          "internalType": "address",
          "name": "account",
          "type": "address"
        }
      ],
      "name": "renounceRole",
      "outputs": [],
      "stateMutability": "nonpayable",
      "type": "function"
    },
    {
      "inputs": [
        {
          "internalType": "bytes32",
          "name": "role",
          "type": "bytes32"
        },
        {
          "internalType": "address",
          "name": "account",
          "type": "address"
        }
      ],
      "name": "revokeRole",
      "outputs": [],
      "stateMutability": "nonpayable",
      "type": "function"
    },
    {
      "inputs": [],
      "name": "totalSupply",
      "outputs": [
        {
          "internalType": "uint256",
          "name": "",
          "type": "uint256"
        }
      ],
      "stateMutability": "view",
      "type": "function"
    },
    {
      "inputs": [
        {
          "internalType": "address",
          "name": "recipient",
          "type": "address"
        },
        {
          "internalType": "uint256",
          "name": "amount",
          "type": "uint256"
        }
      ],
      "name": "transfer",
      "outputs": [
        {
          "internalType": "bool",
          "name": "",
          "type": "bool"
        }
      ],
      "stateMutability": "nonpayable",
      "type": "function"
    },
    {
      "inputs": [
        {
          "internalType": "address",
          "name": "sender",
          "type": "address"
        },
        {
          "internalType": "address",
          "name": "recipient",
          "type": "address"
        },
        {
          "internalType": "uint256",
          "name": "amount",
          "type": "uint256"
        }
      ],
      "name": "transferFrom",
      "outputs": [
        {
          "internalType": "bool",
          "name": "",
          "type": "bool"
        }
      ],
      "stateMutability": "nonpayable",
      "type": "function"
    },
    {
      "inputs": [
        {
          "internalType": "address",
          "name": "newOwner",
          "type": "address"
        }
      ],
      "name": "transferOwnership",
      "outputs": [],
      "stateMutability": "nonpayable",
      "type": "function"
    }
  ],
  "bytecode": "0x60806040526005805460ff60a01b191690556003805460ff19169055600061002e6001600160e01b036100d616565b600580546001600160a01b0319166001600160a01b038316908117909155604051919250906000907f8be0079c531659141344cd1fd0a4f28419497f9722a3daafe3b4186f6b6457e0908290a350604080516a4d494e5445525f524f4c4560a81b8152815190819003600b018120704d494e5445525f41444d494e5f524f4c4560781b825291519081900360110190206100d191906001600160e01b036100da16565b6100ef565b3390565b60009182526004602052604090912060020155565b611471806100fe6000396000f3fe608060405234801561001057600080fd5b50600436106101585760003560e01c8063715018a6116100c3578063a9059cbb1161007c578063a9059cbb146103a9578063ca15c873146103d5578063d5391393146103f2578063d547741f146103fa578063dd62ed3e14610426578063f2fde38b1461045457610158565b8063715018a6146102fa5780638da5cb5b146103025780639010d07c1461032657806391d1485414610349578063a217fddf14610375578063a457c2d71461037d57610158565b806336568abe1161011557806336568abe14610240578063395093511461026c5780634bb278f3146102985780635c975abb146102a05780636419bcdb146102a857806370a08231146102d457610158565b8063095ea7b31461015d5780631339324b1461019d57806318160ddd146101b757806323b872dd146101bf578063248a9ca3146101f55780632f2ff15d14610212575b600080fd5b6101896004803603604081101561017357600080fd5b506001600160a01b03813516906020013561047a565b604080519115158252519081900360200190f35b6101a5610498565b60408051918252519081900360200190f35b6101a56104c1565b610189600480360360608110156101d557600080fd5b506001600160a01b038135811691602081013590911690604001356104c7565b6101a56004803603602081101561020b57600080fd5b5035610554565b61023e6004803603604081101561022857600080fd5b50803590602001356001600160a01b0316610569565b005b61023e6004803603604081101561025657600080fd5b50803590602001356001600160a01b03166105d5565b6101896004803603604081101561028257600080fd5b506001600160a01b038135169060200135610636565b61023e61068a565b61018961077f565b610189600480360360408110156102be57600080fd5b50803590602001356001600160a01b0316610788565b6101a5600480360360208110156102ea57600080fd5b50356001600160a01b031661084b565b61023e610866565b61030a610908565b604080516001600160a01b039092168252519081900360200190f35b61030a6004803603604081101561033c57600080fd5b5080359060200135610917565b6101896004803603604081101561035f57600080fd5b50803590602001356001600160a01b031661093c565b6101a561095a565b6101896004803603604081101561039357600080fd5b506001600160a01b03813516906020013561095f565b610189600480360360408110156103bf57600080fd5b506001600160a01b0381351690602001356109cd565b6101a5600480360360208110156103eb57600080fd5b50356109e1565b6101a56109f8565b61023e6004803603604081101561041057600080fd5b50803590602001356001600160a01b0316610a1b565b6101a56004803603604081101561043c57600080fd5b506001600160a01b0381358116916020013516610a74565b61023e6004803603602081101561046a57600080fd5b50356001600160a01b0316610a9f565b600061048e610487610b03565b8484610b07565b5060015b92915050565b60408051704d494e5445525f41444d494e5f524f4c4560781b8152905190819003601101902081565b60025490565b60006104d4848484610bf3565b61054a846104e0610b03565b6105458560405180606001604052806028815260200161132d602891396001600160a01b038a1660009081526001602052604081209061051e610b03565b6001600160a01b03168152602081019190915260400160002054919063ffffffff610d5a16565b610b07565b5060019392505050565b60009081526004602052604090206002015490565b60008281526004602052604090206002015461058c90610587610b03565b61093c565b6105c75760405162461bcd60e51b815260040180806020018281038252602f815260200180611260602f913960400191505060405180910390fd5b6105d18282610df1565b5050565b6105dd610b03565b6001600160a01b0316816001600160a01b03161461062c5760405162461bcd60e51b815260040180806020018281038252602f8152602001806113e3602f913960400191505060405180910390fd5b6105d18282610e60565b600061048e610643610b03565b846105458560016000610654610b03565b6001600160a01b03908116825260208083019390935260409182016000908120918c16815292529020549063ffffffff610ecf16565b610692610b03565b6005546001600160a01b039081169116146106e2576040805162461bcd60e51b81526020600482018190526024820152600080516020611355833981519152604482015290519081900360640190fd5b600554600160a01b900460ff1615610741576040805162461bcd60e51b815260206004820152601d60248201527f4d696e746572526f6c653a20616c72656164792066696e616c697a6564000000604482015290519081900360640190fd5b6005805460ff60a01b1916600160a01b1790556040517f6823b073d48d6e3a7d385eeb601452d680e74bb46afe3255a7d778f3a9b1768190600090a1565b60035460ff1690565b6000610792610b03565b6005546001600160a01b039081169116146107e2576040805162461bcd60e51b81526020600482018190526024820152600080516020611355833981519152604482015290519081900360640190fd5b600554600160a01b900460ff1615610841576040805162461bcd60e51b815260206004820152601d60248201527f4d696e746572526f6c653a20616c72656164792066696e616c697a6564000000604482015290519081900360640190fd5b61048e83836105c7565b6001600160a01b031660009081526020819052604090205490565b61086e610b03565b6005546001600160a01b039081169116146108be576040805162461bcd60e51b81526020600482018190526024820152600080516020611355833981519152604482015290519081900360640190fd5b6005546040516000916001600160a01b0316907f8be0079c531659141344cd1fd0a4f28419497f9722a3daafe3b4186f6b6457e0908390a3600580546001600160a01b0319169055565b6005546001600160a01b031690565b6000828152600460205260408120610935908363ffffffff610f2916565b9392505050565b6000828152600460205260408120610935908363ffffffff610f3516565b600081565b600061048e61096c610b03565b84610545856040518060600160405280602581526020016113be6025913960016000610996610b03565b6001600160a01b03908116825260208083019390935260409182016000908120918d1681529252902054919063ffffffff610d5a16565b600061048e6109da610b03565b8484610bf3565b600081815260046020526040812061049290610f4a565b604080516a4d494e5445525f524f4c4560a81b8152905190819003600b01902081565b600082815260046020526040902060020154610a3990610587610b03565b61062c5760405162461bcd60e51b81526004018080602001828103825260308152602001806112fd6030913960400191505060405180910390fd5b6001600160a01b03918216600090815260016020908152604080832093909416825291909152205490565b610aa7610b03565b6005546001600160a01b03908116911614610af7576040805162461bcd60e51b81526020600482018190526024820152600080516020611355833981519152604482015290519081900360640190fd5b610b0081610f55565b50565b3390565b6001600160a01b038316610b4c5760405162461bcd60e51b815260040180806020018281038252602481526020018061139a6024913960400191505060405180910390fd5b6001600160a01b038216610b915760405162461bcd60e51b81526004018080602001828103825260228152602001806112b56022913960400191505060405180910390fd5b6001600160a01b03808416600081815260016020908152604080832094871680845294825291829020859055815185815291517f8c5be1e5ebec7d5bd14f71427d1e84f3dd0314c0f7b2291e5b200ac8c7c3b9259281900390910190a3505050565b6001600160a01b038316610c385760405162461bcd60e51b81526004018080602001828103825260258152602001806113756025913960400191505060405180910390fd5b6001600160a01b038216610c7d5760405162461bcd60e51b815260040180806020018281038252602381526020018061123d6023913960400191505060405180910390fd5b610c88838383610ff6565b610ccb816040518060600160405280602681526020016112d7602691396001600160a01b038616600090815260208190526040902054919063ffffffff610d5a16565b6001600160a01b038085166000908152602081905260408082209390935590841681522054610d00908263ffffffff610ecf16565b6001600160a01b038084166000818152602081815260409182902094909455805185815290519193928716927fddf252ad1be2c89b69c2b068fc378daa952ba7f163c4a11628f55a4df523b3ef92918290030190a3505050565b60008184841115610de95760405162461bcd60e51b81526004018080602001828103825283818151815260200191508051906020019080838360005b83811015610dae578181015183820152602001610d96565b50505050905090810190601f168015610ddb5780820380516001836020036101000a031916815260200191505b509250505060405180910390fd5b505050900390565b6000828152600460205260409020610e0f908263ffffffff61101116565b156105d157610e1c610b03565b6001600160a01b0316816001600160a01b0316837f2f8788117e7eff1d82e926ec794901d17c78024a50270940304540a733656f0d60405160405180910390a45050565b6000828152600460205260409020610e7e908263ffffffff61102616565b156105d157610e8b610b03565b6001600160a01b0316816001600160a01b0316837ff6391f5c32d9c69d2a47ea670b442974b53935d1edc7fd64eb21e047a839171b60405160405180910390a45050565b600082820183811015610935576040805162461bcd60e51b815260206004820152601b60248201527f536166654d6174683a206164646974696f6e206f766572666c6f770000000000604482015290519081900360640190fd5b6000610935838361103b565b6000610935836001600160a01b03841661109f565b6000610492826110b7565b6001600160a01b038116610f9a5760405162461bcd60e51b815260040180806020018281038252602681526020018061128f6026913960400191505060405180910390fd5b6005546040516001600160a01b038084169216907f8be0079c531659141344cd1fd0a4f28419497f9722a3daafe3b4186f6b6457e090600090a3600580546001600160a01b0319166001600160a01b0392909216919091179055565b6110018383836110bb565b61100c8383836110bb565b505050565b6000610935836001600160a01b03841661110a565b6000610935836001600160a01b038416611154565b8154600090821061107d5760405162461bcd60e51b815260040180806020018281038252602281526020018061121b6022913960400191505060405180910390fd5b82600001828154811061108c57fe5b9060005260206000200154905092915050565b60009081526001919091016020526040902054151590565b5490565b6110c683838361100c565b6110ce61077f565b1561100c5760405162461bcd60e51b815260040180806020018281038252602a815260200180611412602a913960400191505060405180910390fd5b6000611116838361109f565b61114c57508154600181810184556000848152602080822090930184905584548482528286019093526040902091909155610492565b506000610492565b60008181526001830160205260408120548015611210578354600019808301919081019060009087908390811061118757fe5b90600052602060002001549050808760000184815481106111a457fe5b6000918252602080832090910192909255828152600189810190925260409020908401905586548790806111d457fe5b60019003818190600052602060002001600090559055866001016000878152602001908152602001600020600090556001945050505050610492565b600091505061049256fe456e756d657261626c655365743a20696e646578206f7574206f6620626f756e647345524332303a207472616e7366657220746f20746865207a65726f2061646472657373416363657373436f6e74726f6c3a2073656e646572206d75737420626520616e2061646d696e20746f206772616e744f776e61626c653a206e6577206f776e657220697320746865207a65726f206164647265737345524332303a20617070726f766520746f20746865207a65726f206164647265737345524332303a207472616e7366657220616d6f756e7420657863656564732062616c616e6365416363657373436f6e74726f6c3a2073656e646572206d75737420626520616e2061646d696e20746f207265766f6b6545524332303a207472616e7366657220616d6f756e74206578636565647320616c6c6f77616e63654f776e61626c653a2063616c6c6572206973206e6f7420746865206f776e657245524332303a207472616e736665722066726f6d20746865207a65726f206164647265737345524332303a20617070726f76652066726f6d20746865207a65726f206164647265737345524332303a2064656372656173656420616c6c6f77616e63652062656c6f77207a65726f416363657373436f6e74726f6c3a2063616e206f6e6c792072656e6f756e636520726f6c657320666f722073656c6645524332305061757361626c653a20746f6b656e207472616e73666572207768696c6520706175736564a2646970667358221220c4586be82d78c02e071615294d7aba21a01bd6fa1f20e66f3f3da1132c959b4864736f6c63430006000033",
  "source": "pragma solidity ^0.6.0;\n\nimport \"../access/roles/MinterRole.sol\";\nimport \"./ERC20.sol\";\nimport \"./ERC20Pausable.sol\";\n\n/**\n * @title TRC20Mintable\n * @dev TRC20 minting logic.\n */\ncontract ERC20Mintable is ERC20, ERC20Pausable, MinterRole {\n\n    /**\n     * @dev See {ERC20-_beforeTokenTransfer}.\n    */\n    function _beforeTokenTransfer(address from, address to, uint256 amount) internal virtual override(ERC20, ERC20Pausable) {\n        super._beforeTokenTransfer(from, to, amount);\n        ERC20Pausable._beforeTokenTransfer(from, to, amount);\n    }\n}",
  "sourcePath": "/Applications/projects/nft/newdt/contracts/token/ERC20Mintable.sol",
  "compiler": {
    "name": "solc",
    "version": "0.6.0+commit.26b70077.Emscripten.clang"
  },
  "schemaVersion": "3.4.3",
  "updatedAt": "2022-01-29T12:26:38.328Z",
  "devdoc": {
    "details": "TRC20 minting logic.",
    "methods": {
      "addAdmin(bytes32,address)": {
        "details": "Create and ading new role.",
        "params": {
          "account": "account for adding to the role.",
          "role": "role account."
        }
      },
      "allowance(address,address)": {
        "details": "See {IERC20-allowance}."
      },
      "approve(address,uint256)": {
        "details": "See {IERC20-approve}.     * Requirements:     * - `spender` cannot be the zero address."
      },
      "balanceOf(address)": {
        "details": "See {IERC20-balanceOf}."
      },
      "decreaseAllowance(address,uint256)": {
        "details": "Atomically decreases the allowance granted to `spender` by the caller.     * This is an alternative to {approve} that can be used as a mitigation for problems described in {IERC20-approve}.     * Emits an {Approval} event indicating the updated allowance.     * Requirements:     * - `spender` cannot be the zero address. - `spender` must have allowance for the caller of at least `subtractedValue`."
      },
      "finalize()": {
        "details": "block adding admins."
      },
      "getRoleAdmin(bytes32)": {
        "details": "Returns the admin role that controls `role`. See {grantRole} and {revokeRole}.     * To change a role's admin, use {_setRoleAdmin}."
      },
      "getRoleMember(bytes32,uint256)": {
        "details": "Returns one of the accounts that have `role`. `index` must be a value between 0 and {getRoleMemberCount}, non-inclusive.     * Role bearers are not sorted in any particular way, and their ordering may change at any point.     * WARNING: When using {getRoleMember} and {getRoleMemberCount}, make sure you perform all queries on the same block. See the following https://forum.openzeppelin.com/t/iterating-over-elements-on-enumerableset-in-openzeppelin-contracts/2296[forum post] for more information."
      },
      "getRoleMemberCount(bytes32)": {
        "details": "Returns the number of accounts that have `role`. Can be used together with {getRoleMember} to enumerate all bearers of a role."
      },
      "grantRole(bytes32,address)": {
        "details": "Grants `role` to `account`.     * If `account` had not been already granted `role`, emits a {RoleGranted} event.     * Requirements:     * - the caller must have ``role``'s admin role."
      },
      "hasRole(bytes32,address)": {
        "details": "Returns `true` if `account` has been granted `role`."
      },
      "increaseAllowance(address,uint256)": {
        "details": "Atomically increases the allowance granted to `spender` by the caller.     * This is an alternative to {approve} that can be used as a mitigation for problems described in {IERC20-approve}.     * Emits an {Approval} event indicating the updated allowance.     * Requirements:     * - `spender` cannot be the zero address."
      },
      "owner()": {
        "details": "Returns the address of the current owner."
      },
      "paused()": {
        "details": "Returns true if the contract is paused, and false otherwise."
      },
      "renounceOwnership()": {
        "details": "Leaves the contract without owner. It will not be possible to call `onlyOwner` functions anymore. Can only be called by the current owner.     * NOTE: Renouncing ownership will leave the contract without an owner, thereby removing any functionality that is only available to the owner."
      },
      "renounceRole(bytes32,address)": {
        "details": "Revokes `role` from the calling account.     * Roles are often managed via {grantRole} and {revokeRole}: this function's purpose is to provide a mechanism for accounts to lose their privileges if they are compromised (such as when a trusted device is misplaced).     * If the calling account had been granted `role`, emits a {RoleRevoked} event.     * Requirements:     * - the caller must be `account`."
      },
      "revokeRole(bytes32,address)": {
        "details": "Revokes `role` from `account`.     * If `account` had been granted `role`, emits a {RoleRevoked} event.     * Requirements:     * - the caller must have ``role``'s admin role."
      },
      "totalSupply()": {
        "details": "See {IERC20-totalSupply}."
      },
      "transfer(address,uint256)": {
        "details": "See {IERC20-transfer}.     * Requirements:     * - `recipient` cannot be the zero address. - the caller must have a balance of at least `amount`."
      },
      "transferFrom(address,address,uint256)": {
        "details": "See {IERC20-transferFrom}.     * Emits an {Approval} event indicating the updated allowance. This is not required by the EIP. See the note at the beginning of {ERC20};     * Requirements: - `sender` and `recipient` cannot be the zero address. - `sender` must have a balance of at least `amount`. - the caller must have allowance for `sender`'s tokens of at least `amount`."
      },
      "transferOwnership(address)": {
        "details": "Transfers ownership of the contract to a new account (`newOwner`). Can only be called by the current owner."
      }
    },
    "title": "TRC20Mintable"
  },
  "userdoc": {
    "methods": {}
  }
}