{
  "contractName": "ERC20Pausable",
  "abi": [
    {
      "anonymous": false,
      "inputs": [
        {
          "indexed": true,
          "internalType": "address",
          "name": "owner",
          "type": "address"
        },
        {
          "indexed": true,
          "internalType": "address",
          "name": "spender",
          "type": "address"
        },
        {
          "indexed": false,
          "internalType": "uint256",
          "name": "value",
          "type": "uint256"
        }
      ],
      "name": "Approval",
      "type": "event"
    },
    {
      "anonymous": false,
      "inputs": [
        {
          "indexed": false,
          "internalType": "address",
          "name": "account",
          "type": "address"
        }
      ],
      "name": "Paused",
      "type": "event"
    },
    {
      "anonymous": false,
      "inputs": [
        {
          "indexed": true,
          "internalType": "address",
          "name": "from",
          "type": "address"
        },
        {
          "indexed": true,
          "internalType": "address",
          "name": "to",
          "type": "address"
        },
        {
          "indexed": false,
          "internalType": "uint256",
          "name": "value",
          "type": "uint256"
        }
      ],
      "name": "Transfer",
      "type": "event"
    },
    {
      "anonymous": false,
      "inputs": [
        {
          "indexed": false,
          "internalType": "address",
          "name": "account",
          "type": "address"
        }
      ],
      "name": "Unpaused",
      "type": "event"
    },
    {
      "inputs": [
        {
          "internalType": "address",
          "name": "owner",
          "type": "address"
        },
        {
          "internalType": "address",
          "name": "spender",
          "type": "address"
        }
      ],
      "name": "allowance",
      "outputs": [
        {
          "internalType": "uint256",
          "name": "",
          "type": "uint256"
        }
      ],
      "stateMutability": "view",
      "type": "function"
    },
    {
      "inputs": [
        {
          "internalType": "address",
          "name": "spender",
          "type": "address"
        },
        {
          "internalType": "uint256",
          "name": "amount",
          "type": "uint256"
        }
      ],
      "name": "approve",
      "outputs": [
        {
          "internalType": "bool",
          "name": "",
          "type": "bool"
        }
      ],
      "stateMutability": "nonpayable",
      "type": "function"
    },
    {
      "inputs": [
        {
          "internalType": "address",
          "name": "account",
          "type": "address"
        }
      ],
      "name": "balanceOf",
      "outputs": [
        {
          "internalType": "uint256",
          "name": "",
          "type": "uint256"
        }
      ],
      "stateMutability": "view",
      "type": "function"
    },
    {
      "inputs": [
        {
          "internalType": "address",
          "name": "spender",
          "type": "address"
        },
        {
          "internalType": "uint256",
          "name": "subtractedValue",
          "type": "uint256"
        }
      ],
      "name": "decreaseAllowance",
      "outputs": [
        {
          "internalType": "bool",
          "name": "",
          "type": "bool"
        }
      ],
      "stateMutability": "nonpayable",
      "type": "function"
    },
    {
      "inputs": [
        {
          "internalType": "address",
          "name": "spender",
          "type": "address"
        },
        {
          "internalType": "uint256",
          "name": "addedValue",
          "type": "uint256"
        }
      ],
      "name": "increaseAllowance",
      "outputs": [
        {
          "internalType": "bool",
          "name": "",
          "type": "bool"
        }
      ],
      "stateMutability": "nonpayable",
      "type": "function"
    },
    {
      "inputs": [],
      "name": "paused",
      "outputs": [
        {
          "internalType": "bool",
          "name": "",
          "type": "bool"
        }
      ],
      "stateMutability": "view",
      "type": "function"
    },
    {
      "inputs": [],
      "name": "totalSupply",
      "outputs": [
        {
          "internalType": "uint256",
          "name": "",
          "type": "uint256"
        }
      ],
      "stateMutability": "view",
      "type": "function"
    },
    {
      "inputs": [
        {
          "internalType": "address",
          "name": "recipient",
          "type": "address"
        },
        {
          "internalType": "uint256",
          "name": "amount",
          "type": "uint256"
        }
      ],
      "name": "transfer",
      "outputs": [
        {
          "internalType": "bool",
          "name": "",
          "type": "bool"
        }
      ],
      "stateMutability": "nonpayable",
      "type": "function"
    },
    {
      "inputs": [
        {
          "internalType": "address",
          "name": "sender",
          "type": "address"
        },
        {
          "internalType": "address",
          "name": "recipient",
          "type": "address"
        },
        {
          "internalType": "uint256",
          "name": "amount",
          "type": "uint256"
        }
      ],
      "name": "transferFrom",
      "outputs": [
        {
          "internalType": "bool",
          "name": "",
          "type": "bool"
        }
      ],
      "stateMutability": "nonpayable",
      "type": "function"
    }
  ],
  "bytecode": "0x60806040526003805460ff191690556108e18061001d6000396000f3fe608060405234801561001057600080fd5b50600436106100935760003560e01c80635c975abb116100665780635c975abb1461015457806370a082311461015c578063a457c2d714610182578063a9059cbb146101ae578063dd62ed3e146101da57610093565b8063095ea7b31461009857806318160ddd146100d857806323b872dd146100f25780633950935114610128575b600080fd5b6100c4600480360360408110156100ae57600080fd5b506001600160a01b038135169060200135610208565b604080519115158252519081900360200190f35b6100e0610225565b60408051918252519081900360200190f35b6100c46004803603606081101561010857600080fd5b506001600160a01b0381358116916020810135909116906040013561022b565b6100c46004803603604081101561013e57600080fd5b506001600160a01b0381351690602001356102b8565b6100c461030c565b6100e06004803603602081101561017257600080fd5b50356001600160a01b0316610315565b6100c46004803603604081101561019857600080fd5b506001600160a01b038135169060200135610330565b6100c4600480360360408110156101c457600080fd5b506001600160a01b03813516906020013561039e565b6100e0600480360360408110156101f057600080fd5b506001600160a01b03813581169160200135166103b2565b600061021c6102156103dd565b84846103e1565b50600192915050565b60025490565b60006102388484846104cd565b6102ae846102446103dd565b6102a9856040518060600160405280602881526020016107ec602891396001600160a01b038a166000908152600160205260408120906102826103dd565b6001600160a01b03168152602081019190915260400160002054919063ffffffff61063416565b6103e1565b5060019392505050565b600061021c6102c56103dd565b846102a985600160006102d66103dd565b6001600160a01b03908116825260208083019390935260409182016000908120918c16815292529020549063ffffffff6106cb16565b60035460ff1690565b6001600160a01b031660009081526020819052604090205490565b600061021c61033d6103dd565b846102a98560405180606001604052806025815260200161085d60259139600160006103676103dd565b6001600160a01b03908116825260208083019390935260409182016000908120918d1681529252902054919063ffffffff61063416565b600061021c6103ab6103dd565b84846104cd565b6001600160a01b03918216600090815260016020908152604080832093909416825291909152205490565b3390565b6001600160a01b0383166104265760405162461bcd60e51b81526004018080602001828103825260248152602001806108396024913960400191505060405180910390fd5b6001600160a01b03821661046b5760405162461bcd60e51b81526004018080602001828103825260228152602001806107a46022913960400191505060405180910390fd5b6001600160a01b03808416600081815260016020908152604080832094871680845294825291829020859055815185815291517f8c5be1e5ebec7d5bd14f71427d1e84f3dd0314c0f7b2291e5b200ac8c7c3b9259281900390910190a3505050565b6001600160a01b0383166105125760405162461bcd60e51b81526004018080602001828103825260258152602001806108146025913960400191505060405180910390fd5b6001600160a01b0382166105575760405162461bcd60e51b81526004018080602001828103825260238152602001806107816023913960400191505060405180910390fd5b61056283838361072c565b6105a5816040518060600160405280602681526020016107c6602691396001600160a01b038616600090815260208190526040902054919063ffffffff61063416565b6001600160a01b0380851660009081526020819052604080822093909355908416815220546105da908263ffffffff6106cb16565b6001600160a01b038084166000818152602081815260409182902094909455805185815290519193928716927fddf252ad1be2c89b69c2b068fc378daa952ba7f163c4a11628f55a4df523b3ef92918290030190a3505050565b600081848411156106c35760405162461bcd60e51b81526004018080602001828103825283818151815260200191508051906020019080838360005b83811015610688578181015183820152602001610670565b50505050905090810190601f1680156106b55780820380516001836020036101000a031916815260200191505b509250505060405180910390fd5b505050900390565b600082820183811015610725576040805162461bcd60e51b815260206004820152601b60248201527f536166654d6174683a206164646974696f6e206f766572666c6f770000000000604482015290519081900360640190fd5b9392505050565b61073783838361077b565b61073f61030c565b1561077b5760405162461bcd60e51b815260040180806020018281038252602a815260200180610882602a913960400191505060405180910390fd5b50505056fe45524332303a207472616e7366657220746f20746865207a65726f206164647265737345524332303a20617070726f766520746f20746865207a65726f206164647265737345524332303a207472616e7366657220616d6f756e7420657863656564732062616c616e636545524332303a207472616e7366657220616d6f756e74206578636565647320616c6c6f77616e636545524332303a207472616e736665722066726f6d20746865207a65726f206164647265737345524332303a20617070726f76652066726f6d20746865207a65726f206164647265737345524332303a2064656372656173656420616c6c6f77616e63652062656c6f77207a65726f45524332305061757361626c653a20746f6b656e207472616e73666572207768696c6520706175736564a2646970667358221220fa2730f95b4abbc23adb3ca6919cd73749f50a2a463908e3521af3927d8e5da464736f6c63430006000033",
  "source": "pragma solidity ^0.6.0;\n\nimport \"./ERC20.sol\";\nimport \"../utils/Pausable.sol\";\n\n/**\n * @title Pausable token\n * @dev ERC20 with pausable transfers and allowances.\n *\n * Useful for scenarios such as preventing trades until the end of an evaluation\n * period, or having an emergency switch for freezing all token transfers in the\n * event of a large bug.\n */\ncontract ERC20Pausable is ERC20, Pausable {\n    /**\n     * @dev See {ERC20-_beforeTokenTransfer}.\n     *\n     * Requirements:\n     *\n     * - the contract must not be paused.\n     */\n    function _beforeTokenTransfer(address from, address to, uint256 amount) internal virtual override {\n        super._beforeTokenTransfer(from, to, amount);\n\n        require(!paused(), \"ERC20Pausable: token transfer while paused\");\n    }\n}",
  "sourcePath": "/Applications/projects/nft/newdt/contracts/token/ERC20Pausable.sol",
  "compiler": {
    "name": "solc",
    "version": "0.6.0+commit.26b70077.Emscripten.clang"
  },
  "schemaVersion": "3.4.3",
  "updatedAt": "2022-01-29T12:26:38.329Z",
  "devdoc": {
    "details": "ERC20 with pausable transfers and allowances. * Useful for scenarios such as preventing trades until the end of an evaluation period, or having an emergency switch for freezing all token transfers in the event of a large bug.",
    "methods": {
      "allowance(address,address)": {
        "details": "See {IERC20-allowance}."
      },
      "approve(address,uint256)": {
        "details": "See {IERC20-approve}.     * Requirements:     * - `spender` cannot be the zero address."
      },
      "balanceOf(address)": {
        "details": "See {IERC20-balanceOf}."
      },
      "decreaseAllowance(address,uint256)": {
        "details": "Atomically decreases the allowance granted to `spender` by the caller.     * This is an alternative to {approve} that can be used as a mitigation for problems described in {IERC20-approve}.     * Emits an {Approval} event indicating the updated allowance.     * Requirements:     * - `spender` cannot be the zero address. - `spender` must have allowance for the caller of at least `subtractedValue`."
      },
      "increaseAllowance(address,uint256)": {
        "details": "Atomically increases the allowance granted to `spender` by the caller.     * This is an alternative to {approve} that can be used as a mitigation for problems described in {IERC20-approve}.     * Emits an {Approval} event indicating the updated allowance.     * Requirements:     * - `spender` cannot be the zero address."
      },
      "paused()": {
        "details": "Returns true if the contract is paused, and false otherwise."
      },
      "totalSupply()": {
        "details": "See {IERC20-totalSupply}."
      },
      "transfer(address,uint256)": {
        "details": "See {IERC20-transfer}.     * Requirements:     * - `recipient` cannot be the zero address. - the caller must have a balance of at least `amount`."
      },
      "transferFrom(address,address,uint256)": {
        "details": "See {IERC20-transferFrom}.     * Emits an {Approval} event indicating the updated allowance. This is not required by the EIP. See the note at the beginning of {ERC20};     * Requirements: - `sender` and `recipient` cannot be the zero address. - `sender` must have a balance of at least `amount`. - the caller must have allowance for `sender`'s tokens of at least `amount`."
      }
    },
    "title": "Pausable token"
  },
  "userdoc": {
    "methods": {}
  }
}