{
  "contractName": "ERC20Capped",
  "abi": [
    {
      "inputs": [
        {
          "internalType": "uint256",
          "name": "cap",
          "type": "uint256"
        }
      ],
      "stateMutability": "nonpayable",
      "type": "constructor"
    },
    {
      "anonymous": false,
      "inputs": [
        {
          "indexed": true,
          "internalType": "address",
          "name": "owner",
          "type": "address"
        },
        {
          "indexed": true,
          "internalType": "address",
          "name": "spender",
          "type": "address"
        },
        {
          "indexed": false,
          "internalType": "uint256",
          "name": "value",
          "type": "uint256"
        }
      ],
      "name": "Approval",
      "type": "event"
    },
    {
      "anonymous": false,
      "inputs": [],
      "name": "Finalized",
      "type": "event"
    },
    {
      "anonymous": false,
      "inputs": [
        {
          "indexed": true,
          "internalType": "address",
          "name": "previousOwner",
          "type": "address"
        },
        {
          "indexed": true,
          "internalType": "address",
          "name": "newOwner",
          "type": "address"
        }
      ],
      "name": "OwnershipTransferred",
      "type": "event"
    },
    {
      "anonymous": false,
      "inputs": [
        {
          "indexed": false,
          "internalType": "address",
          "name": "account",
          "type": "address"
        }
      ],
      "name": "Paused",
      "type": "event"
    },
    {
      "anonymous": false,
      "inputs": [
        {
          "indexed": true,
          "internalType": "bytes32",
          "name": "role",
          "type": "bytes32"
        },
        {
          "indexed": true,
          "internalType": "address",
          "name": "account",
          "type": "address"
        },
        {
          "indexed": true,
          "internalType": "address",
          "name": "sender",
          "type": "address"
        }
      ],
      "name": "RoleGranted",
      "type": "event"
    },
    {
      "anonymous": false,
      "inputs": [
        {
          "indexed": true,
          "internalType": "bytes32",
          "name": "role",
          "type": "bytes32"
        },
        {
          "indexed": true,
          "internalType": "address",
          "name": "account",
          "type": "address"
        },
        {
          "indexed": true,
          "internalType": "address",
          "name": "sender",
          "type": "address"
        }
      ],
      "name": "RoleRevoked",
      "type": "event"
    },
    {
      "anonymous": false,
      "inputs": [
        {
          "indexed": true,
          "internalType": "address",
          "name": "from",
          "type": "address"
        },
        {
          "indexed": true,
          "internalType": "address",
          "name": "to",
          "type": "address"
        },
        {
          "indexed": false,
          "internalType": "uint256",
          "name": "value",
          "type": "uint256"
        }
      ],
      "name": "Transfer",
      "type": "event"
    },
    {
      "anonymous": false,
      "inputs": [
        {
          "indexed": false,
          "internalType": "address",
          "name": "account",
          "type": "address"
        }
      ],
      "name": "Unpaused",
      "type": "event"
    },
    {
      "inputs": [],
      "name": "DEFAULT_ADMIN_ROLE",
      "outputs": [
        {
          "internalType": "bytes32",
          "name": "",
          "type": "bytes32"
        }
      ],
      "stateMutability": "view",
      "type": "function"
    },
    {
      "inputs": [],
      "name": "MINTER_ADMIN_ROLE",
      "outputs": [
        {
          "internalType": "bytes32",
          "name": "",
          "type": "bytes32"
        }
      ],
      "stateMutability": "view",
      "type": "function"
    },
    {
      "inputs": [],
      "name": "MINTER_ROLE",
      "outputs": [
        {
          "internalType": "bytes32",
          "name": "",
          "type": "bytes32"
        }
      ],
      "stateMutability": "view",
      "type": "function"
    },
    {
      "inputs": [
        {
          "internalType": "bytes32",
          "name": "role",
          "type": "bytes32"
        },
        {
          "internalType": "address",
          "name": "account",
          "type": "address"
        }
      ],
      "name": "addAdmin",
      "outputs": [
        {
          "internalType": "bool",
          "name": "",
          "type": "bool"
        }
      ],
      "stateMutability": "nonpayable",
      "type": "function"
    },
    {
      "inputs": [
        {
          "internalType": "address",
          "name": "owner",
          "type": "address"
        },
        {
          "internalType": "address",
          "name": "spender",
          "type": "address"
        }
      ],
      "name": "allowance",
      "outputs": [
        {
          "internalType": "uint256",
          "name": "",
          "type": "uint256"
        }
      ],
      "stateMutability": "view",
      "type": "function"
    },
    {
      "inputs": [
        {
          "internalType": "address",
          "name": "spender",
          "type": "address"
        },
        {
          "internalType": "uint256",
          "name": "amount",
          "type": "uint256"
        }
      ],
      "name": "approve",
      "outputs": [
        {
          "internalType": "bool",
          "name": "",
          "type": "bool"
        }
      ],
      "stateMutability": "nonpayable",
      "type": "function"
    },
    {
      "inputs": [
        {
          "internalType": "address",
          "name": "account",
          "type": "address"
        }
      ],
      "name": "balanceOf",
      "outputs": [
        {
          "internalType": "uint256",
          "name": "",
          "type": "uint256"
        }
      ],
      "stateMutability": "view",
      "type": "function"
    },
    {
      "inputs": [
        {
          "internalType": "address",
          "name": "spender",
          "type": "address"
        },
        {
          "internalType": "uint256",
          "name": "subtractedValue",
          "type": "uint256"
        }
      ],
      "name": "decreaseAllowance",
      "outputs": [
        {
          "internalType": "bool",
          "name": "",
          "type": "bool"
        }
      ],
      "stateMutability": "nonpayable",
      "type": "function"
    },
    {
      "inputs": [],
      "name": "finalize",
      "outputs": [],
      "stateMutability": "nonpayable",
      "type": "function"
    },
    {
      "inputs": [
        {
          "internalType": "bytes32",
          "name": "role",
          "type": "bytes32"
        }
      ],
      "name": "getRoleAdmin",
      "outputs": [
        {
          "internalType": "bytes32",
          "name": "",
          "type": "bytes32"
        }
      ],
      "stateMutability": "view",
      "type": "function"
    },
    {
      "inputs": [
        {
          "internalType": "bytes32",
          "name": "role",
          "type": "bytes32"
        },
        {
          "internalType": "uint256",
          "name": "index",
          "type": "uint256"
        }
      ],
      "name": "getRoleMember",
      "outputs": [
        {
          "internalType": "address",
          "name": "",
          "type": "address"
        }
      ],
      "stateMutability": "view",
      "type": "function"
    },
    {
      "inputs": [
        {
          "internalType": "bytes32",
          "name": "role",
          "type": "bytes32"
        }
      ],
      "name": "getRoleMemberCount",
      "outputs": [
        {
          "internalType": "uint256",
          "name": "",
          "type": "uint256"
        }
      ],
      "stateMutability": "view",
      "type": "function"
    },
    {
      "inputs": [
        {
          "internalType": "bytes32",
          "name": "role",
          "type": "bytes32"
        },
        {
          "internalType": "address",
          "name": "account",
          "type": "address"
        }
      ],
      "name": "grantRole",
      "outputs": [],
      "stateMutability": "nonpayable",
      "type": "function"
    },
    {
      "inputs": [
        {
          "internalType": "bytes32",
          "name": "role",
          "type": "bytes32"
        },
        {
          "internalType": "address",
          "name": "account",
          "type": "address"
        }
      ],
      "name": "hasRole",
      "outputs": [
        {
          "internalType": "bool",
          "name": "",
          "type": "bool"
        }
      ],
      "stateMutability": "view",
      "type": "function"
    },
    {
      "inputs": [
        {
          "internalType": "address",
          "name": "spender",
          "type": "address"
        },
        {
          "internalType": "uint256",
          "name": "addedValue",
          "type": "uint256"
        }
      ],
      "name": "increaseAllowance",
      "outputs": [
        {
          "internalType": "bool",
          "name": "",
          "type": "bool"
        }
      ],
      "stateMutability": "nonpayable",
      "type": "function"
    },
    {
      "inputs": [],
      "name": "owner",
      "outputs": [
        {
          "internalType": "address",
          "name": "",
          "type": "address"
        }
      ],
      "stateMutability": "view",
      "type": "function"
    },
    {
      "inputs": [],
      "name": "paused",
      "outputs": [
        {
          "internalType": "bool",
          "name": "",
          "type": "bool"
        }
      ],
      "stateMutability": "view",
      "type": "function"
    },
    {
      "inputs": [],
      "name": "renounceOwnership",
      "outputs": [],
      "stateMutability": "nonpayable",
      "type": "function"
    },
    {
      "inputs": [
        {
          "internalType": "bytes32",
          "name": "role",
          "type": "bytes32"
        },
        {
          "internalType": "address",
          "name": "account",
          "type": "address"
        }
      ],
      "name": "renounceRole",
      "outputs": [],
      "stateMutability": "nonpayable",
      "type": "function"
    },
    {
      "inputs": [
        {
          "internalType": "bytes32",
          "name": "role",
          "type": "bytes32"
        },
        {
          "internalType": "address",
          "name": "account",
          "type": "address"
        }
      ],
      "name": "revokeRole",
      "outputs": [],
      "stateMutability": "nonpayable",
      "type": "function"
    },
    {
      "inputs": [],
      "name": "totalSupply",
      "outputs": [
        {
          "internalType": "uint256",
          "name": "",
          "type": "uint256"
        }
      ],
      "stateMutability": "view",
      "type": "function"
    },
    {
      "inputs": [
        {
          "internalType": "address",
          "name": "recipient",
          "type": "address"
        },
        {
          "internalType": "uint256",
          "name": "amount",
          "type": "uint256"
        }
      ],
      "name": "transfer",
      "outputs": [
        {
          "internalType": "bool",
          "name": "",
          "type": "bool"
        }
      ],
      "stateMutability": "nonpayable",
      "type": "function"
    },
    {
      "inputs": [
        {
          "internalType": "address",
          "name": "sender",
          "type": "address"
        },
        {
          "internalType": "address",
          "name": "recipient",
          "type": "address"
        },
        {
          "internalType": "uint256",
          "name": "amount",
          "type": "uint256"
        }
      ],
      "name": "transferFrom",
      "outputs": [
        {
          "internalType": "bool",
          "name": "",
          "type": "bool"
        }
      ],
      "stateMutability": "nonpayable",
      "type": "function"
    },
    {
      "inputs": [
        {
          "internalType": "address",
          "name": "newOwner",
          "type": "address"
        }
      ],
      "name": "transferOwnership",
      "outputs": [],
      "stateMutability": "nonpayable",
      "type": "function"
    },
    {
      "inputs": [],
      "name": "cap",
      "outputs": [
        {
          "internalType": "uint256",
          "name": "",
          "type": "uint256"
        }
      ],
      "stateMutability": "view",
      "type": "function"
    }
  ],
  "bytecode": "0x60806040526005805460ff60a01b1916905534801561001d57600080fd5b506040516116b33803806116b38339818101604052602081101561004057600080fd5b50516003805460ff19169055600061005f6001600160e01b0361015f16565b600580546001600160a01b0319166001600160a01b038316908117909155604051919250906000907f8be0079c531659141344cd1fd0a4f28419497f9722a3daafe3b4186f6b6457e0908290a350604080516a4d494e5445525f524f4c4560a81b8152815190819003600b018120704d494e5445525f41444d494e5f524f4c4560781b8252915190819003601101902061010291906001600160e01b0361016316565b60008111610157576040805162461bcd60e51b815260206004820152601560248201527f45524332304361707065643a2063617020697320300000000000000000000000604482015290519081900360640190fd5b600655610178565b3390565b60009182526004602052604090912060020155565b61152c806101876000396000f3fe608060405234801561001057600080fd5b50600436106101735760003560e01c806370a08231116100de578063a457c2d711610097578063d539139311610071578063d539139314610415578063d547741f1461041d578063dd62ed3e14610449578063f2fde38b1461047757610173565b8063a457c2d7146103a0578063a9059cbb146103cc578063ca15c873146103f857610173565b806370a08231146102f7578063715018a61461031d5780638da5cb5b146103255780639010d07c1461034957806391d148541461036c578063a217fddf1461039857610173565b8063355274ea11610130578063355274ea1461025b57806336568abe14610263578063395093511461028f5780634bb278f3146102bb5780635c975abb146102c35780636419bcdb146102cb57610173565b8063095ea7b3146101785780631339324b146101b857806318160ddd146101d257806323b872dd146101da578063248a9ca3146102105780632f2ff15d1461022d575b600080fd5b6101a46004803603604081101561018e57600080fd5b506001600160a01b03813516906020013561049d565b604080519115158252519081900360200190f35b6101c06104bb565b60408051918252519081900360200190f35b6101c06104e4565b6101a4600480360360608110156101f057600080fd5b506001600160a01b038135811691602081013590911690604001356104ea565b6101c06004803603602081101561022657600080fd5b5035610577565b6102596004803603604081101561024357600080fd5b50803590602001356001600160a01b031661058c565b005b6101c06105f8565b6102596004803603604081101561027957600080fd5b50803590602001356001600160a01b03166105fe565b6101a4600480360360408110156102a557600080fd5b506001600160a01b03813516906020013561065f565b6102596106b3565b6101a46107a8565b6101a4600480360360408110156102e157600080fd5b50803590602001356001600160a01b03166107b1565b6101c06004803603602081101561030d57600080fd5b50356001600160a01b0316610874565b61025961088f565b61032d610931565b604080516001600160a01b039092168252519081900360200190f35b61032d6004803603604081101561035f57600080fd5b5080359060200135610940565b6101a46004803603604081101561038257600080fd5b50803590602001356001600160a01b0316610965565b6101c0610983565b6101a4600480360360408110156103b657600080fd5b506001600160a01b038135169060200135610988565b6101a4600480360360408110156103e257600080fd5b506001600160a01b0381351690602001356109f6565b6101c06004803603602081101561040e57600080fd5b5035610a0a565b6101c0610a21565b6102596004803603604081101561043357600080fd5b50803590602001356001600160a01b0316610a44565b6101c06004803603604081101561045f57600080fd5b506001600160a01b0381358116916020013516610a9d565b6102596004803603602081101561048d57600080fd5b50356001600160a01b0316610ac8565b60006104b16104aa610b2c565b8484610b30565b5060015b92915050565b60408051704d494e5445525f41444d494e5f524f4c4560781b8152905190819003601101902081565b60025490565b60006104f7848484610c1c565b61056d84610503610b2c565b610568856040518060600160405280602881526020016113e8602891396001600160a01b038a16600090815260016020526040812090610541610b2c565b6001600160a01b03168152602081019190915260400160002054919063ffffffff610d8316565b610b30565b5060019392505050565b60009081526004602052604090206002015490565b6000828152600460205260409020600201546105af906105aa610b2c565b610965565b6105ea5760405162461bcd60e51b815260040180806020018281038252602f81526020018061131b602f913960400191505060405180910390fd5b6105f48282610e1a565b5050565b60065490565b610606610b2c565b6001600160a01b0316816001600160a01b0316146106555760405162461bcd60e51b815260040180806020018281038252602f81526020018061149e602f913960400191505060405180910390fd5b6105f48282610e89565b60006104b161066c610b2c565b84610568856001600061067d610b2c565b6001600160a01b03908116825260208083019390935260409182016000908120918c16815292529020549063ffffffff610ef816565b6106bb610b2c565b6005546001600160a01b0390811691161461070b576040805162461bcd60e51b81526020600482018190526024820152600080516020611410833981519152604482015290519081900360640190fd5b600554600160a01b900460ff161561076a576040805162461bcd60e51b815260206004820152601d60248201527f4d696e746572526f6c653a20616c72656164792066696e616c697a6564000000604482015290519081900360640190fd5b6005805460ff60a01b1916600160a01b1790556040517f6823b073d48d6e3a7d385eeb601452d680e74bb46afe3255a7d778f3a9b1768190600090a1565b60035460ff1690565b60006107bb610b2c565b6005546001600160a01b0390811691161461080b576040805162461bcd60e51b81526020600482018190526024820152600080516020611410833981519152604482015290519081900360640190fd5b600554600160a01b900460ff161561086a576040805162461bcd60e51b815260206004820152601d60248201527f4d696e746572526f6c653a20616c72656164792066696e616c697a6564000000604482015290519081900360640190fd5b6104b183836105ea565b6001600160a01b031660009081526020819052604090205490565b610897610b2c565b6005546001600160a01b039081169116146108e7576040805162461bcd60e51b81526020600482018190526024820152600080516020611410833981519152604482015290519081900360640190fd5b6005546040516000916001600160a01b0316907f8be0079c531659141344cd1fd0a4f28419497f9722a3daafe3b4186f6b6457e0908390a3600580546001600160a01b0319169055565b6005546001600160a01b031690565b600082815260046020526040812061095e908363ffffffff610f5216565b9392505050565b600082815260046020526040812061095e908363ffffffff610f5e16565b600081565b60006104b1610995610b2c565b846105688560405180606001604052806025815260200161147960259139600160006109bf610b2c565b6001600160a01b03908116825260208083019390935260409182016000908120918d1681529252902054919063ffffffff610d8316565b60006104b1610a03610b2c565b8484610c1c565b60008181526004602052604081206104b590610f73565b604080516a4d494e5445525f524f4c4560a81b8152905190819003600b01902081565b600082815260046020526040902060020154610a62906105aa610b2c565b6106555760405162461bcd60e51b81526004018080602001828103825260308152602001806113b86030913960400191505060405180910390fd5b6001600160a01b03918216600090815260016020908152604080832093909416825291909152205490565b610ad0610b2c565b6005546001600160a01b03908116911614610b20576040805162461bcd60e51b81526020600482018190526024820152600080516020611410833981519152604482015290519081900360640190fd5b610b2981610f7e565b50565b3390565b6001600160a01b038316610b755760405162461bcd60e51b81526004018080602001828103825260248152602001806114556024913960400191505060405180910390fd5b6001600160a01b038216610bba5760405162461bcd60e51b81526004018080602001828103825260228152602001806113706022913960400191505060405180910390fd5b6001600160a01b03808416600081815260016020908152604080832094871680845294825291829020859055815185815291517f8c5be1e5ebec7d5bd14f71427d1e84f3dd0314c0f7b2291e5b200ac8c7c3b9259281900390910190a3505050565b6001600160a01b038316610c615760405162461bcd60e51b81526004018080602001828103825260258152602001806114306025913960400191505060405180910390fd5b6001600160a01b038216610ca65760405162461bcd60e51b81526004018080602001828103825260238152602001806112f86023913960400191505060405180910390fd5b610cb183838361101f565b610cf481604051806060016040528060268152602001611392602691396001600160a01b038616600090815260208190526040902054919063ffffffff610d8316565b6001600160a01b038085166000908152602081905260408082209390935590841681522054610d29908263ffffffff610ef816565b6001600160a01b038084166000818152602081815260409182902094909455805185815290519193928716927fddf252ad1be2c89b69c2b068fc378daa952ba7f163c4a11628f55a4df523b3ef92918290030190a3505050565b60008184841115610e125760405162461bcd60e51b81526004018080602001828103825283818151815260200191508051906020019080838360005b83811015610dd7578181015183820152602001610dbf565b50505050905090810190601f168015610e045780820380516001836020036101000a031916815260200191505b509250505060405180910390fd5b505050900390565b6000828152600460205260409020610e38908263ffffffff6110b616565b156105f457610e45610b2c565b6001600160a01b0316816001600160a01b0316837f2f8788117e7eff1d82e926ec794901d17c78024a50270940304540a733656f0d60405160405180910390a45050565b6000828152600460205260409020610ea7908263ffffffff6110cb16565b156105f457610eb4610b2c565b6001600160a01b0316816001600160a01b0316837ff6391f5c32d9c69d2a47ea670b442974b53935d1edc7fd64eb21e047a839171b60405160405180910390a45050565b60008282018381101561095e576040805162461bcd60e51b815260206004820152601b60248201527f536166654d6174683a206164646974696f6e206f766572666c6f770000000000604482015290519081900360640190fd5b600061095e83836110e0565b600061095e836001600160a01b038416611144565b60006104b58261115c565b6001600160a01b038116610fc35760405162461bcd60e51b815260040180806020018281038252602681526020018061134a6026913960400191505060405180910390fd5b6005546040516001600160a01b038084169216907f8be0079c531659141344cd1fd0a4f28419497f9722a3daafe3b4186f6b6457e090600090a3600580546001600160a01b0319166001600160a01b0392909216919091179055565b61102a838383611160565b611035838383611160565b6001600160a01b0383166110b15760065461105e826110526104e4565b9063ffffffff610ef816565b11156110b1576040805162461bcd60e51b815260206004820152601960248201527f45524332304361707065643a2063617020657863656564656400000000000000604482015290519081900360640190fd5b505050565b600061095e836001600160a01b038416611176565b600061095e836001600160a01b0384166111c0565b815460009082106111225760405162461bcd60e51b81526004018080602001828103825260228152602001806112d66022913960400191505060405180910390fd5b82600001828154811061113157fe5b9060005260206000200154905092915050565b60009081526001919091016020526040902054151590565b5490565b61116b838383611286565b6110b1838383611286565b60006111828383611144565b6111b8575081546001818101845560008481526020808220909301849055845484825282860190935260409020919091556104b5565b5060006104b5565b6000818152600183016020526040812054801561127c57835460001980830191908101906000908790839081106111f357fe5b906000526020600020015490508087600001848154811061121057fe5b60009182526020808320909101929092558281526001898101909252604090209084019055865487908061124057fe5b600190038181906000526020600020016000905590558660010160008781526020019081526020016000206000905560019450505050506104b5565b60009150506104b5565b6112918383836110b1565b6112996107a8565b156110b15760405162461bcd60e51b815260040180806020018281038252602a8152602001806114cd602a913960400191505060405180910390fdfe456e756d657261626c655365743a20696e646578206f7574206f6620626f756e647345524332303a207472616e7366657220746f20746865207a65726f2061646472657373416363657373436f6e74726f6c3a2073656e646572206d75737420626520616e2061646d696e20746f206772616e744f776e61626c653a206e6577206f776e657220697320746865207a65726f206164647265737345524332303a20617070726f766520746f20746865207a65726f206164647265737345524332303a207472616e7366657220616d6f756e7420657863656564732062616c616e6365416363657373436f6e74726f6c3a2073656e646572206d75737420626520616e2061646d696e20746f207265766f6b6545524332303a207472616e7366657220616d6f756e74206578636565647320616c6c6f77616e63654f776e61626c653a2063616c6c6572206973206e6f7420746865206f776e657245524332303a207472616e736665722066726f6d20746865207a65726f206164647265737345524332303a20617070726f76652066726f6d20746865207a65726f206164647265737345524332303a2064656372656173656420616c6c6f77616e63652062656c6f77207a65726f416363657373436f6e74726f6c3a2063616e206f6e6c792072656e6f756e636520726f6c657320666f722073656c6645524332305061757361626c653a20746f6b656e207472616e73666572207768696c6520706175736564a26469706673582212203f2867dac0beee9b8bc3ad6ba62044f22323de79b5eaf8e0e9bed9dd4ef7f38c64736f6c63430006000033",
  "source": "pragma solidity ^0.6.0;\n\nimport \"./ERC20.sol\";\nimport \"./ERC20Mintable.sol\";\n\n/**\n * @dev Extension of {ERC20} that adds a cap to the supply of tokens.\n */\ncontract ERC20Capped is ERC20, ERC20Mintable {\n    uint256 private _cap;\n\n    /**\n     * @dev Sets the value of the `cap`. This value is immutable, it can only be\n     * set once during construction.\n     */\n    constructor (uint256 cap) public {\n        require(cap > 0, \"ERC20Capped: cap is 0\");\n        _cap = cap;\n    }\n\n    /**\n     * @dev Returns the cap on the token's total supply.\n     */\n    function cap() public view returns (uint256) {\n        return _cap;\n    }\n\n    /**\n     * @dev See {ERC20-_beforeTokenTransfer}.\n     *\n     * Requirements:\n     *\n     * - minted tokens must not cause the total supply to go over the cap.\n     */\n\n    function _beforeTokenTransfer(address from, address to, uint256 amount) internal virtual override(ERC20, ERC20Mintable) {\n        super._beforeTokenTransfer(from, to, amount);\n        ERC20Mintable._beforeTokenTransfer(from, to, amount);\n\n        if (from == address(0)) { // When minting tokens\n            require(totalSupply().add(amount) <= _cap, \"ERC20Capped: cap exceeded\");\n        }\n    }\n}",
  "sourcePath": "/Applications/projects/nft/newdt/contracts/token/Capped.sol",
  "compiler": {
    "name": "solc",
    "version": "0.6.0+commit.26b70077.Emscripten.clang"
  },
  "schemaVersion": "3.4.3",
  "updatedAt": "2022-01-29T12:26:38.302Z",
  "devdoc": {
    "details": "Extension of {ERC20} that adds a cap to the supply of tokens.",
    "methods": {
      "addAdmin(bytes32,address)": {
        "details": "Create and ading new role.",
        "params": {
          "account": "account for adding to the role.",
          "role": "role account."
        }
      },
      "allowance(address,address)": {
        "details": "See {IERC20-allowance}."
      },
      "approve(address,uint256)": {
        "details": "See {IERC20-approve}.     * Requirements:     * - `spender` cannot be the zero address."
      },
      "balanceOf(address)": {
        "details": "See {IERC20-balanceOf}."
      },
      "cap()": {
        "details": "Returns the cap on the token's total supply."
      },
      "constructor": {
        "details": "Sets the value of the `cap`. This value is immutable, it can only be set once during construction."
      },
      "decreaseAllowance(address,uint256)": {
        "details": "Atomically decreases the allowance granted to `spender` by the caller.     * This is an alternative to {approve} that can be used as a mitigation for problems described in {IERC20-approve}.     * Emits an {Approval} event indicating the updated allowance.     * Requirements:     * - `spender` cannot be the zero address. - `spender` must have allowance for the caller of at least `subtractedValue`."
      },
      "finalize()": {
        "details": "block adding admins."
      },
      "getRoleAdmin(bytes32)": {
        "details": "Returns the admin role that controls `role`. See {grantRole} and {revokeRole}.     * To change a role's admin, use {_setRoleAdmin}."
      },
      "getRoleMember(bytes32,uint256)": {
        "details": "Returns one of the accounts that have `role`. `index` must be a value between 0 and {getRoleMemberCount}, non-inclusive.     * Role bearers are not sorted in any particular way, and their ordering may change at any point.     * WARNING: When using {getRoleMember} and {getRoleMemberCount}, make sure you perform all queries on the same block. See the following https://forum.openzeppelin.com/t/iterating-over-elements-on-enumerableset-in-openzeppelin-contracts/2296[forum post] for more information."
      },
      "getRoleMemberCount(bytes32)": {
        "details": "Returns the number of accounts that have `role`. Can be used together with {getRoleMember} to enumerate all bearers of a role."
      },
      "grantRole(bytes32,address)": {
        "details": "Grants `role` to `account`.     * If `account` had not been already granted `role`, emits a {RoleGranted} event.     * Requirements:     * - the caller must have ``role``'s admin role."
      },
      "hasRole(bytes32,address)": {
        "details": "Returns `true` if `account` has been granted `role`."
      },
      "increaseAllowance(address,uint256)": {
        "details": "Atomically increases the allowance granted to `spender` by the caller.     * This is an alternative to {approve} that can be used as a mitigation for problems described in {IERC20-approve}.     * Emits an {Approval} event indicating the updated allowance.     * Requirements:     * - `spender` cannot be the zero address."
      },
      "owner()": {
        "details": "Returns the address of the current owner."
      },
      "paused()": {
        "details": "Returns true if the contract is paused, and false otherwise."
      },
      "renounceOwnership()": {
        "details": "Leaves the contract without owner. It will not be possible to call `onlyOwner` functions anymore. Can only be called by the current owner.     * NOTE: Renouncing ownership will leave the contract without an owner, thereby removing any functionality that is only available to the owner."
      },
      "renounceRole(bytes32,address)": {
        "details": "Revokes `role` from the calling account.     * Roles are often managed via {grantRole} and {revokeRole}: this function's purpose is to provide a mechanism for accounts to lose their privileges if they are compromised (such as when a trusted device is misplaced).     * If the calling account had been granted `role`, emits a {RoleRevoked} event.     * Requirements:     * - the caller must be `account`."
      },
      "revokeRole(bytes32,address)": {
        "details": "Revokes `role` from `account`.     * If `account` had been granted `role`, emits a {RoleRevoked} event.     * Requirements:     * - the caller must have ``role``'s admin role."
      },
      "totalSupply()": {
        "details": "See {IERC20-totalSupply}."
      },
      "transfer(address,uint256)": {
        "details": "See {IERC20-transfer}.     * Requirements:     * - `recipient` cannot be the zero address. - the caller must have a balance of at least `amount`."
      },
      "transferFrom(address,address,uint256)": {
        "details": "See {IERC20-transferFrom}.     * Emits an {Approval} event indicating the updated allowance. This is not required by the EIP. See the note at the beginning of {ERC20};     * Requirements: - `sender` and `recipient` cannot be the zero address. - `sender` must have a balance of at least `amount`. - the caller must have allowance for `sender`'s tokens of at least `amount`."
      },
      "transferOwnership(address)": {
        "details": "Transfers ownership of the contract to a new account (`newOwner`). Can only be called by the current owner."
      }
    }
  },
  "userdoc": {
    "methods": {}
  }
}