{
  "contractName": "MinterRole",
  "abi": [
    {
      "inputs": [],
      "stateMutability": "nonpayable",
      "type": "constructor"
    },
    {
      "anonymous": false,
      "inputs": [],
      "name": "Finalized",
      "type": "event"
    },
    {
      "anonymous": false,
      "inputs": [
        {
          "indexed": true,
          "internalType": "address",
          "name": "previousOwner",
          "type": "address"
        },
        {
          "indexed": true,
          "internalType": "address",
          "name": "newOwner",
          "type": "address"
        }
      ],
      "name": "OwnershipTransferred",
      "type": "event"
    },
    {
      "anonymous": false,
      "inputs": [
        {
          "indexed": true,
          "internalType": "bytes32",
          "name": "role",
          "type": "bytes32"
        },
        {
          "indexed": true,
          "internalType": "address",
          "name": "account",
          "type": "address"
        },
        {
          "indexed": true,
          "internalType": "address",
          "name": "sender",
          "type": "address"
        }
      ],
      "name": "RoleGranted",
      "type": "event"
    },
    {
      "anonymous": false,
      "inputs": [
        {
          "indexed": true,
          "internalType": "bytes32",
          "name": "role",
          "type": "bytes32"
        },
        {
          "indexed": true,
          "internalType": "address",
          "name": "account",
          "type": "address"
        },
        {
          "indexed": true,
          "internalType": "address",
          "name": "sender",
          "type": "address"
        }
      ],
      "name": "RoleRevoked",
      "type": "event"
    },
    {
      "inputs": [],
      "name": "DEFAULT_ADMIN_ROLE",
      "outputs": [
        {
          "internalType": "bytes32",
          "name": "",
          "type": "bytes32"
        }
      ],
      "stateMutability": "view",
      "type": "function"
    },
    {
      "inputs": [],
      "name": "MINTER_ADMIN_ROLE",
      "outputs": [
        {
          "internalType": "bytes32",
          "name": "",
          "type": "bytes32"
        }
      ],
      "stateMutability": "view",
      "type": "function"
    },
    {
      "inputs": [],
      "name": "MINTER_ROLE",
      "outputs": [
        {
          "internalType": "bytes32",
          "name": "",
          "type": "bytes32"
        }
      ],
      "stateMutability": "view",
      "type": "function"
    },
    {
      "inputs": [
        {
          "internalType": "bytes32",
          "name": "role",
          "type": "bytes32"
        }
      ],
      "name": "getRoleAdmin",
      "outputs": [
        {
          "internalType": "bytes32",
          "name": "",
          "type": "bytes32"
        }
      ],
      "stateMutability": "view",
      "type": "function"
    },
    {
      "inputs": [
        {
          "internalType": "bytes32",
          "name": "role",
          "type": "bytes32"
        },
        {
          "internalType": "uint256",
          "name": "index",
          "type": "uint256"
        }
      ],
      "name": "getRoleMember",
      "outputs": [
        {
          "internalType": "address",
          "name": "",
          "type": "address"
        }
      ],
      "stateMutability": "view",
      "type": "function"
    },
    {
      "inputs": [
        {
          "internalType": "bytes32",
          "name": "role",
          "type": "bytes32"
        }
      ],
      "name": "getRoleMemberCount",
      "outputs": [
        {
          "internalType": "uint256",
          "name": "",
          "type": "uint256"
        }
      ],
      "stateMutability": "view",
      "type": "function"
    },
    {
      "inputs": [
        {
          "internalType": "bytes32",
          "name": "role",
          "type": "bytes32"
        },
        {
          "internalType": "address",
          "name": "account",
          "type": "address"
        }
      ],
      "name": "grantRole",
      "outputs": [],
      "stateMutability": "nonpayable",
      "type": "function"
    },
    {
      "inputs": [
        {
          "internalType": "bytes32",
          "name": "role",
          "type": "bytes32"
        },
        {
          "internalType": "address",
          "name": "account",
          "type": "address"
        }
      ],
      "name": "hasRole",
      "outputs": [
        {
          "internalType": "bool",
          "name": "",
          "type": "bool"
        }
      ],
      "stateMutability": "view",
      "type": "function"
    },
    {
      "inputs": [],
      "name": "owner",
      "outputs": [
        {
          "internalType": "address",
          "name": "",
          "type": "address"
        }
      ],
      "stateMutability": "view",
      "type": "function"
    },
    {
      "inputs": [],
      "name": "renounceOwnership",
      "outputs": [],
      "stateMutability": "nonpayable",
      "type": "function"
    },
    {
      "inputs": [
        {
          "internalType": "bytes32",
          "name": "role",
          "type": "bytes32"
        },
        {
          "internalType": "address",
          "name": "account",
          "type": "address"
        }
      ],
      "name": "renounceRole",
      "outputs": [],
      "stateMutability": "nonpayable",
      "type": "function"
    },
    {
      "inputs": [
        {
          "internalType": "bytes32",
          "name": "role",
          "type": "bytes32"
        },
        {
          "internalType": "address",
          "name": "account",
          "type": "address"
        }
      ],
      "name": "revokeRole",
      "outputs": [],
      "stateMutability": "nonpayable",
      "type": "function"
    },
    {
      "inputs": [
        {
          "internalType": "address",
          "name": "newOwner",
          "type": "address"
        }
      ],
      "name": "transferOwnership",
      "outputs": [],
      "stateMutability": "nonpayable",
      "type": "function"
    },
    {
      "inputs": [
        {
          "internalType": "bytes32",
          "name": "role",
          "type": "bytes32"
        },
        {
          "internalType": "address",
          "name": "account",
          "type": "address"
        }
      ],
      "name": "addAdmin",
      "outputs": [
        {
          "internalType": "bool",
          "name": "",
          "type": "bool"
        }
      ],
      "stateMutability": "nonpayable",
      "type": "function"
    },
    {
      "inputs": [],
      "name": "finalize",
      "outputs": [],
      "stateMutability": "nonpayable",
      "type": "function"
    }
  ],
  "bytecode": "0x60806040526001805460ff60a01b1916905534801561001d57600080fd5b5060006100316001600160e01b036100d916565b600180546001600160a01b0319166001600160a01b038316908117909155604051919250906000907f8be0079c531659141344cd1fd0a4f28419497f9722a3daafe3b4186f6b6457e0908290a350604080516a4d494e5445525f524f4c4560a81b8152815190819003600b018120704d494e5445525f41444d494e5f524f4c4560781b825291519081900360110190206100d491906001600160e01b036100dd16565b6100f2565b3390565b60009182526020829052604090912060020155565b610c1f806101016000396000f3fe608060405234801561001057600080fd5b50600436106100f55760003560e01c80638da5cb5b11610097578063ca15c87311610066578063ca15c87314610256578063d539139314610273578063d547741f1461027b578063f2fde38b146102a7576100f5565b80638da5cb5b146101db5780639010d07c146101ff57806391d1485414610222578063a217fddf1461024e576100f5565b806336568abe116100d357806336568abe1461015f5780634bb278f31461018b5780636419bcdb14610193578063715018a6146101d3576100f5565b80631339324b146100fa578063248a9ca3146101145780632f2ff15d14610131575b600080fd5b6101026102cd565b60408051918252519081900360200190f35b6101026004803603602081101561012a57600080fd5b50356102f6565b61015d6004803603604081101561014757600080fd5b50803590602001356001600160a01b031661030b565b005b61015d6004803603604081101561017557600080fd5b50803590602001356001600160a01b0316610377565b61015d6103d8565b6101bf600480360360408110156101a957600080fd5b50803590602001356001600160a01b03166104cd565b604080519115158252519081900360200190f35b61015d61059a565b6101e361063c565b604080516001600160a01b039092168252519081900360200190f35b6101e36004803603604081101561021557600080fd5b508035906020013561064b565b6101bf6004803603604081101561023857600080fd5b50803590602001356001600160a01b0316610670565b61010261068e565b6101026004803603602081101561026c57600080fd5b5035610693565b6101026106aa565b61015d6004803603604081101561029157600080fd5b50803590602001356001600160a01b03166106cd565b61015d600480360360208110156102bd57600080fd5b50356001600160a01b0316610726565b60408051704d494e5445525f41444d494e5f524f4c4560781b8152905190819003601101902081565b60009081526020819052604090206002015490565b60008281526020819052604090206002015461032e9061032961078a565b610670565b6103695760405162461bcd60e51b815260040180806020018281038252602f815260200180610b16602f913960400191505060405180910390fd5b610373828261078e565b5050565b61037f61078a565b6001600160a01b0316816001600160a01b0316146103ce5760405162461bcd60e51b815260040180806020018281038252602f815260200180610bbb602f913960400191505060405180910390fd5b61037382826107fd565b6103e061078a565b6001546001600160a01b03908116911614610430576040805162461bcd60e51b81526020600482018190526024820152600080516020610b9b833981519152604482015290519081900360640190fd5b600154600160a01b900460ff161561048f576040805162461bcd60e51b815260206004820152601d60248201527f4d696e746572526f6c653a20616c72656164792066696e616c697a6564000000604482015290519081900360640190fd5b6001805460ff60a01b1916600160a01b1790556040517f6823b073d48d6e3a7d385eeb601452d680e74bb46afe3255a7d778f3a9b1768190600090a1565b60006104d761078a565b6001546001600160a01b03908116911614610527576040805162461bcd60e51b81526020600482018190526024820152600080516020610b9b833981519152604482015290519081900360640190fd5b600154600160a01b900460ff1615610586576040805162461bcd60e51b815260206004820152601d60248201527f4d696e746572526f6c653a20616c72656164792066696e616c697a6564000000604482015290519081900360640190fd5b6105908383610369565b5060015b92915050565b6105a261078a565b6001546001600160a01b039081169116146105f2576040805162461bcd60e51b81526020600482018190526024820152600080516020610b9b833981519152604482015290519081900360640190fd5b6001546040516000916001600160a01b0316907f8be0079c531659141344cd1fd0a4f28419497f9722a3daafe3b4186f6b6457e0908390a3600180546001600160a01b0319169055565b6001546001600160a01b031690565b6000828152602081905260408120610669908363ffffffff61086c16565b9392505050565b6000828152602081905260408120610669908363ffffffff61087816565b600081565b60008181526020819052604081206105949061088d565b604080516a4d494e5445525f524f4c4560a81b8152905190819003600b01902081565b6000828152602081905260409020600201546106eb9061032961078a565b6103ce5760405162461bcd60e51b8152600401808060200182810382526030815260200180610b6b6030913960400191505060405180910390fd5b61072e61078a565b6001546001600160a01b0390811691161461077e576040805162461bcd60e51b81526020600482018190526024820152600080516020610b9b833981519152604482015290519081900360640190fd5b61078781610898565b50565b3390565b60008281526020819052604090206107ac908263ffffffff61093916565b15610373576107b961078a565b6001600160a01b0316816001600160a01b0316837f2f8788117e7eff1d82e926ec794901d17c78024a50270940304540a733656f0d60405160405180910390a45050565b600082815260208190526040902061081b908263ffffffff61094e16565b156103735761082861078a565b6001600160a01b0316816001600160a01b0316837ff6391f5c32d9c69d2a47ea670b442974b53935d1edc7fd64eb21e047a839171b60405160405180910390a45050565b60006106698383610963565b6000610669836001600160a01b0384166109c7565b6000610594826109df565b6001600160a01b0381166108dd5760405162461bcd60e51b8152600401808060200182810382526026815260200180610b456026913960400191505060405180910390fd5b6001546040516001600160a01b038084169216907f8be0079c531659141344cd1fd0a4f28419497f9722a3daafe3b4186f6b6457e090600090a3600180546001600160a01b0319166001600160a01b0392909216919091179055565b6000610669836001600160a01b0384166109e3565b6000610669836001600160a01b038416610a2d565b815460009082106109a55760405162461bcd60e51b8152600401808060200182810382526022815260200180610af46022913960400191505060405180910390fd5b8260000182815481106109b457fe5b9060005260206000200154905092915050565b60009081526001919091016020526040902054151590565b5490565b60006109ef83836109c7565b610a2557508154600181810184556000848152602080822090930184905584548482528286019093526040902091909155610594565b506000610594565b60008181526001830160205260408120548015610ae95783546000198083019190810190600090879083908110610a6057fe5b9060005260206000200154905080876000018481548110610a7d57fe5b600091825260208083209091019290925582815260018981019092526040902090840190558654879080610aad57fe5b60019003818190600052602060002001600090559055866001016000878152602001908152602001600020600090556001945050505050610594565b600091505061059456fe456e756d657261626c655365743a20696e646578206f7574206f6620626f756e6473416363657373436f6e74726f6c3a2073656e646572206d75737420626520616e2061646d696e20746f206772616e744f776e61626c653a206e6577206f776e657220697320746865207a65726f2061646472657373416363657373436f6e74726f6c3a2073656e646572206d75737420626520616e2061646d696e20746f207265766f6b654f776e61626c653a2063616c6c6572206973206e6f7420746865206f776e6572416363657373436f6e74726f6c3a2063616e206f6e6c792072656e6f756e636520726f6c657320666f722073656c66a2646970667358221220129cf1fea0c102fce8061bc19a227740c7ab7b8b0fad27f7c2baf896eb38236764736f6c63430006000033",
  "source": "pragma solidity ^0.6.0;\n\nimport \"../AccessControl.sol\";\nimport \"../../ownership/Ownable.sol\";\n\ncontract MinterRole is AccessControl, Ownable {\n\n    bytes32 public constant MINTER_ADMIN_ROLE = keccak256(\"MINTER_ADMIN_ROLE\");\n    bytes32 public constant MINTER_ROLE = keccak256(\"MINTER_ROLE\");\n\n    bool private _finalized = false;\n    event Finalized();\n\n    modifier onlyMinter() {\n        require(hasRole(MINTER_ROLE, msg.sender), \"MinterRole: caller does not have the Minter role\");\n        _;\n    }\n\n    constructor () public {\n        _setRoleAdmin(MINTER_ROLE, MINTER_ADMIN_ROLE);\n    }\n\n    /**\n     * @dev Create and ading new role.\n     * @param role role account.\n     * @param account account for adding to the role.\n     */\n    function addAdmin(bytes32 role, address account) public virtual onlyOwner returns (bool) {\n        require(!_finalized, \"MinterRole: already finalized\");\n\n        _setupRole(role, account);\n        return true;\n    }\n\n    /**\n     * @dev block adding admins.\n     */\n    function finalize() public virtual onlyOwner {\n        require(!_finalized, \"MinterRole: already finalized\");\n\n        _finalized = true;\n        emit Finalized();\n    }\n}",
  "sourcePath": "/Applications/projects/nft/newdt/contracts/access/roles/MinterRole.sol",
  "compiler": {
    "name": "solc",
    "version": "0.6.0+commit.26b70077.Emscripten.clang"
  },
  "schemaVersion": "3.4.3",
  "updatedAt": "2022-01-29T12:26:38.296Z",
  "devdoc": {
    "methods": {
      "addAdmin(bytes32,address)": {
        "details": "Create and ading new role.",
        "params": {
          "account": "account for adding to the role.",
          "role": "role account."
        }
      },
      "finalize()": {
        "details": "block adding admins."
      },
      "getRoleAdmin(bytes32)": {
        "details": "Returns the admin role that controls `role`. See {grantRole} and {revokeRole}.     * To change a role's admin, use {_setRoleAdmin}."
      },
      "getRoleMember(bytes32,uint256)": {
        "details": "Returns one of the accounts that have `role`. `index` must be a value between 0 and {getRoleMemberCount}, non-inclusive.     * Role bearers are not sorted in any particular way, and their ordering may change at any point.     * WARNING: When using {getRoleMember} and {getRoleMemberCount}, make sure you perform all queries on the same block. See the following https://forum.openzeppelin.com/t/iterating-over-elements-on-enumerableset-in-openzeppelin-contracts/2296[forum post] for more information."
      },
      "getRoleMemberCount(bytes32)": {
        "details": "Returns the number of accounts that have `role`. Can be used together with {getRoleMember} to enumerate all bearers of a role."
      },
      "grantRole(bytes32,address)": {
        "details": "Grants `role` to `account`.     * If `account` had not been already granted `role`, emits a {RoleGranted} event.     * Requirements:     * - the caller must have ``role``'s admin role."
      },
      "hasRole(bytes32,address)": {
        "details": "Returns `true` if `account` has been granted `role`."
      },
      "owner()": {
        "details": "Returns the address of the current owner."
      },
      "renounceOwnership()": {
        "details": "Leaves the contract without owner. It will not be possible to call `onlyOwner` functions anymore. Can only be called by the current owner.     * NOTE: Renouncing ownership will leave the contract without an owner, thereby removing any functionality that is only available to the owner."
      },
      "renounceRole(bytes32,address)": {
        "details": "Revokes `role` from the calling account.     * Roles are often managed via {grantRole} and {revokeRole}: this function's purpose is to provide a mechanism for accounts to lose their privileges if they are compromised (such as when a trusted device is misplaced).     * If the calling account had been granted `role`, emits a {RoleRevoked} event.     * Requirements:     * - the caller must be `account`."
      },
      "revokeRole(bytes32,address)": {
        "details": "Revokes `role` from `account`.     * If `account` had been granted `role`, emits a {RoleRevoked} event.     * Requirements:     * - the caller must have ``role``'s admin role."
      },
      "transferOwnership(address)": {
        "details": "Transfers ownership of the contract to a new account (`newOwner`). Can only be called by the current owner."
      }
    }
  },
  "userdoc": {
    "methods": {}
  }
}