{
  "contractName": "StarsSwap",
  "abi": [
    {
      "inputs": [
        {
          "internalType": "address payable",
          "name": "wallet",
          "type": "address"
        },
        {
          "internalType": "contract IERC20",
          "name": "token",
          "type": "address"
        }
      ],
      "stateMutability": "nonpayable",
      "type": "constructor"
    },
    {
      "anonymous": false,
      "inputs": [],
      "name": "Finalized",
      "type": "event"
    },
    {
      "anonymous": false,
      "inputs": [
        {
          "indexed": true,
          "internalType": "address",
          "name": "previousOwner",
          "type": "address"
        },
        {
          "indexed": true,
          "internalType": "address",
          "name": "newOwner",
          "type": "address"
        }
      ],
      "name": "OwnershipTransferred",
      "type": "event"
    },
    {
      "anonymous": false,
      "inputs": [
        {
          "indexed": false,
          "internalType": "address",
          "name": "account",
          "type": "address"
        }
      ],
      "name": "Paused",
      "type": "event"
    },
    {
      "anonymous": false,
      "inputs": [
        {
          "indexed": true,
          "internalType": "bytes32",
          "name": "role",
          "type": "bytes32"
        },
        {
          "indexed": true,
          "internalType": "address",
          "name": "account",
          "type": "address"
        },
        {
          "indexed": true,
          "internalType": "address",
          "name": "sender",
          "type": "address"
        }
      ],
      "name": "RoleGranted",
      "type": "event"
    },
    {
      "anonymous": false,
      "inputs": [
        {
          "indexed": true,
          "internalType": "bytes32",
          "name": "role",
          "type": "bytes32"
        },
        {
          "indexed": true,
          "internalType": "address",
          "name": "account",
          "type": "address"
        },
        {
          "indexed": true,
          "internalType": "address",
          "name": "sender",
          "type": "address"
        }
      ],
      "name": "RoleRevoked",
      "type": "event"
    },
    {
      "anonymous": false,
      "inputs": [
        {
          "indexed": true,
          "internalType": "address",
          "name": "purchaser",
          "type": "address"
        },
        {
          "indexed": true,
          "internalType": "address",
          "name": "beneficiary",
          "type": "address"
        },
        {
          "indexed": false,
          "internalType": "uint256",
          "name": "value",
          "type": "uint256"
        },
        {
          "indexed": false,
          "internalType": "uint256",
          "name": "amount",
          "type": "uint256"
        }
      ],
      "name": "TokensPurchased",
      "type": "event"
    },
    {
      "anonymous": false,
      "inputs": [
        {
          "indexed": false,
          "internalType": "address",
          "name": "beneficiary",
          "type": "address"
        },
        {
          "indexed": false,
          "internalType": "uint256",
          "name": "amount",
          "type": "uint256"
        }
      ],
      "name": "TokensReleased",
      "type": "event"
    },
    {
      "anonymous": false,
      "inputs": [
        {
          "indexed": false,
          "internalType": "address",
          "name": "beneficiary",
          "type": "address"
        },
        {
          "indexed": false,
          "internalType": "uint256",
          "name": "amount",
          "type": "uint256"
        }
      ],
      "name": "TokensTransfered",
      "type": "event"
    },
    {
      "anonymous": false,
      "inputs": [
        {
          "indexed": false,
          "internalType": "address",
          "name": "beneficiary",
          "type": "address"
        },
        {
          "indexed": false,
          "internalType": "uint256",
          "name": "amount",
          "type": "uint256"
        }
      ],
      "name": "TokensWithdrawn",
      "type": "event"
    },
    {
      "anonymous": false,
      "inputs": [
        {
          "indexed": false,
          "internalType": "address",
          "name": "account",
          "type": "address"
        }
      ],
      "name": "Unpaused",
      "type": "event"
    },
    {
      "anonymous": false,
      "inputs": [
        {
          "indexed": false,
          "internalType": "bool",
          "name": "vested",
          "type": "bool"
        }
      ],
      "name": "VestingToggled",
      "type": "event"
    },
    {
      "inputs": [],
      "name": "DEFAULT_ADMIN_ROLE",
      "outputs": [
        {
          "internalType": "bytes32",
          "name": "",
          "type": "bytes32"
        }
      ],
      "stateMutability": "view",
      "type": "function",
      "constant": true
    },
    {
      "inputs": [],
      "name": "MANAGER_ADMIN_ROLE",
      "outputs": [
        {
          "internalType": "bytes32",
          "name": "",
          "type": "bytes32"
        }
      ],
      "stateMutability": "view",
      "type": "function",
      "constant": true
    },
    {
      "inputs": [],
      "name": "MANAGER_ROLE",
      "outputs": [
        {
          "internalType": "bytes32",
          "name": "",
          "type": "bytes32"
        }
      ],
      "stateMutability": "view",
      "type": "function",
      "constant": true
    },
    {
      "inputs": [
        {
          "internalType": "bytes32",
          "name": "role",
          "type": "bytes32"
        },
        {
          "internalType": "address",
          "name": "account",
          "type": "address"
        }
      ],
      "name": "addAdmin",
      "outputs": [
        {
          "internalType": "bool",
          "name": "",
          "type": "bool"
        }
      ],
      "stateMutability": "nonpayable",
      "type": "function"
    },
    {
      "inputs": [
        {
          "internalType": "address",
          "name": "beneficiary",
          "type": "address"
        }
      ],
      "name": "buyTokens",
      "outputs": [],
      "stateMutability": "payable",
      "type": "function",
      "payable": true
    },
    {
      "inputs": [],
      "name": "finalize",
      "outputs": [],
      "stateMutability": "nonpayable",
      "type": "function"
    },
    {
      "inputs": [
        {
          "internalType": "bytes32",
          "name": "role",
          "type": "bytes32"
        }
      ],
      "name": "getRoleAdmin",
      "outputs": [
        {
          "internalType": "bytes32",
          "name": "",
          "type": "bytes32"
        }
      ],
      "stateMutability": "view",
      "type": "function",
      "constant": true
    },
    {
      "inputs": [
        {
          "internalType": "bytes32",
          "name": "role",
          "type": "bytes32"
        },
        {
          "internalType": "uint256",
          "name": "index",
          "type": "uint256"
        }
      ],
      "name": "getRoleMember",
      "outputs": [
        {
          "internalType": "address",
          "name": "",
          "type": "address"
        }
      ],
      "stateMutability": "view",
      "type": "function",
      "constant": true
    },
    {
      "inputs": [
        {
          "internalType": "bytes32",
          "name": "role",
          "type": "bytes32"
        }
      ],
      "name": "getRoleMemberCount",
      "outputs": [
        {
          "internalType": "uint256",
          "name": "",
          "type": "uint256"
        }
      ],
      "stateMutability": "view",
      "type": "function",
      "constant": true
    },
    {
      "inputs": [
        {
          "internalType": "bytes32",
          "name": "role",
          "type": "bytes32"
        },
        {
          "internalType": "address",
          "name": "account",
          "type": "address"
        }
      ],
      "name": "grantRole",
      "outputs": [],
      "stateMutability": "nonpayable",
      "type": "function"
    },
    {
      "inputs": [
        {
          "internalType": "bytes32",
          "name": "role",
          "type": "bytes32"
        },
        {
          "internalType": "address",
          "name": "account",
          "type": "address"
        }
      ],
      "name": "hasRole",
      "outputs": [
        {
          "internalType": "bool",
          "name": "",
          "type": "bool"
        }
      ],
      "stateMutability": "view",
      "type": "function",
      "constant": true
    },
    {
      "inputs": [],
      "name": "owner",
      "outputs": [
        {
          "internalType": "address",
          "name": "",
          "type": "address"
        }
      ],
      "stateMutability": "view",
      "type": "function",
      "constant": true
    },
    {
      "inputs": [],
      "name": "paused",
      "outputs": [
        {
          "internalType": "bool",
          "name": "",
          "type": "bool"
        }
      ],
      "stateMutability": "view",
      "type": "function",
      "constant": true
    },
    {
      "inputs": [],
      "name": "renounceOwnership",
      "outputs": [],
      "stateMutability": "nonpayable",
      "type": "function"
    },
    {
      "inputs": [
        {
          "internalType": "bytes32",
          "name": "role",
          "type": "bytes32"
        },
        {
          "internalType": "address",
          "name": "account",
          "type": "address"
        }
      ],
      "name": "renounceRole",
      "outputs": [],
      "stateMutability": "nonpayable",
      "type": "function"
    },
    {
      "inputs": [
        {
          "internalType": "bytes32",
          "name": "role",
          "type": "bytes32"
        },
        {
          "internalType": "address",
          "name": "account",
          "type": "address"
        }
      ],
      "name": "revokeRole",
      "outputs": [],
      "stateMutability": "nonpayable",
      "type": "function"
    },
    {
      "inputs": [],
      "name": "token",
      "outputs": [
        {
          "internalType": "contract IERC20",
          "name": "",
          "type": "address"
        }
      ],
      "stateMutability": "view",
      "type": "function",
      "constant": true
    },
    {
      "inputs": [
        {
          "internalType": "address",
          "name": "newOwner",
          "type": "address"
        }
      ],
      "name": "transferOwnership",
      "outputs": [],
      "stateMutability": "nonpayable",
      "type": "function"
    },
    {
      "inputs": [],
      "name": "wallet",
      "outputs": [
        {
          "internalType": "address payable",
          "name": "",
          "type": "address"
        }
      ],
      "stateMutability": "view",
      "type": "function",
      "constant": true
    },
    {
      "inputs": [],
      "name": "weiRaised",
      "outputs": [
        {
          "internalType": "uint256",
          "name": "",
          "type": "uint256"
        }
      ],
      "stateMutability": "view",
      "type": "function",
      "constant": true
    },
    {
      "stateMutability": "payable",
      "type": "receive",
      "payable": true
    },
    {
      "inputs": [],
      "name": "name",
      "outputs": [
        {
          "internalType": "string",
          "name": "",
          "type": "string"
        }
      ],
      "stateMutability": "view",
      "type": "function",
      "constant": true
    },
    {
      "inputs": [],
      "name": "symbol",
      "outputs": [
        {
          "internalType": "string",
          "name": "",
          "type": "string"
        }
      ],
      "stateMutability": "view",
      "type": "function",
      "constant": true
    },
    {
      "inputs": [],
      "name": "decimals",
      "outputs": [
        {
          "internalType": "uint8",
          "name": "",
          "type": "uint8"
        }
      ],
      "stateMutability": "view",
      "type": "function",
      "constant": true
    },
    {
      "inputs": [],
      "name": "timestamp",
      "outputs": [
        {
          "internalType": "uint256",
          "name": "",
          "type": "uint256"
        }
      ],
      "stateMutability": "view",
      "type": "function",
      "constant": true
    },
    {
      "inputs": [],
      "name": "vested",
      "outputs": [
        {
          "internalType": "bool",
          "name": "",
          "type": "bool"
        }
      ],
      "stateMutability": "view",
      "type": "function",
      "constant": true
    },
    {
      "inputs": [
        {
          "internalType": "address",
          "name": "owner",
          "type": "address"
        }
      ],
      "name": "timeOf",
      "outputs": [
        {
          "internalType": "uint256",
          "name": "",
          "type": "uint256"
        }
      ],
      "stateMutability": "view",
      "type": "function",
      "constant": true
    },
    {
      "inputs": [
        {
          "internalType": "address",
          "name": "owner",
          "type": "address"
        }
      ],
      "name": "balanceOf",
      "outputs": [
        {
          "internalType": "uint256",
          "name": "",
          "type": "uint256"
        }
      ],
      "stateMutability": "view",
      "type": "function",
      "constant": true
    },
    {
      "inputs": [
        {
          "internalType": "address",
          "name": "owner",
          "type": "address"
        }
      ],
      "name": "releasedOf",
      "outputs": [
        {
          "internalType": "uint256",
          "name": "",
          "type": "uint256"
        }
      ],
      "stateMutability": "view",
      "type": "function",
      "constant": true
    },
    {
      "inputs": [
        {
          "internalType": "uint256",
          "name": "id",
          "type": "uint256"
        },
        {
          "internalType": "address",
          "name": "owner",
          "type": "address"
        }
      ],
      "name": "balanceOfStage",
      "outputs": [
        {
          "internalType": "uint256",
          "name": "",
          "type": "uint256"
        }
      ],
      "stateMutability": "view",
      "type": "function",
      "constant": true
    },
    {
      "inputs": [
        {
          "internalType": "uint256",
          "name": "id",
          "type": "uint256"
        },
        {
          "internalType": "address",
          "name": "owner",
          "type": "address"
        }
      ],
      "name": "releasedOfStage",
      "outputs": [
        {
          "internalType": "uint256",
          "name": "",
          "type": "uint256"
        }
      ],
      "stateMutability": "view",
      "type": "function",
      "constant": true
    },
    {
      "inputs": [],
      "name": "getCalendarLength",
      "outputs": [
        {
          "internalType": "uint256",
          "name": "",
          "type": "uint256"
        }
      ],
      "stateMutability": "view",
      "type": "function",
      "constant": true
    },
    {
      "inputs": [
        {
          "internalType": "uint256",
          "name": "id",
          "type": "uint256"
        }
      ],
      "name": "getCalendar",
      "outputs": [
        {
          "internalType": "uint256",
          "name": "",
          "type": "uint256"
        },
        {
          "internalType": "uint256[2]",
          "name": "",
          "type": "uint256[2]"
        }
      ],
      "stateMutability": "view",
      "type": "function",
      "constant": true
    },
    {
      "inputs": [
        {
          "internalType": "uint256",
          "name": "id",
          "type": "uint256"
        }
      ],
      "name": "getStage",
      "outputs": [
        {
          "internalType": "uint256",
          "name": "",
          "type": "uint256"
        },
        {
          "internalType": "uint256",
          "name": "",
          "type": "uint256"
        },
        {
          "internalType": "uint256",
          "name": "",
          "type": "uint256"
        }
      ],
      "stateMutability": "view",
      "type": "function",
      "constant": true
    },
    {
      "inputs": [],
      "name": "getCurrentStage",
      "outputs": [
        {
          "internalType": "uint256",
          "name": "",
          "type": "uint256"
        }
      ],
      "stateMutability": "view",
      "type": "function",
      "constant": true
    },
    {
      "inputs": [
        {
          "internalType": "uint256",
          "name": "stage",
          "type": "uint256"
        }
      ],
      "name": "setCurrentStage",
      "outputs": [
        {
          "internalType": "bool",
          "name": "",
          "type": "bool"
        }
      ],
      "stateMutability": "nonpayable",
      "type": "function"
    },
    {
      "inputs": [
        {
          "internalType": "bool",
          "name": "value",
          "type": "bool"
        }
      ],
      "name": "toggleVesting",
      "outputs": [],
      "stateMutability": "nonpayable",
      "type": "function"
    },
    {
      "inputs": [
        {
          "internalType": "address",
          "name": "to",
          "type": "address"
        },
        {
          "internalType": "uint256",
          "name": "value",
          "type": "uint256"
        }
      ],
      "name": "transferTokens",
      "outputs": [
        {
          "internalType": "bool",
          "name": "",
          "type": "bool"
        }
      ],
      "stateMutability": "nonpayable",
      "type": "function"
    },
    {
      "inputs": [
        {
          "internalType": "address",
          "name": "beneficiary",
          "type": "address"
        }
      ],
      "name": "releasableAmount",
      "outputs": [
        {
          "internalType": "uint256",
          "name": "",
          "type": "uint256"
        }
      ],
      "stateMutability": "view",
      "type": "function",
      "constant": true
    },
    {
      "inputs": [
        {
          "internalType": "address",
          "name": "beneficiary",
          "type": "address"
        }
      ],
      "name": "withdrawTokens",
      "outputs": [],
      "stateMutability": "nonpayable",
      "type": "function"
    },
    {
      "inputs": [
        {
          "internalType": "address",
          "name": "beneficiary",
          "type": "address"
        }
      ],
      "name": "releaseTokens",
      "outputs": [],
      "stateMutability": "nonpayable",
      "type": "function"
    },
    {
      "inputs": [
        {
          "internalType": "uint256",
          "name": "supply",
          "type": "uint256"
        },
        {
          "internalType": "uint256",
          "name": "cap",
          "type": "uint256"
        },
        {
          "internalType": "uint256",
          "name": "rate",
          "type": "uint256"
        }
      ],
      "name": "addStage",
      "outputs": [
        {
          "internalType": "bool",
          "name": "",
          "type": "bool"
        }
      ],
      "stateMutability": "nonpayable",
      "type": "function"
    },
    {
      "inputs": [
        {
          "internalType": "uint256",
          "name": "time",
          "type": "uint256"
        },
        {
          "internalType": "uint256",
          "name": "ratesFirst",
          "type": "uint256"
        },
        {
          "internalType": "uint256",
          "name": "ratesSecond",
          "type": "uint256"
        }
      ],
      "name": "addCalendar",
      "outputs": [
        {
          "internalType": "bool",
          "name": "",
          "type": "bool"
        }
      ],
      "stateMutability": "nonpayable",
      "type": "function"
    },
    {
      "inputs": [
        {
          "internalType": "uint8",
          "name": "id",
          "type": "uint8"
        },
        {
          "internalType": "uint256",
          "name": "supply",
          "type": "uint256"
        },
        {
          "internalType": "uint256",
          "name": "cap",
          "type": "uint256"
        },
        {
          "internalType": "uint256",
          "name": "rate",
          "type": "uint256"
        }
      ],
      "name": "changeStage",
      "outputs": [
        {
          "internalType": "bool",
          "name": "",
          "type": "bool"
        }
      ],
      "stateMutability": "nonpayable",
      "type": "function"
    },
    {
      "inputs": [
        {
          "internalType": "uint8",
          "name": "id",
          "type": "uint8"
        },
        {
          "internalType": "uint256",
          "name": "time",
          "type": "uint256"
        },
        {
          "internalType": "uint256",
          "name": "rateFirst",
          "type": "uint256"
        },
        {
          "internalType": "uint256",
          "name": "rateSecond",
          "type": "uint256"
        }
      ],
      "name": "changeCalendar",
      "outputs": [
        {
          "internalType": "bool",
          "name": "",
          "type": "bool"
        }
      ],
      "stateMutability": "nonpayable",
      "type": "function"
    },
    {
      "inputs": [],
      "name": "pause",
      "outputs": [
        {
          "internalType": "bool",
          "name": "",
          "type": "bool"
        }
      ],
      "stateMutability": "nonpayable",
      "type": "function"
    },
    {
      "inputs": [],
      "name": "unpause",
      "outputs": [
        {
          "internalType": "bool",
          "name": "",
          "type": "bool"
        }
      ],
      "stateMutability": "nonpayable",
      "type": "function"
    }
  ],
  "bytecode": "0x60806040526005805460ff60a01b191690556000600a55600b805460ff191660011790553480156200003057600080fd5b5060405162003a3b38038062003a3b833981810160405260408110156200005657600080fd5b5080516020909101516000805460ff1916600117905581816001600160a01b038216620000b55760405162461bcd60e51b815260040180806020018281038252602581526020018062003a166025913960400191505060405180910390fd5b6001600160a01b038116620000fc5760405162461bcd60e51b8152600401808060200182810382526024815260200180620039b26024913960400191505060405180910390fd5b600180546001600160a01b039384166001600160a01b0319909116179055600080549190921661010002610100600160a81b03199091161781556003805460ff19169055620001536001600160e01b036200040516565b600580546001600160a01b0319166001600160a01b038316908117909155604051919250906000907f8be0079c531659141344cd1fd0a4f28419497f9722a3daafe3b4186f6b6457e0908290a350604080516b4d414e414745525f524f4c4560a01b8152815190819003600c018120714d414e414745525f41444d494e5f524f4c4560701b82529151908190036012019020620001fa91906001600160e01b036200040a16565b6040805160608082018352600080835269d3c21bcecceda100000060208085019182526533fa4572ec00858701908152600980546001808201835582875297517f6e1540171b6c0c960b71a7020d9f60077f6af931a8bbf590da0223dacf75c7af60059283028181019290925595517f6e1540171b6c0c960b71a7020d9f60077f6af931a8bbf590da0223dacf75c7b08083019190915593517f6e1540171b6c0c960b71a7020d9f60077f6af931a8bbf590da0223dacf75c7b19182015589519788018a528688526a017293b0a9e69fd9c00000888601908152654bc9c70c9400898c019081528454808c0186559489529851939092029586019290925551918401919091559351919093015583518085018552635f8445408152845180860190955260468086528584015291820193845260088054938401815590528051600080516020620039d6833981519152600390930292830190815592519092916200037a91600080516020620039f68339815191529091019060026200041f565b5050604080518082018252635f96ba4081528151808301909252601e80835260208381019190915281019182526008805460018101825560009190915281516003909102600080516020620039d68339815191528101918255925191935091620003fa91600080516020620039f68339815191529091019060026200041f565b50505050506200047f565b335b90565b60009182526004602052604090912060020155565b826002810192821562000450579160200282015b828111156200045057825182559160200191906001019062000433565b506200045e92915062000462565b5090565b6200040791905b808211156200045e576000815560010162000469565b613523806200048f6000396000f3fe6080604052600436106102815760003560e01c806387b0be481161014f578063d0b48509116100c1578063ec8ac4d81161007a578063ec8ac4d8146109eb578063ed0ad32114610a11578063eedbe31d14610a44578063f2fde38b14610a59578063fc0c546a14610a8c578063fea5657c14610aa157610288565b8063d0b48509146108e6578063d13782a714610919578063d547741f1461094f578063eab98bf314610988578063ec23bc8a146109c1578063ec87621c146109d657610288565b806395d89b411161011357806395d89b4114610805578063a217fddf1461081a578063b80777ea1461082f578063bbd4630314610844578063bec3fa1714610883578063ca15c873146108bc57610288565b806387b0be481461071b5780638da5cb5b1461074e5780638ec0a8a9146107635780639010d07c1461079c57806391d14854146107cc57610288565b806349df728c116101f3578063687fe91a116101ac578063687fe91a1461060757806370a0823114610673578063715018a6146106a65780637cfffb57146106bb57806383e3416b146106f15780638456cb591461070657610288565b806349df728c146105015780634b1e0057146105345780634bb278f314610573578063521eb273146105885780635c975abb146105b95780636419bcdb146105ce57610288565b8063313ce56711610245578063313ce5671461040957806336568abe1461043457806338c67b731461046d5780633f4ba83a146104ab5780634042b66f146104c057806342ddd4f6146104d557610288565b806306fdde031461028d5780631726cbc814610317578063248a9ca31461035c5780632e325020146103865780632f2ff15d146103ce57610288565b3661028857005b600080fd5b34801561029957600080fd5b506102a2610ab6565b6040805160208082528351818301528351919283929083019185019080838360005b838110156102dc5781810151838201526020016102c4565b50505050905090810190601f1680156103095780820380516001836020036101000a031916815260200191505b509250505060405180910390f35b34801561032357600080fd5b5061034a6004803603602081101561033a57600080fd5b50356001600160a01b0316610beb565b60408051918252519081900360200190f35b34801561036857600080fd5b5061034a6004803603602081101561037f57600080fd5b5035610e6a565b34801561039257600080fd5b506103b0600480360360208110156103a957600080fd5b5035610e7f565b60408051938452602084019290925282820152519081900360600190f35b3480156103da57600080fd5b50610407600480360360408110156103f157600080fd5b50803590602001356001600160a01b0316610ee0565b005b34801561041557600080fd5b5061041e610f4c565b6040805160ff9092168252519081900360200190f35b34801561044057600080fd5b506104076004803603604081101561045757600080fd5b50803590602001356001600160a01b0316610fbf565b34801561047957600080fd5b506104976004803603602081101561049057600080fd5b5035611020565b604080519115158252519081900360200190f35b3480156104b757600080fd5b506104976110d2565b3480156104cc57600080fd5b5061034a611197565b3480156104e157600080fd5b50610407600480360360208110156104f857600080fd5b5035151561119d565b34801561050d57600080fd5b506104076004803603602081101561052457600080fd5b50356001600160a01b031661124a565b34801561054057600080fd5b506104976004803603608081101561055757600080fd5b5060ff81351690602081013590604081013590606001356113db565b34801561057f57600080fd5b506104076114cd565b34801561059457600080fd5b5061059d6115c2565b604080516001600160a01b039092168252519081900360200190f35b3480156105c557600080fd5b506104976115d1565b3480156105da57600080fd5b50610497600480360360408110156105f157600080fd5b50803590602001356001600160a01b03166115da565b34801561061357600080fd5b506106316004803603602081101561062a57600080fd5b50356116a7565b6040518083815260200182600260200280838360005b8381101561065f578181015183820152602001610647565b505050509050019250505060405180910390f35b34801561067f57600080fd5b5061034a6004803603602081101561069657600080fd5b50356001600160a01b0316611734565b3480156106b257600080fd5b5061040761179a565b3480156106c757600080fd5b50610497600480360360608110156106de57600080fd5b508035906020810135906040013561183c565b3480156106fd57600080fd5b5061034a611986565b34801561071257600080fd5b506104976119b0565b34801561072757600080fd5b506104076004803603602081101561073e57600080fd5b50356001600160a01b0316611a6c565b34801561075a57600080fd5b5061059d611e84565b34801561076f57600080fd5b5061034a6004803603604081101561078657600080fd5b50803590602001356001600160a01b0316611e93565b3480156107a857600080fd5b5061059d600480360360408110156107bf57600080fd5b5080359060200135611ed3565b3480156107d857600080fd5b50610497600480360360408110156107ef57600080fd5b50803590602001356001600160a01b0316611ef8565b34801561081157600080fd5b506102a2611f16565b34801561082657600080fd5b5061034a611f58565b34801561083b57600080fd5b5061034a611f5d565b34801561085057600080fd5b506104976004803603608081101561086757600080fd5b5060ff8135169060208101359060408101359060600135611f61565b34801561088f57600080fd5b50610497600480360360408110156108a657600080fd5b506001600160a01b038135169060200135612046565b3480156108c857600080fd5b5061034a600480360360208110156108df57600080fd5b50356122f6565b3480156108f257600080fd5b5061034a6004803603602081101561090957600080fd5b50356001600160a01b031661230d565b34801561092557600080fd5b506104976004803603606081101561093c57600080fd5b5080359060208101359060400135612328565b34801561095b57600080fd5b506104076004803603604081101561097257600080fd5b50803590602001356001600160a01b03166124b8565b34801561099457600080fd5b5061034a600480360360408110156109ab57600080fd5b50803590602001356001600160a01b0316612511565b3480156109cd57600080fd5b5061034a612551565b3480156109e257600080fd5b5061034a612557565b61040760048036036020811015610a0157600080fd5b50356001600160a01b031661257b565b348015610a1d57600080fd5b5061034a60048036036020811015610a3457600080fd5b50356001600160a01b031661268b565b348015610a5057600080fd5b5061034a6126ea565b348015610a6557600080fd5b5061040760048036036020811015610a7c57600080fd5b50356001600160a01b03166126f0565b348015610a9857600080fd5b5061059d612754565b348015610aad57600080fd5b50610497612768565b6060610ac0612754565b6001600160a01b03166306fdde036040518163ffffffff1660e01b815260040160006040518083038186803b158015610af857600080fd5b505afa158015610b0c573d6000803e3d6000fd5b505050506040513d6000823e601f3d908101601f191682016040526020811015610b3557600080fd5b8101908080516040519392919084640100000000821115610b5557600080fd5b908301906020820185811115610b6a57600080fd5b8251640100000000811182820188101715610b8457600080fd5b82525081516020918201929091019080838360005b83811015610bb1578181015183820152602001610b99565b50505050905090810190601f168015610bde5780820380516001836020036101000a031916815260200191505b5060405250505090505b90565b6000610bf5613102565b610bfd613121565b50604080518082019091526000808252602082018190525b600854811015610d0d5760088181548110610c2c57fe5b6000918252602091829020604080518082018252600390930290910180548352815180830190925291928301906001830160028282826020028201915b815481526020019060010190808311610c695750505050508152505092508260000151421115610d00576001600160a01b03851660009081526007602052604090205483511115610cfb576020830151610cda9060005b60200201518360005b60200201519063ffffffff61277116565b82526020830151610cf59060015b6020020151836001610cc9565b60208301525b610d05565b610d0d565b600101610c15565b5060008080805b600954811015610e5e57610da560098281548110610d2e57fe5b906000526020600020906005020160040160008a6001600160a01b03166001600160a01b031681526020019081526020016000205460098381548110610d7057fe5b600091825260208083206001600160a01b038e168452600360059093020191909101905260409020549063ffffffff6127cb16565b91506000858260028110610db557fe5b6020020151118015610dc75750600082115b15610e5657610e416064610e35878460028110610de057fe5b602002015160098581548110610df257fe5b906000526020600020906005020160030160008d6001600160a01b03166001600160a01b031681526020019081526020016000205461280d90919063ffffffff16565b9063ffffffff61286616565b9250610e53848463ffffffff61277116565b93505b600101610d14565b50919695505050505050565b60009081526004602052604090206002015490565b6000806000610e8c61313f565b60098581548110610e9957fe5b600091825260209182902060408051606081018252600593909302909101805480845260018201549484018590526002909101549290910182905297919650945092505050565b600082815260046020526040902060020154610f0390610efe6128a8565b611ef8565b610f3e5760405162461bcd60e51b815260040180806020018281038252602f815260200180613215602f913960400191505060405180910390fd5b610f4882826128ac565b5050565b6000610f56612754565b6001600160a01b031663313ce5676040518163ffffffff1660e01b815260040160206040518083038186803b158015610f8e57600080fd5b505afa158015610fa2573d6000803e3d6000fd5b505050506040513d6020811015610fb857600080fd5b5051905090565b610fc76128a8565b6001600160a01b0316816001600160a01b0316146110165760405162461bcd60e51b815260040180806020018281038252602f8152602001806134bf602f913960400191505060405180910390fd5b610f48828261291b565b604080516b4d414e414745525f524f4c4560a01b8152905190819003600c01902060009061104e9033611ef8565b6110895760405162461bcd60e51b81526004018080602001828103825260328152602001806133616032913960400191505060405180910390fd5b60095482106110c95760405162461bcd60e51b815260040180806020018281038252603a8152602001806131b9603a913960400191505060405180910390fd5b50600a55600190565b604080516b4d414e414745525f524f4c4560a01b8152905190819003600c0190206000906111009033611ef8565b61113b5760405162461bcd60e51b81526004018080602001828103825260328152602001806133616032913960400191505060405180910390fd5b60035460ff16611189576040805162461bcd60e51b815260206004820152601460248201527314185d5cd8589b194e881b9bdd081c185d5cd95960621b604482015290519081900360640190fd5b61119161298a565b50600190565b60025490565b604080516b4d414e414745525f524f4c4560a01b8152905190819003600c0190206111c89033611ef8565b6112035760405162461bcd60e51b81526004018080602001828103825260328152602001806133616032913960400191505060405180910390fd5b600b805482151560ff19909116811790915560408051918252517f192f7e2cab543d06b1f180f41a0e6ab06b8e4efbbe52a5dce95f44039768eeda9181900360200190a150565b600b5460ff161561128c5760405162461bcd60e51b815260040180806020018281038252602c815260200180613493602c913960400191505060405180910390fd5b600061129782611734565b905060006112a48361268b565b905060006112b8838363ffffffff6127cb16565b9050600081116112f95760405162461bcd60e51b815260040180806020018281038252603581526020018061345e6035913960400191505060405180910390fd5b60005b600954811015611386576009818154811061131357fe5b90600052602060002090600502016003016000866001600160a01b03166001600160a01b03168152602001908152602001600020546009828154811061135557fe5b600091825260208083206001600160a01b038a168452600460059093020191909101905260409020556001016112fc565b506113918482612a28565b604080516001600160a01b03861681526020810183905281517f6352c5382c4a4578e712449ca65e83cdb392d045dfcf1cad9615189db2da244b929181900390910190a150505050565b604080516b4d414e414745525f524f4c4560a01b8152905190819003600c0190206000906114099033611ef8565b6114445760405162461bcd60e51b81526004018080602001828103825260328152602001806133616032913960400191505060405180910390fd5b8360088660ff168154811061145557fe5b9060005260206000209060030201600001819055508260088660ff168154811061147b57fe5b60009182526020822060016003909202010101819055508160088660ff16815481106114a357fe5b90600052602060002090600302016001016001600281106114c057fe5b0155506001949350505050565b6114d56128a8565b6005546001600160a01b03908116911614611525576040805162461bcd60e51b81526020600482018190526024820152600080516020613393833981519152604482015290519081900360640190fd5b600554600160a01b900460ff1615611584576040805162461bcd60e51b815260206004820152601e60248201527f4d616e61676572526f6c653a20616c72656164792066696e616c697a65640000604482015290519081900360640190fd5b6005805460ff60a01b1916600160a01b1790556040517f6823b073d48d6e3a7d385eeb601452d680e74bb46afe3255a7d778f3a9b1768190600090a1565b6001546001600160a01b031690565b60035460ff1690565b60006115e46128a8565b6005546001600160a01b03908116911614611634576040805162461bcd60e51b81526020600482018190526024820152600080516020613393833981519152604482015290519081900360640190fd5b600554600160a01b900460ff1615611693576040805162461bcd60e51b815260206004820152601e60248201527f4d616e61676572526f6c653a20616c72656164792066696e616c697a65640000604482015290519081900360640190fd5b61169d8383610f3e565b5060015b92915050565b60006116b1613121565b6116b9613102565b600884815481106116c657fe5b6000918252602091829020604080518082018252600390930290910180548352815180830190925291928301906001830160028282826020028201915b8154815260200190600101908083116117035750505091909252505081516020909201519194509092505050915091565b600080805b600954811015611793576117896009828154811061175357fe5b600091825260208083206001600160a01b038916845260036005909302019190910190526040902054839063ffffffff61277116565b9150600101611739565b5092915050565b6117a26128a8565b6005546001600160a01b039081169116146117f2576040805162461bcd60e51b81526020600482018190526024820152600080516020613393833981519152604482015290519081900360640190fd5b6005546040516000916001600160a01b0316907f8be0079c531659141344cd1fd0a4f28419497f9722a3daafe3b4186f6b6457e0908390a3600580546001600160a01b0319169055565b604080516b4d414e414745525f524f4c4560a01b8152905190819003600c01902060009061186a9033611ef8565b6118a55760405162461bcd60e51b81526004018080602001828103825260328152602001806133616032913960400191505060405180910390fd5b600084116118e45760405162461bcd60e51b81526004018080602001828103825260298152602001806132ee6029913960400191505060405180910390fd5b60408051808201825285815281518083019092528482526020828101859052810191825260088054600181018255600091909152815160039091027ff3f7a9fe364faab93b216da50a3214154f22a0a2b415b23a84c8169e8b636ee38101918255925191929091611979917ff3f7a9fe364faab93b216da50a3214154f22a0a2b415b23a84c8169e8b636ee401906002613160565b5060019695505050505050565b60408051714d414e414745525f41444d494e5f524f4c4560701b8152905190819003601201902081565b604080516b4d414e414745525f524f4c4560a01b8152905190819003600c0190206000906119de9033611ef8565b611a195760405162461bcd60e51b81526004018080602001828103825260328152602001806133616032913960400191505060405180910390fd5b60035460ff1615611a64576040805162461bcd60e51b815260206004820152601060248201526f14185d5cd8589b194e881c185d5cd95960821b604482015290519081900360640190fd5b611191612ab5565b611a74613102565b611a7c613121565b50604080518082019091526000808252602082018190525b600854811015611b6c5760088181548110611aab57fe5b6000918252602091829020604080518082018252600390930290910180548352815180830190925291928301906001830160028282826020028201915b815481526020019060010190808311611ae857505050505081525050925082600001514210611b5f576001600160a01b03841660009081526007602052604090205483511115611b5a576020830151611b42906000610cc0565b82526020830151611b54906001610ce8565b60208301525b611b64565b611b6c565b600101611a94565b5060008080805b600954811015611dd357611c0460098281548110611b8d57fe5b90600052602060002090600502016004016000896001600160a01b03166001600160a01b031681526020019081526020016000205460098381548110611bcf57fe5b600091825260208083206001600160a01b038d168452600360059093020191909101905260409020549063ffffffff6127cb16565b91506000858260028110611c1457fe5b6020020151118015611c265750600082115b15611dcb57611c866064610e35878460028110611c3f57fe5b602002015160098581548110611c5157fe5b600091825260208083206001600160a01b038f168452600360059093020191909101905260409020549063ffffffff61280d16565b9250611cce8360098381548110611c9957fe5b600091825260208083206001600160a01b038d168452600460059093020191909101905260409020549063ffffffff61277116565b60098281548110611cdb57fe5b600091825260208083206001600160a01b038c16845260046005909302019190910190526040902055611d14848463ffffffff61277116565b935060098181548110611d2357fe5b90600052602060002090600502016003016000886001600160a01b03166001600160a01b031681526020019081526020016000205460098281548110611d6557fe5b600091825260208083206001600160a01b038c168452600460059093020191909101905260409020541115611dcb5760405162461bcd60e51b815260040180806020018281038252602c815260200180613292602c913960400191505060405180910390fd5b600101611b73565b5060008311611e135760405162461bcd60e51b815260040180806020018281038252603581526020018061345e6035913960400191505060405180910390fd5b6001600160a01b0386166000908152600760205260409020429055611e388684612a28565b604080516001600160a01b03881681526020810185905281517fc7798891864187665ac6dd119286e44ec13f014527aeeb2b8eb3fd413df93179929181900390910190a1505050505050565b6005546001600160a01b031690565b600060098381548110611ea257fe5b600091825260208083206001600160a01b038616845260046005909302019190910190526040902054905092915050565b6000828152600460205260408120611ef1908363ffffffff612b3616565b9392505050565b6000828152600460205260408120611ef1908363ffffffff612b4216565b6060611f20612754565b6001600160a01b03166395d89b416040518163ffffffff1660e01b815260040160006040518083038186803b158015610af857600080fd5b600081565b4290565b604080516b4d414e414745525f524f4c4560a01b8152905190819003600c019020600090611f8f9033611ef8565b611fca5760405162461bcd60e51b81526004018080602001828103825260328152602001806133616032913960400191505060405180910390fd5b8360098660ff1681548110611fdb57fe5b9060005260206000209060050201600001819055508260098660ff168154811061200157fe5b9060005260206000209060050201600101819055508160098660ff168154811061202757fe5b6000918252602090912060026005909202010155506001949350505050565b604080516b4d414e414745525f524f4c4560a01b8152905190819003600c0190206000906120749033611ef8565b6120af5760405162461bcd60e51b81526004018080602001828103825260328152602001806133616032913960400191505060405180910390fd5b6000805b6009548110156120f5576120eb600982815481106120cd57fe5b6000918252602090912060059091020154839063ffffffff61277116565b91506001016120b3565b506000612100612754565b6001600160a01b03166370a08231306040518263ffffffff1660e01b815260040180826001600160a01b03166001600160a01b0316815260200191505060206040518083038186803b15801561215557600080fd5b505afa158015612169573d6000803e3d6000fd5b505050506040513d602081101561217f57600080fd5b505190506001600160a01b0385166121c85760405162461bcd60e51b815260040180806020018281038252603081526020018061342e6030913960400191505060405180910390fd5b816121d9828663ffffffff6127cb16565b10156122165760405162461bcd60e51b815260040180806020018281038252602b8152602001806133b3602b913960400191505060405180910390fd5b604080516001600160a01b03871681526020810186905281517fa267b5cf59cf96d97abf36d29c63cf7bdef867c208ca8575c47f2cafda39abc9929181900390910190a1612262612754565b6001600160a01b031663a9059cbb86866040518363ffffffff1660e01b815260040180836001600160a01b03166001600160a01b0316815260200182815260200192505050602060405180830381600087803b1580156122c157600080fd5b505af11580156122d5573d6000803e3d6000fd5b505050506040513d60208110156122eb57600080fd5b505195945050505050565b60008181526004602052604081206116a190612b57565b6001600160a01b031660009081526007602052604090205490565b604080516b4d414e414745525f524f4c4560a01b8152905190819003600c0190206000906123569033611ef8565b6123915760405162461bcd60e51b81526004018080602001828103825260328152602001806133616032913960400191505060405180910390fd5b600083116123d05760405162461bcd60e51b81526004018080602001828103825260288152602001806132446028913960400191505060405180910390fd5b6000821161240f5760405162461bcd60e51b81526004018080602001828103825260298152602001806133176029913960400191505060405180910390fd5b5060408051606081018252938452602084019283528301908152600980546001808201835560009290925293517f6e1540171b6c0c960b71a7020d9f60077f6af931a8bbf590da0223dacf75c7af60059095029485015591517f6e1540171b6c0c960b71a7020d9f60077f6af931a8bbf590da0223dacf75c7b0840155517f6e1540171b6c0c960b71a7020d9f60077f6af931a8bbf590da0223dacf75c7b19092019190915590565b6000828152600460205260409020600201546124d690610efe6128a8565b6110165760405162461bcd60e51b81526004018080602001828103825260308152602001806132be6030913960400191505060405180910390fd5b60006009838154811061252057fe5b600091825260208083206001600160a01b038616845260036005909302019190910190526040902054905092915050565b60085490565b604080516b4d414e414745525f524f4c4560a01b8152905190819003600c01902081565b60005460ff166125d2576040805162461bcd60e51b815260206004820152601f60248201527f5265656e7472616e637947756172643a207265656e7472616e742063616c6c00604482015290519081900360640190fd5b6000805460ff19169055346125e78282612b62565b60006125f282612bb7565b600254909150612608908363ffffffff61277116565b6002556126158382612bfd565b604080518381526020810183905281516001600160a01b0386169233927f6faf93231a456e552dbc9961f58d9713ee4f2e69d15f1975b050ef0911053a7b929081900390910190a36126678383610f48565b61266f612cdb565b6126798383610f48565b50506000805460ff1916600117905550565b600080805b600954811015611793576126e0600982815481106126aa57fe5b600091825260208083206001600160a01b038916845260046005909302019190910190526040902054839063ffffffff61277116565b9150600101612690565b600a5490565b6126f86128a8565b6005546001600160a01b03908116911614612748576040805162461bcd60e51b81526020600482018190526024820152600080516020613393833981519152604482015290519081900360640190fd5b61275181612d14565b50565b60005461010090046001600160a01b031690565b600b5460ff1690565b600082820183811015611ef1576040805162461bcd60e51b815260206004820152601b60248201527f536166654d6174683a206164646974696f6e206f766572666c6f770000000000604482015290519081900360640190fd5b6000611ef183836040518060400160405280601e81526020017f536166654d6174683a207375627472616374696f6e206f766572666c6f770000815250612db5565b60008261281c575060006116a1565b8282028284828161282957fe5b0414611ef15760405162461bcd60e51b81526004018080602001828103825260218152602001806133406021913960400191505060405180910390fd5b6000611ef183836040518060400160405280601a81526020017f536166654d6174683a206469766973696f6e206279207a65726f000000000000815250612e4c565b3390565b60008281526004602052604090206128ca908263ffffffff612eb116565b15610f48576128d76128a8565b6001600160a01b0316816001600160a01b0316837f2f8788117e7eff1d82e926ec794901d17c78024a50270940304540a733656f0d60405160405180910390a45050565b6000828152600460205260409020612939908263ffffffff612ec616565b15610f48576129466128a8565b6001600160a01b0316816001600160a01b0316837ff6391f5c32d9c69d2a47ea670b442974b53935d1edc7fd64eb21e047a839171b60405160405180910390a45050565b60035460ff166129d8576040805162461bcd60e51b815260206004820152601460248201527314185d5cd8589b194e881b9bdd081c185d5cd95960621b604482015290519081900360640190fd5b6003805460ff191690557f5db9ee0a495bf2e6ff9c91a7834c1ba4fdd244a5e8aa4e537bd38aeae4b073aa612a0b6128a8565b604080516001600160a01b039092168252519081900360200190a1565b600080546040805163a9059cbb60e01b81526001600160a01b0386811660048301526024820186905291516101009093049091169263a9059cbb926044808401936020939083900390910190829087803b158015612a8557600080fd5b505af1158015612a99573d6000803e3d6000fd5b505050506040513d6020811015612aaf57600080fd5b50505050565b60035460ff1615612b00576040805162461bcd60e51b815260206004820152601060248201526f14185d5cd8589b194e881c185d5cd95960821b604482015290519081900360640190fd5b6003805460ff191660011790557f62e78cea01bee320cd4e420270b5ea74000d11b0c9f74754ebdbfc544b05a258612a0b6128a8565b6000611ef18383612edb565b6000611ef1836001600160a01b038416612f3f565b60006116a182612f57565b60035460ff1615612bad576040805162461bcd60e51b815260206004820152601060248201526f14185d5cd8589b194e881c185d5cd95960821b604482015290519081900360640190fd5b610f488282612f5b565b60006116a16002610e356009600a5481548110612bd057fe5b906000526020600020906005020160020154610e35670de0b6b3a76400008761280d90919063ffffffff16565b60006009600a5481548110612c0e57fe5b906000526020600020906005020190508060010154612c3a83836000015461277190919063ffffffff16565b1115612c775760405162461bcd60e51b81526004018080602001828103825260268152602001806133de6026913960400191505060405180910390fd5b8054612c89908363ffffffff61277116565b81556001600160a01b0383166000908152600382016020819052604090912054612cb9908463ffffffff61277116565b6001600160a01b03909416600090815260209190915260409020929092555050565b6001546040516001600160a01b03909116903480156108fc02916000818181858888f19350505050158015612751573d6000803e3d6000fd5b6001600160a01b038116612d595760405162461bcd60e51b815260040180806020018281038252602681526020018061326c6026913960400191505060405180910390fd5b6005546040516001600160a01b038084169216907f8be0079c531659141344cd1fd0a4f28419497f9722a3daafe3b4186f6b6457e090600090a3600580546001600160a01b0319166001600160a01b0392909216919091179055565b60008184841115612e445760405162461bcd60e51b81526004018080602001828103825283818151815260200191508051906020019080838360005b83811015612e09578181015183820152602001612df1565b50505050905090810190601f168015612e365780820380516001836020036101000a031916815260200191505b509250505060405180910390fd5b505050900390565b60008183612e9b5760405162461bcd60e51b8152602060048201818152835160248401528351909283926044909101919085019080838360008315612e09578181015183820152602001612df1565b506000838581612ea757fe5b0495945050505050565b6000611ef1836001600160a01b038416612ff2565b6000611ef1836001600160a01b03841661303c565b81546000908210612f1d5760405162461bcd60e51b81526004018080602001828103825260228152602001806131f36022913960400191505060405180910390fd5b826000018281548110612f2c57fe5b9060005260206000200154905092915050565b60009081526001919091016020526040902054151590565b5490565b6001600160a01b038216612fa05760405162461bcd60e51b815260040180806020018281038252602a815260200180613404602a913960400191505060405180910390fd5b80610f48576040805162461bcd60e51b815260206004820152601960248201527f43726f776473616c653a20776569416d6f756e74206973203000000000000000604482015290519081900360640190fd5b6000612ffe8383612f3f565b613034575081546001818101845560008481526020808220909301849055845484825282860190935260409020919091556116a1565b5060006116a1565b600081815260018301602052604081205480156130f8578354600019808301919081019060009087908390811061306f57fe5b906000526020600020015490508087600001848154811061308c57fe5b6000918252602080832090910192909255828152600189810190925260409020908401905586548790806130bc57fe5b600190038181906000526020600020016000905590558660010160008781526020019081526020016000206000905560019450505050506116a1565b60009150506116a1565b60405180604001604052806000815260200161311c613121565b905290565b60405180604001604052806002906020820280388339509192915050565b60405180606001604052806000815260200160008152602001600081525090565b826002810192821561318e579160200282015b8281111561318e578251825591602001919060010190613173565b5061319a92915061319e565b5090565b610be891905b8082111561319a57600081556001016131a456fe54726f6e537461727343726f776473616c653a206e65772073746167652069732067726561746572207468616e2073746167657320636f756e74456e756d657261626c655365743a20696e646578206f7574206f6620626f756e6473416363657373436f6e74726f6c3a2073656e646572206d75737420626520616e2061646d696e20746f206772616e745374617273537761703a20436170206d7573742062652067726561746572207468616e207a65726f4f776e61626c653a206e6577206f776e657220697320746865207a65726f206164647265737354726f6e537461727343726f776473616c653a20707572636861736520616d6f756e74206578636565646564416363657373436f6e74726f6c3a2073656e646572206d75737420626520616e2061646d696e20746f207265766f6b655374617273537761703a2054696d65206d7573742062652067726561746572207468616e207a65726f5374617273537761703a2052617465206d7573742062652067726561746572207468616e207a65726f536166654d6174683a206d756c7469706c69636174696f6e206f766572666c6f774d616e61676572526f6c653a2063616c6c657220646f6573206e6f74206861766520746865204d616e6167657220726f6c654f776e61626c653a2063616c6c6572206973206e6f7420746865206f776e657254726f6e537461727343726f776473616c653a207472616e7366657220746f206d75636820746f6b656e7354726f6e537461727343726f776473616c653a2073746167652063617020657863656564656443726f776473616c653a2062656e656669636961727920697320746865207a65726f206164647265737354726f6e537461727343726f776473616c653a207472616e7366657220746f20746865207a65726f206164647265737354726f6e537461727343726f776473616c653a2062656e6566696369617279206973206e6f742064756520616e7920746f6b656e7354726f6e537461727343726f776473616c653a206c6f636b65642062792076657374696e6720706572696f64416363657373436f6e74726f6c3a2063616e206f6e6c792072656e6f756e636520726f6c657320666f722073656c66a264697066735822122009870f43f342c9b0b184a700b8fae10aa1213bd43a2395ae6b1f53519d311b0564736f6c6343000600003343726f776473616c653a20746f6b656e20697320746865207a65726f2061646472657373f3f7a9fe364faab93b216da50a3214154f22a0a2b415b23a84c8169e8b636ee3f3f7a9fe364faab93b216da50a3214154f22a0a2b415b23a84c8169e8b636ee443726f776473616c653a2077616c6c657420697320746865207a65726f2061646472657373",
  "source": "pragma solidity ^0.6.0;\n\nimport \"./math/SafeMath.sol\";\nimport \"./access/roles/ManagerRole.sol\";\nimport \"./token/Detailed.sol\";\nimport \"./Stars.sol\";\nimport \"./utils/ReentrancyGuard.sol\";\nimport \"./utils/PausableCrowdsale.sol\";\n\n\ncontract StarsSwap is PausableCrowdsale, ManagerRole {\n    using SafeMath for uint256;\n\n    // Count ETH transfer to player\n    mapping(address => uint256) private _wagers;\n\n    event TokensReleased(address beneficiary, uint256 amount);\n    event TokensWithdrawn(address beneficiary, uint256 amount);\n    event TokensTransfered(address beneficiary, uint256 amount);\n    event VestingToggled(bool vested);\n\n    struct TimelockData {\n        // Stage opening time\n        uint256 time;\n        // Rates to unlock for crowdsale stages\n        uint256[2] rates;\n    }\n\n    struct StageData {\n        // Total number of supply tokens on certain stage\n        uint256 supply;\n        // Max amount of tokens to be contributed\n        uint256 cap;\n        // How many token units a buyer gets per TRX\n        uint256 rate;\n        // Tokens amount purchased by the buyer\n        mapping (address => uint256) balances;\n        // Tokens amount released by the buyer\n        mapping (address => uint256) released;\n    }\n\n    // The last time of the token release by the buyer.\n    mapping (address => uint256) private _times;\n\n    // The vesting schedule\n    TimelockData[] private _calendar;\n\n    // The crowdsale stages\n    StageData[] private _stages;\n\n    // A current crowdsale stage\n    uint256 private _currentStage = 0;\n\n    // Lock/Unlock by vesting period\n    bool private _vested = true;\n\n    constructor(address payable wallet, IERC20 token) public Crowdsale(wallet, token) {\n        _stages.push(StageData({\n        supply: 0,\n        cap: 1000000 * (10 ** 18),\n        rate: 57150000000000\n        }));\n\n        _stages.push(StageData({\n        supply: 0,\n        cap: 1750000 * (10 ** 18),\n        rate: 83330000000000\n        }));\n\n        _calendar.push(TimelockData({ time: uint256(1602504000), rates: [uint256(70), 70] }));\n        _calendar.push(TimelockData({ time: uint256(1603713600), rates: [uint256(30), 30] }));\n        // _calendar.push(TimelockData({ time: uint256(1836205675), rates: [uint256(0), 70] }));\n        // _calendar.push(TimelockData({ time: uint256(1836205675), rates: [uint256(0), 30] }));\n    }\n\n    /**\n    * @return the name of the token.\n    */\n    function name() public view virtual returns (string memory) {\n        return ERC20Detailed(address(token())).name();\n    }\n\n    /**\n    * @return the symbol of the token.\n    */\n    function symbol() public view virtual returns (string memory) {\n        return ERC20Detailed(address(token())).symbol();\n    }\n\n    /**\n    * @return the number of decimals of the token.\n    */\n    function decimals() public view virtual returns (uint8) {\n        return ERC20Detailed(address(token())).decimals();\n    }\n\n    /**\n    * @return uint256 representing current block timestamp as seconds since unix epoch\n    */\n    function timestamp() public view virtual returns (uint256) {\n        return block.timestamp;\n    }\n\n    /**\n    * @dev Returns true if the contract is lock by vesting logic, and false otherwise.\n    */\n    function vested() public view virtual returns (bool) {\n        return _vested;\n    }\n\n    /**\n    * @return the last time of the token release.\n    */\n    function timeOf(address owner) public view virtual returns (uint256) {\n        return _times[owner];\n    }\n\n    /**\n    * @dev Gets the balance of the specified address.\n    * @param owner The address to query the balance of.\n    * @return uint256 representing the amount owned by the passed address.\n    */\n    function balanceOf(address owner) public view virtual returns (uint256) {\n        uint256 balance = 0;\n        for (uint256 i = 0; i < _stages.length; i++) {\n        balance = balance.add(_stages[i].balances[owner]);\n        }\n        return balance;\n    }\n\n    /**\n    * @dev Gets the released token amount of the specified address.\n    * @param owner The address to query the release of.\n    * @return uint256 representing the amount released by the passed address.\n    */\n    function releasedOf(address owner) public view virtual returns (uint256) {\n        uint256 release = 0;\n        for (uint256 i = 0; i < _stages.length; i++) {\n        release = release.add(_stages[i].released[owner]);\n        }\n        return release;\n    }\n\n    /**\n    * @dev Gets the balance of the specified address at a certain stage.\n    * @param id The stage identifier\n    * @param owner The address to query the balance of.\n    * @return uint256 representing the amount owned by the passed address.\n    */\n    function balanceOfStage(uint256 id, address owner) public view virtual returns (uint256) {\n        return _stages[id].balances[owner];\n    }\n\n    /**\n    * @dev Gets the release of the specified address at a certain stage.\n    * @param id The stage identifier\n    * @param owner The address to query the release of.\n    * @return uint256 representing the amount released by the passed address.\n    */\n    function releasedOfStage(uint256 id, address owner) public view virtual returns (uint256) {\n        return _stages[id].released[owner];\n    }\n\n    /**\n    * @return uint256 representing the calender length.\n    */\n    function getCalendarLength() public view virtual returns (uint256) {\n        return _calendar.length;\n    }\n\n    /**\n    * @dev Gets the calendar certain stage data.\n    * @param id The stage identifier\n    * @return (uint256 time, uint256[2]) Stage start time and rates\n    */\n    function getCalendar(uint256 id) public view virtual returns (uint256, uint256[2] memory) {\n        TimelockData memory timelock = _calendar[id];\n        return (timelock.time, timelock.rates);\n    }\n\n    /**\n    * @dev Gets the stage data by identifier\n    * @return (uint256, uint256, uint256) total supply, stage cap & stage rate\n    */\n    function getStage(uint256 id) public view virtual returns (uint256, uint256, uint256) {\n        StageData memory stage = _stages[id];\n        return (stage.supply, stage.cap, stage.rate);\n    }\n\n    /**\n    * @dev Gets the current crowdsale stage identifier\n    * @return uint256 representing stage identifier\n    */\n    function getCurrentStage() public view virtual returns (uint256) {\n        return _currentStage;\n    }\n\n    /**\n    * @dev Set next crowdsale stage\n    * @param stage The next stage identifier\n    */\n    function setCurrentStage(uint256 stage) public virtual onlyManager returns (bool) {\n        require(stage < _stages.length, \"TronStarsCrowdsale: new stage is greater than stages count\");\n        _currentStage = stage;\n        return true;\n    }\n\n    /**\n    * @dev Lock/Unlock vesting period\n    * @param value Locked by vesting period if true\n    */\n    function toggleVesting(bool value) public virtual onlyManager {\n        _vested = value;\n        emit VestingToggled(value);\n    }\n    /**\n    * @dev Transfer token for a specified addresses.\n    * @param to The address to transfer to.\n    * @param value The amount to be transferred.\n    */\n    function transferTokens(address to, uint256 value) public virtual onlyManager returns (bool) {\n        uint256 totalSupply = 0;\n        for (uint256 i = 0; i < _stages.length; i++) {\n        totalSupply = totalSupply.add(_stages[i].supply);\n        }\n\n        uint256 balance = token().balanceOf(address(this));\n\n        require(to != address(0), \"TronStarsCrowdsale: transfer to the zero address\");\n        require(balance.sub(value) >= totalSupply, \"TronStarsCrowdsale: transfer to much tokens\");\n\n        emit TokensTransfered(to, value);\n\n        return token().transfer(to, value);\n    }\n\n    /**\n    * @dev Calculates the amount that has already vested but hasn't been released yet.\n    * @param beneficiary Whose tokens will be vested\n    */\n    function releasableAmount(address beneficiary) public view virtual returns (uint256) {\n        TimelockData memory timelock;\n        uint256[2] memory rates = [uint256(0),  0];\n        for (uint256 i = 0; i < _calendar.length; i++) {\n            timelock = _calendar[i];\n            if (block.timestamp > timelock.time) {\n            if (timelock.time > _times[beneficiary]) {\n                rates[0] = rates[0].add(timelock.rates[0]);\n                rates[1] = rates[1].add(timelock.rates[1]);\n            }\n            } else {\n            break;\n            }\n        }\n\n        uint256 amount = 0;\n        uint256 available = 0;\n        uint256 unreleased = 0;\n        for (uint256 i = 0; i < _stages.length; i++) {\n        unreleased = _stages[i].balances[beneficiary].sub(_stages[i].released[beneficiary]);\n        if (rates[i] > 0 && unreleased > 0) {\n            available = _stages[i].balances[beneficiary].mul(rates[i]).div(100);\n            amount = amount.add(available);\n        }\n        }\n\n        return amount;\n    }\n\n    /**\n    * @dev Withraw tokens after crowdsale ends.\n    * @param beneficiary Whose tokens will be withdrawn.\n    */\n    function withdrawTokens(address beneficiary) public virtual {\n        require(!_vested, \"TronStarsCrowdsale: locked by vesting period\");\n\n        uint256 balance = balanceOf(beneficiary);\n        uint256 released = releasedOf(beneficiary);\n\n        uint256 amount = balance.sub(released);\n\n        require(amount > 0, \"TronStarsCrowdsale: beneficiary is not due any tokens\");\n\n        for (uint256 i = 0; i < _stages.length; i++) {\n        _stages[i].released[beneficiary] = _stages[i].balances[beneficiary];\n        }\n\n        _deliverTokens(beneficiary, amount);\n\n        emit TokensWithdrawn(beneficiary, amount);\n    }\n\n    /**\n    * @dev Release tokens after crowdsale ends.\n    * @param beneficiary Whose tokens will be withdrawn.\n    */\n    function releaseTokens(address beneficiary) public virtual {\n        TimelockData memory timelock;\n        uint256[2] memory rates = [uint256(0),  0];\n        for (uint256 i = 0; i < _calendar.length; i++) {\n            timelock = _calendar[i];\n            if (block.timestamp >= timelock.time) {\n            if (timelock.time > _times[beneficiary]) {\n                rates[0] = rates[0].add(timelock.rates[0]);\n                rates[1] = rates[1].add(timelock.rates[1]);\n            }\n            } else {\n            break;\n            }\n        }\n\n        uint256 amount = 0;\n        uint256 available = 0;\n        uint256 unreleased = 0;\n        for (uint256 i = 0; i < _stages.length; i++) {\n        unreleased = _stages[i].balances[beneficiary].sub(_stages[i].released[beneficiary]);\n        if (rates[i] > 0 && unreleased > 0) {\n            available = _stages[i].balances[beneficiary].mul(rates[i]).div(100);\n\n            _stages[i].released[beneficiary] = _stages[i].released[beneficiary].add(available);\n            amount = amount.add(available);\n\n            require(_stages[i].released[beneficiary] <= _stages[i].balances[beneficiary], \"TronStarsCrowdsale: purchase amount exceeded\");\n        }\n        }\n\n        require(amount > 0, \"TronStarsCrowdsale: beneficiary is not due any tokens\");\n\n        _times[beneficiary] = block.timestamp;\n        _deliverTokens(beneficiary, amount);\n\n        emit TokensReleased(beneficiary, amount);\n    }\n\n    /**\n    * @dev Override to extend the way in which TRX is converted to tokens.\n    * @param weiAmount Value in wei to be converted into tokens\n    * @return Number of tokens that can be purchased with the specified _weiAmount\n    */\n    function _getTokenAmount(uint256 weiAmount) internal view virtual override(Crowdsale) returns (uint256) {\n        /* return weiAmount.mul(_stages[_currentStage].rate).div(1000000); */\n        return (weiAmount.mul(1000000000000000000).div(_stages[_currentStage].rate)).div(2);\n    }\n\n    /**\n    * @dev Overrides parent by storing due balances, and delivering tokens to the vault instead of the end user. This\n    * ensures that the tokens will be available by the time they are withdrawn (which may not be the case if\n    * `_deliverTokens` was called later).\n    * @param beneficiary Token purchaser\n    * @param tokenAmount Amount of tokens purchased\n    */\n    function _processPurchase(address beneficiary, uint256 tokenAmount) internal virtual override(Crowdsale) {\n        StageData storage stage = _stages[_currentStage];\n\n        require(stage.supply.add(tokenAmount) <= stage.cap, \"TronStarsCrowdsale: stage cap exceeded\");\n\n        stage.supply = stage.supply.add(tokenAmount);\n\n        mapping(address => uint256) storage balances = stage.balances;\n        balances[beneficiary] = balances[beneficiary].add(tokenAmount);\n    }\n\n    /**\n    * @dev Add stage for crowdsale.\n    * @param supply ount supply token.\n    * @param cap The maximum number of tokens available for sale at this stage.\n    * @param rate wei price per token unit.\n    */\n    function addStage(uint256 supply, uint256 cap, uint256 rate) public virtual onlyManager returns (bool) {\n        require(cap > 0, 'StarsSwap: Cap must be greater than zero');\n        require(rate > 0, 'StarsSwap: Rate must be greater than zero');\n        \n        _stages.push(StageData({\n            supply: supply,\n            cap: cap,\n            rate: rate\n        }));\n        \n        return true;\n    }\n    \n    /**\n    * @dev Add calendar unlock token.\n    * @param time Time unlock token.\n    * @param ratesFirst Share of unlocking at this stage.\n    * @param ratesSecond Share of unlocking at this stage.\n    */\n    function addCalendar(uint256 time, uint256 ratesFirst, uint256 ratesSecond) public virtual onlyManager returns (bool) {\n        require(time > 0, 'StarsSwap: Time must be greater than zero');\n\n        _calendar.push(TimelockData({\n            time: time,\n            rates: [ratesFirst, ratesSecond]\n        }));\n        \n        return true;\n    }\n    \n    /**\n    * @dev Change stage buy token.\n    * @param id Id changes stage.\n    * @param supply ount supply token.\n    * @param cap The maximum number of tokens available for sale at this stage.\n    * @param rate wei price per token unit.\n    */\n    function changeStage(uint8 id, uint256 supply, uint256 cap, uint256 rate) public virtual onlyManager returns (bool) {\n        _stages[id].supply = supply;\n        _stages[id].cap = cap;\n        _stages[id].rate = rate;\n        \n        return true;\n    }\n    \n    /**\n    * @dev Change calendar payouts.\n    * @param id Id changes calendar.\n    * @param rateFirst Share of unlocking at this stage.\n    * @param rateSecond Share of unlocking at this stage.\n    */\n    function changeCalendar(uint8 id, uint256 time, uint256 rateFirst, uint256 rateSecond) public virtual onlyManager returns (bool) {\n        _calendar[id].time = time;\n        _calendar[id].rates[0] = rateFirst;\n        _calendar[id].rates[1] = rateSecond;\n        \n        return true;\n    }\n\n    /**\n     * @dev Called by a pauser to pause, triggers stopped state.\n     */\n    function pause() public virtual onlyManager whenNotPaused returns (bool) {\n        Pausable._pause();\n        return true;\n    }\n\n    /**\n     * @dev Called by a pauser to unpause, returns to normal state.\n     */\n    function unpause() public virtual onlyManager whenPaused returns (bool) {\n        Pausable._unpause();\n        return true;\n    }\n}",
  "sourcePath": "/Applications/projects/nft/newdt/contracts/StarsSwap.sol",
  "compiler": {
    "name": "solc",
    "version": "0.6.0+commit.26b70077.Emscripten.clang"
  },
  "schemaVersion": "3.4.3",
  "updatedAt": "2022-01-29T12:30:13.625Z",
  "networkType": "ethereum",
  "devdoc": {
    "methods": {
      "addAdmin(bytes32,address)": {
        "details": "Create and ading new role.",
        "params": {
          "account": "account for adding to the role.",
          "role": "role account."
        }
      },
      "addCalendar(uint256,uint256,uint256)": {
        "details": "Add calendar unlock token.",
        "params": {
          "ratesFirst": "Share of unlocking at this stage.",
          "ratesSecond": "Share of unlocking at this stage.",
          "time": "Time unlock token."
        }
      },
      "addStage(uint256,uint256,uint256)": {
        "details": "Add stage for crowdsale.",
        "params": {
          "cap": "The maximum number of tokens available for sale at this stage.",
          "rate": "wei price per token unit.",
          "supply": "ount supply token."
        }
      },
      "balanceOf(address)": {
        "details": "Gets the balance of the specified address.",
        "params": {
          "owner": "The address to query the balance of."
        },
        "returns": {
          "_0": "uint256 representing the amount owned by the passed address."
        }
      },
      "balanceOfStage(uint256,address)": {
        "details": "Gets the balance of the specified address at a certain stage.",
        "params": {
          "id": "The stage identifier",
          "owner": "The address to query the balance of."
        },
        "returns": {
          "_0": "uint256 representing the amount owned by the passed address."
        }
      },
      "buyTokens(address)": {
        "details": "low level token purchase ***DO NOT OVERRIDE*** This function has a non-reentrancy guard, so it shouldn't be called by another `nonReentrant` function.",
        "params": {
          "beneficiary": "Recipient of the token purchase"
        }
      },
      "changeCalendar(uint8,uint256,uint256,uint256)": {
        "details": "Change calendar payouts.",
        "params": {
          "id": "Id changes calendar.",
          "rateFirst": "Share of unlocking at this stage.",
          "rateSecond": "Share of unlocking at this stage."
        }
      },
      "changeStage(uint8,uint256,uint256,uint256)": {
        "details": "Change stage buy token.",
        "params": {
          "cap": "The maximum number of tokens available for sale at this stage.",
          "id": "Id changes stage.",
          "rate": "wei price per token unit.",
          "supply": "ount supply token."
        }
      },
      "finalize()": {
        "details": "Block adding admins."
      },
      "getCalendar(uint256)": {
        "details": "Gets the calendar certain stage data.",
        "params": {
          "id": "The stage identifier"
        },
        "returns": {
          "_0": "(uint256 time, uint256[2]) Stage start time and rates"
        }
      },
      "getCurrentStage()": {
        "details": "Gets the current crowdsale stage identifier",
        "returns": {
          "_0": "uint256 representing stage identifier"
        }
      },
      "getRoleAdmin(bytes32)": {
        "details": "Returns the admin role that controls `role`. See {grantRole} and {revokeRole}.     * To change a role's admin, use {_setRoleAdmin}."
      },
      "getRoleMember(bytes32,uint256)": {
        "details": "Returns one of the accounts that have `role`. `index` must be a value between 0 and {getRoleMemberCount}, non-inclusive.     * Role bearers are not sorted in any particular way, and their ordering may change at any point.     * WARNING: When using {getRoleMember} and {getRoleMemberCount}, make sure you perform all queries on the same block. See the following https://forum.openzeppelin.com/t/iterating-over-elements-on-enumerableset-in-openzeppelin-contracts/2296[forum post] for more information."
      },
      "getRoleMemberCount(bytes32)": {
        "details": "Returns the number of accounts that have `role`. Can be used together with {getRoleMember} to enumerate all bearers of a role."
      },
      "getStage(uint256)": {
        "details": "Gets the stage data by identifier",
        "returns": {
          "_0": "(uint256, uint256, uint256) total supply, stage cap & stage rate"
        }
      },
      "grantRole(bytes32,address)": {
        "details": "Grants `role` to `account`.     * If `account` had not been already granted `role`, emits a {RoleGranted} event.     * Requirements:     * - the caller must have ``role``'s admin role."
      },
      "hasRole(bytes32,address)": {
        "details": "Returns `true` if `account` has been granted `role`."
      },
      "owner()": {
        "details": "Returns the address of the current owner."
      },
      "pause()": {
        "details": "Called by a pauser to pause, triggers stopped state."
      },
      "paused()": {
        "details": "Returns true if the contract is paused, and false otherwise."
      },
      "releasableAmount(address)": {
        "details": "Calculates the amount that has already vested but hasn't been released yet.",
        "params": {
          "beneficiary": "Whose tokens will be vested"
        }
      },
      "releaseTokens(address)": {
        "details": "Release tokens after crowdsale ends.",
        "params": {
          "beneficiary": "Whose tokens will be withdrawn."
        }
      },
      "releasedOf(address)": {
        "details": "Gets the released token amount of the specified address.",
        "params": {
          "owner": "The address to query the release of."
        },
        "returns": {
          "_0": "uint256 representing the amount released by the passed address."
        }
      },
      "releasedOfStage(uint256,address)": {
        "details": "Gets the release of the specified address at a certain stage.",
        "params": {
          "id": "The stage identifier",
          "owner": "The address to query the release of."
        },
        "returns": {
          "_0": "uint256 representing the amount released by the passed address."
        }
      },
      "renounceOwnership()": {
        "details": "Leaves the contract without owner. It will not be possible to call `onlyOwner` functions anymore. Can only be called by the current owner.     * NOTE: Renouncing ownership will leave the contract without an owner, thereby removing any functionality that is only available to the owner."
      },
      "renounceRole(bytes32,address)": {
        "details": "Revokes `role` from the calling account.     * Roles are often managed via {grantRole} and {revokeRole}: this function's purpose is to provide a mechanism for accounts to lose their privileges if they are compromised (such as when a trusted device is misplaced).     * If the calling account had been granted `role`, emits a {RoleRevoked} event.     * Requirements:     * - the caller must be `account`."
      },
      "revokeRole(bytes32,address)": {
        "details": "Revokes `role` from `account`.     * If `account` had been granted `role`, emits a {RoleRevoked} event.     * Requirements:     * - the caller must have ``role``'s admin role."
      },
      "setCurrentStage(uint256)": {
        "details": "Set next crowdsale stage",
        "params": {
          "stage": "The next stage identifier"
        }
      },
      "toggleVesting(bool)": {
        "details": "Lock/Unlock vesting period",
        "params": {
          "value": "Locked by vesting period if true"
        }
      },
      "transferOwnership(address)": {
        "details": "Transfers ownership of the contract to a new account (`newOwner`). Can only be called by the current owner."
      },
      "transferTokens(address,uint256)": {
        "details": "Transfer token for a specified addresses.",
        "params": {
          "to": "The address to transfer to.",
          "value": "The amount to be transferred."
        }
      },
      "unpause()": {
        "details": "Called by a pauser to unpause, returns to normal state."
      },
      "vested()": {
        "details": "Returns true if the contract is lock by vesting logic, and false otherwise."
      },
      "withdrawTokens(address)": {
        "details": "Withraw tokens after crowdsale ends.",
        "params": {
          "beneficiary": "Whose tokens will be withdrawn."
        }
      }
    }
  },
  "userdoc": {
    "methods": {}
  }
}