{
  "contractName": "Stars",
  "abi": [
    {
      "inputs": [],
      "stateMutability": "nonpayable",
      "type": "constructor"
    },
    {
      "anonymous": false,
      "inputs": [
        {
          "indexed": true,
          "internalType": "address",
          "name": "owner",
          "type": "address"
        },
        {
          "indexed": true,
          "internalType": "address",
          "name": "spender",
          "type": "address"
        },
        {
          "indexed": false,
          "internalType": "uint256",
          "name": "value",
          "type": "uint256"
        }
      ],
      "name": "Approval",
      "type": "event"
    },
    {
      "anonymous": false,
      "inputs": [],
      "name": "Finalized",
      "type": "event"
    },
    {
      "anonymous": false,
      "inputs": [
        {
          "indexed": true,
          "internalType": "address",
          "name": "previousOwner",
          "type": "address"
        },
        {
          "indexed": true,
          "internalType": "address",
          "name": "newOwner",
          "type": "address"
        }
      ],
      "name": "OwnershipTransferred",
      "type": "event"
    },
    {
      "anonymous": false,
      "inputs": [
        {
          "indexed": false,
          "internalType": "address",
          "name": "account",
          "type": "address"
        }
      ],
      "name": "Paused",
      "type": "event"
    },
    {
      "anonymous": false,
      "inputs": [
        {
          "indexed": true,
          "internalType": "bytes32",
          "name": "role",
          "type": "bytes32"
        },
        {
          "indexed": true,
          "internalType": "address",
          "name": "account",
          "type": "address"
        },
        {
          "indexed": true,
          "internalType": "address",
          "name": "sender",
          "type": "address"
        }
      ],
      "name": "RoleGranted",
      "type": "event"
    },
    {
      "anonymous": false,
      "inputs": [
        {
          "indexed": true,
          "internalType": "bytes32",
          "name": "role",
          "type": "bytes32"
        },
        {
          "indexed": true,
          "internalType": "address",
          "name": "account",
          "type": "address"
        },
        {
          "indexed": true,
          "internalType": "address",
          "name": "sender",
          "type": "address"
        }
      ],
      "name": "RoleRevoked",
      "type": "event"
    },
    {
      "anonymous": false,
      "inputs": [
        {
          "indexed": true,
          "internalType": "address",
          "name": "from",
          "type": "address"
        },
        {
          "indexed": true,
          "internalType": "address",
          "name": "to",
          "type": "address"
        },
        {
          "indexed": false,
          "internalType": "uint256",
          "name": "value",
          "type": "uint256"
        }
      ],
      "name": "Transfer",
      "type": "event"
    },
    {
      "anonymous": false,
      "inputs": [
        {
          "indexed": false,
          "internalType": "address",
          "name": "account",
          "type": "address"
        }
      ],
      "name": "Unpaused",
      "type": "event"
    },
    {
      "inputs": [],
      "name": "DEFAULT_ADMIN_ROLE",
      "outputs": [
        {
          "internalType": "bytes32",
          "name": "",
          "type": "bytes32"
        }
      ],
      "stateMutability": "view",
      "type": "function"
    },
    {
      "inputs": [],
      "name": "MINTER_ADMIN_ROLE",
      "outputs": [
        {
          "internalType": "bytes32",
          "name": "",
          "type": "bytes32"
        }
      ],
      "stateMutability": "view",
      "type": "function"
    },
    {
      "inputs": [],
      "name": "MINTER_ROLE",
      "outputs": [
        {
          "internalType": "bytes32",
          "name": "",
          "type": "bytes32"
        }
      ],
      "stateMutability": "view",
      "type": "function"
    },
    {
      "inputs": [
        {
          "internalType": "bytes32",
          "name": "role",
          "type": "bytes32"
        },
        {
          "internalType": "address",
          "name": "account",
          "type": "address"
        }
      ],
      "name": "addAdmin",
      "outputs": [
        {
          "internalType": "bool",
          "name": "",
          "type": "bool"
        }
      ],
      "stateMutability": "nonpayable",
      "type": "function"
    },
    {
      "inputs": [
        {
          "internalType": "address",
          "name": "owner",
          "type": "address"
        },
        {
          "internalType": "address",
          "name": "spender",
          "type": "address"
        }
      ],
      "name": "allowance",
      "outputs": [
        {
          "internalType": "uint256",
          "name": "",
          "type": "uint256"
        }
      ],
      "stateMutability": "view",
      "type": "function"
    },
    {
      "inputs": [
        {
          "internalType": "address",
          "name": "spender",
          "type": "address"
        },
        {
          "internalType": "uint256",
          "name": "amount",
          "type": "uint256"
        }
      ],
      "name": "approve",
      "outputs": [
        {
          "internalType": "bool",
          "name": "",
          "type": "bool"
        }
      ],
      "stateMutability": "nonpayable",
      "type": "function"
    },
    {
      "inputs": [
        {
          "internalType": "address",
          "name": "account",
          "type": "address"
        }
      ],
      "name": "balanceOf",
      "outputs": [
        {
          "internalType": "uint256",
          "name": "",
          "type": "uint256"
        }
      ],
      "stateMutability": "view",
      "type": "function"
    },
    {
      "inputs": [],
      "name": "cap",
      "outputs": [
        {
          "internalType": "uint256",
          "name": "",
          "type": "uint256"
        }
      ],
      "stateMutability": "view",
      "type": "function"
    },
    {
      "inputs": [],
      "name": "decimals",
      "outputs": [
        {
          "internalType": "uint8",
          "name": "",
          "type": "uint8"
        }
      ],
      "stateMutability": "view",
      "type": "function"
    },
    {
      "inputs": [
        {
          "internalType": "address",
          "name": "spender",
          "type": "address"
        },
        {
          "internalType": "uint256",
          "name": "subtractedValue",
          "type": "uint256"
        }
      ],
      "name": "decreaseAllowance",
      "outputs": [
        {
          "internalType": "bool",
          "name": "",
          "type": "bool"
        }
      ],
      "stateMutability": "nonpayable",
      "type": "function"
    },
    {
      "inputs": [],
      "name": "finalize",
      "outputs": [],
      "stateMutability": "nonpayable",
      "type": "function"
    },
    {
      "inputs": [
        {
          "internalType": "bytes32",
          "name": "role",
          "type": "bytes32"
        }
      ],
      "name": "getRoleAdmin",
      "outputs": [
        {
          "internalType": "bytes32",
          "name": "",
          "type": "bytes32"
        }
      ],
      "stateMutability": "view",
      "type": "function"
    },
    {
      "inputs": [
        {
          "internalType": "bytes32",
          "name": "role",
          "type": "bytes32"
        },
        {
          "internalType": "uint256",
          "name": "index",
          "type": "uint256"
        }
      ],
      "name": "getRoleMember",
      "outputs": [
        {
          "internalType": "address",
          "name": "",
          "type": "address"
        }
      ],
      "stateMutability": "view",
      "type": "function"
    },
    {
      "inputs": [
        {
          "internalType": "bytes32",
          "name": "role",
          "type": "bytes32"
        }
      ],
      "name": "getRoleMemberCount",
      "outputs": [
        {
          "internalType": "uint256",
          "name": "",
          "type": "uint256"
        }
      ],
      "stateMutability": "view",
      "type": "function"
    },
    {
      "inputs": [
        {
          "internalType": "bytes32",
          "name": "role",
          "type": "bytes32"
        },
        {
          "internalType": "address",
          "name": "account",
          "type": "address"
        }
      ],
      "name": "grantRole",
      "outputs": [],
      "stateMutability": "nonpayable",
      "type": "function"
    },
    {
      "inputs": [
        {
          "internalType": "bytes32",
          "name": "role",
          "type": "bytes32"
        },
        {
          "internalType": "address",
          "name": "account",
          "type": "address"
        }
      ],
      "name": "hasRole",
      "outputs": [
        {
          "internalType": "bool",
          "name": "",
          "type": "bool"
        }
      ],
      "stateMutability": "view",
      "type": "function"
    },
    {
      "inputs": [
        {
          "internalType": "address",
          "name": "spender",
          "type": "address"
        },
        {
          "internalType": "uint256",
          "name": "addedValue",
          "type": "uint256"
        }
      ],
      "name": "increaseAllowance",
      "outputs": [
        {
          "internalType": "bool",
          "name": "",
          "type": "bool"
        }
      ],
      "stateMutability": "nonpayable",
      "type": "function"
    },
    {
      "inputs": [],
      "name": "name",
      "outputs": [
        {
          "internalType": "string",
          "name": "",
          "type": "string"
        }
      ],
      "stateMutability": "view",
      "type": "function"
    },
    {
      "inputs": [],
      "name": "owner",
      "outputs": [
        {
          "internalType": "address",
          "name": "",
          "type": "address"
        }
      ],
      "stateMutability": "view",
      "type": "function"
    },
    {
      "inputs": [],
      "name": "paused",
      "outputs": [
        {
          "internalType": "bool",
          "name": "",
          "type": "bool"
        }
      ],
      "stateMutability": "view",
      "type": "function"
    },
    {
      "inputs": [],
      "name": "renounceOwnership",
      "outputs": [],
      "stateMutability": "nonpayable",
      "type": "function"
    },
    {
      "inputs": [
        {
          "internalType": "bytes32",
          "name": "role",
          "type": "bytes32"
        },
        {
          "internalType": "address",
          "name": "account",
          "type": "address"
        }
      ],
      "name": "renounceRole",
      "outputs": [],
      "stateMutability": "nonpayable",
      "type": "function"
    },
    {
      "inputs": [
        {
          "internalType": "bytes32",
          "name": "role",
          "type": "bytes32"
        },
        {
          "internalType": "address",
          "name": "account",
          "type": "address"
        }
      ],
      "name": "revokeRole",
      "outputs": [],
      "stateMutability": "nonpayable",
      "type": "function"
    },
    {
      "inputs": [],
      "name": "symbol",
      "outputs": [
        {
          "internalType": "string",
          "name": "",
          "type": "string"
        }
      ],
      "stateMutability": "view",
      "type": "function"
    },
    {
      "inputs": [],
      "name": "totalSupply",
      "outputs": [
        {
          "internalType": "uint256",
          "name": "",
          "type": "uint256"
        }
      ],
      "stateMutability": "view",
      "type": "function"
    },
    {
      "inputs": [
        {
          "internalType": "address",
          "name": "newOwner",
          "type": "address"
        }
      ],
      "name": "transferOwnership",
      "outputs": [],
      "stateMutability": "nonpayable",
      "type": "function"
    },
    {
      "inputs": [
        {
          "internalType": "address",
          "name": "to",
          "type": "address"
        },
        {
          "internalType": "uint256",
          "name": "amount",
          "type": "uint256"
        }
      ],
      "name": "mint",
      "outputs": [
        {
          "internalType": "bool",
          "name": "",
          "type": "bool"
        }
      ],
      "stateMutability": "nonpayable",
      "type": "function"
    },
    {
      "inputs": [
        {
          "internalType": "address",
          "name": "to",
          "type": "address"
        },
        {
          "internalType": "uint256",
          "name": "amount",
          "type": "uint256"
        }
      ],
      "name": "transfer",
      "outputs": [
        {
          "internalType": "bool",
          "name": "",
          "type": "bool"
        }
      ],
      "stateMutability": "nonpayable",
      "type": "function"
    },
    {
      "inputs": [
        {
          "internalType": "address",
          "name": "sender",
          "type": "address"
        },
        {
          "internalType": "address",
          "name": "recipient",
          "type": "address"
        },
        {
          "internalType": "uint256",
          "name": "amount",
          "type": "uint256"
        }
      ],
      "name": "transferFrom",
      "outputs": [
        {
          "internalType": "bool",
          "name": "",
          "type": "bool"
        }
      ],
      "stateMutability": "nonpayable",
      "type": "function"
    }
  ],
  "bytecode": "0x60806040526008805460ff60a01b191690553480156200001e57600080fd5b5060408051808201825260038082526253535360e81b6020808401828152855180870190965292855284015281516b033b2e3c9fd0803ce800000093916012916200006c91600091620001d4565b50815162000082906001906020850190620001d4565b506002805460ff90921660ff199283161790556006805490911690555060009050620000b66001600160e01b03620001ba16565b600880546001600160a01b0319166001600160a01b038316908117909155604051919250906000907f8be0079c531659141344cd1fd0a4f28419497f9722a3daafe3b4186f6b6457e0908290a350604080516a4d494e5445525f524f4c4560a81b8152815190819003600b018120704d494e5445525f41444d494e5f524f4c4560781b825291519081900360110190206200015b91906001600160e01b03620001bf16565b60008111620001b1576040805162461bcd60e51b815260206004820152601560248201527f45524332304361707065643a2063617020697320300000000000000000000000604482015290519081900360640190fd5b60095562000276565b335b90565b60009182526007602052604090912060020155565b828054600181600116156101000203166002900490600052602060002090601f016020900481019282601f106200021757805160ff191683800117855562000247565b8280016001018555821562000247579182015b82811115620002475782518255916020019190600101906200022a565b506200025592915062000259565b5090565b620001bc91905b8082111562000255576000815560010162000260565b6118f180620002866000396000f3fe608060405234801561001057600080fd5b50600436106101cf5760003560e01c80636419bcdb11610104578063a217fddf116100a2578063d539139311610071578063d539139314610540578063d547741f14610548578063dd62ed3e14610574578063f2fde38b146105a2576101cf565b8063a217fddf146104c3578063a457c2d7146104cb578063a9059cbb146104f7578063ca15c87314610523576101cf565b80638da5cb5b116100de5780638da5cb5b146104485780639010d07c1461046c57806391d148541461048f57806395d89b41146104bb576101cf565b80636419bcdb146103ee57806370a082311461041a578063715018a614610440576101cf565b8063313ce56711610171578063395093511161014b578063395093511461038657806340c10f19146103b25780634bb278f3146103de5780635c975abb146103e6576101cf565b8063313ce56714610334578063355274ea1461035257806336568abe1461035a576101cf565b806318160ddd116101ad57806318160ddd146102ab57806323b872dd146102b3578063248a9ca3146102e95780632f2ff15d14610306576101cf565b806306fdde03146101d4578063095ea7b3146102515780631339324b14610291575b600080fd5b6101dc6105c8565b6040805160208082528351818301528351919283929083019185019080838360005b838110156102165781810151838201526020016101fe565b50505050905090810190601f1680156102435780820380516001836020036101000a031916815260200191505b509250505060405180910390f35b61027d6004803603604081101561026757600080fd5b506001600160a01b03813516906020013561065e565b604080519115158252519081900360200190f35b61029961067c565b60408051918252519081900360200190f35b6102996106a5565b61027d600480360360608110156102c957600080fd5b506001600160a01b038135811691602081013590911690604001356106ab565b610299600480360360208110156102ff57600080fd5b5035610719565b6103326004803603604081101561031c57600080fd5b50803590602001356001600160a01b031661072e565b005b61033c61079a565b6040805160ff9092168252519081900360200190f35b6102996107a3565b6103326004803603604081101561037057600080fd5b50803590602001356001600160a01b03166107a9565b61027d6004803603604081101561039c57600080fd5b506001600160a01b03813516906020013561080a565b61027d600480360360408110156103c857600080fd5b506001600160a01b03813516906020013561085e565b6103326108dc565b61027d6109d1565b61027d6004803603604081101561040457600080fd5b50803590602001356001600160a01b03166109da565b6102996004803603602081101561043057600080fd5b50356001600160a01b0316610a9d565b610332610ab8565b610450610b5a565b604080516001600160a01b039092168252519081900360200190f35b6104506004803603604081101561048257600080fd5b5080359060200135610b69565b61027d600480360360408110156104a557600080fd5b50803590602001356001600160a01b0316610b8e565b6101dc610bac565b610299610c0c565b61027d600480360360408110156104e157600080fd5b506001600160a01b038135169060200135610c11565b61027d6004803603604081101561050d57600080fd5b506001600160a01b038135169060200135610c7f565b6102996004803603602081101561053957600080fd5b5035610c9f565b610299610cb6565b6103326004803603604081101561055e57600080fd5b50803590602001356001600160a01b0316610cd9565b6102996004803603604081101561058a57600080fd5b506001600160a01b0381358116916020013516610d32565b610332600480360360208110156105b857600080fd5b50356001600160a01b0316610d5d565b60008054604080516020601f60026000196101006001881615020190951694909404938401819004810282018101909252828152606093909290918301828280156106545780601f1061062957610100808354040283529160200191610654565b820191906000526020600020905b81548152906001019060200180831161063757829003601f168201915b5050505050905090565b600061067261066b610dc1565b8484610dc5565b5060015b92915050565b60408051704d494e5445525f41444d494e5f524f4c4560781b8152905190819003601101902081565b60055490565b60006106b8848484610eb1565b6106c3848484610f48565b61070f846106cf610dc1565b61070a856040518060600160405280602881526020016117ad602891396106fd8a6106f8610dc1565b610d32565b919063ffffffff6110b116565b610dc5565b5060019392505050565b60009081526007602052604090206002015490565b6000828152600760205260409020600201546107519061074c610dc1565b610b8e565b61078c5760405162461bcd60e51b815260040180806020018281038252602f8152602001806116b0602f913960400191505060405180910390fd5b6107968282611148565b5050565b60025460ff1690565b60095490565b6107b1610dc1565b6001600160a01b0316816001600160a01b0316146108005760405162461bcd60e51b815260040180806020018281038252602f815260200180611863602f913960400191505060405180910390fd5b61079682826111b7565b6000610672610817610dc1565b8461070a8560046000610828610dc1565b6001600160a01b03908116825260208083019390935260409182016000908120918c16815292529020549063ffffffff61122616565b604080516a4d494e5445525f524f4c4560a81b8152905190819003600b01902060009061088b9033610b8e565b6108c65760405162461bcd60e51b815260040180806020018281038252603081526020018061177d6030913960400191505060405180910390fd5b6108d260008484610eb1565b6106728383611280565b6108e4610dc1565b6008546001600160a01b03908116911614610934576040805162461bcd60e51b815260206004820181905260248201526000805160206117d5833981519152604482015290519081900360640190fd5b600854600160a01b900460ff1615610993576040805162461bcd60e51b815260206004820152601d60248201527f4d696e746572526f6c653a20616c72656164792066696e616c697a6564000000604482015290519081900360640190fd5b6008805460ff60a01b1916600160a01b1790556040517f6823b073d48d6e3a7d385eeb601452d680e74bb46afe3255a7d778f3a9b1768190600090a1565b60065460ff1690565b60006109e4610dc1565b6008546001600160a01b03908116911614610a34576040805162461bcd60e51b815260206004820181905260248201526000805160206117d5833981519152604482015290519081900360640190fd5b600854600160a01b900460ff1615610a93576040805162461bcd60e51b815260206004820152601d60248201527f4d696e746572526f6c653a20616c72656164792066696e616c697a6564000000604482015290519081900360640190fd5b610672838361078c565b6001600160a01b031660009081526003602052604090205490565b610ac0610dc1565b6008546001600160a01b03908116911614610b10576040805162461bcd60e51b815260206004820181905260248201526000805160206117d5833981519152604482015290519081900360640190fd5b6008546040516000916001600160a01b0316907f8be0079c531659141344cd1fd0a4f28419497f9722a3daafe3b4186f6b6457e0908390a3600880546001600160a01b0319169055565b6008546001600160a01b031690565b6000828152600760205260408120610b87908363ffffffff61137e16565b9392505050565b6000828152600760205260408120610b87908363ffffffff61138a16565b60018054604080516020601f600260001961010087891615020190951694909404938401819004810282018101909252828152606093909290918301828280156106545780601f1061062957610100808354040283529160200191610654565b600081565b6000610672610c1e610dc1565b8461070a8560405180606001604052806025815260200161183e6025913960046000610c48610dc1565b6001600160a01b03908116825260208083019390935260409182016000908120918d1681529252902054919063ffffffff6110b116565b6000610c8d6000848461139f565b610672610c98610dc1565b8484610f48565b6000818152600760205260408120610676906113ee565b604080516a4d494e5445525f524f4c4560a81b8152905190819003600b01902081565b600082815260076020526040902060020154610cf79061074c610dc1565b6108005760405162461bcd60e51b815260040180806020018281038252603081526020018061174d6030913960400191505060405180910390fd5b6001600160a01b03918216600090815260046020908152604080832093909416825291909152205490565b610d65610dc1565b6008546001600160a01b03908116911614610db5576040805162461bcd60e51b815260206004820181905260248201526000805160206117d5833981519152604482015290519081900360640190fd5b610dbe816113f9565b50565b3390565b6001600160a01b038316610e0a5760405162461bcd60e51b815260040180806020018281038252602481526020018061181a6024913960400191505060405180910390fd5b6001600160a01b038216610e4f5760405162461bcd60e51b81526004018080602001828103825260228152602001806117056022913960400191505060405180910390fd5b6001600160a01b03808416600081815260046020908152604080832094871680845294825291829020859055815185815291517f8c5be1e5ebec7d5bd14f71427d1e84f3dd0314c0f7b2291e5b200ac8c7c3b9259281900390910190a3505050565b610ebc83838361149a565b610ec783838361149a565b6001600160a01b038316610f4357600954610ef082610ee46106a5565b9063ffffffff61122616565b1115610f43576040805162461bcd60e51b815260206004820152601960248201527f45524332304361707065643a2063617020657863656564656400000000000000604482015290519081900360640190fd5b505050565b6001600160a01b038316610f8d5760405162461bcd60e51b81526004018080602001828103825260258152602001806117f56025913960400191505060405180910390fd5b6001600160a01b038216610fd25760405162461bcd60e51b815260040180806020018281038252602381526020018061168d6023913960400191505060405180910390fd5b610fdd838383610eb1565b61102081604051806060016040528060268152602001611727602691396001600160a01b038616600090815260036020526040902054919063ffffffff6110b116565b6001600160a01b038085166000908152600360205260408082209390935590841681522054611055908263ffffffff61122616565b6001600160a01b0380841660008181526003602090815260409182902094909455805185815290519193928716927fddf252ad1be2c89b69c2b068fc378daa952ba7f163c4a11628f55a4df523b3ef92918290030190a3505050565b600081848411156111405760405162461bcd60e51b81526004018080602001828103825283818151815260200191508051906020019080838360005b838110156111055781810151838201526020016110ed565b50505050905090810190601f1680156111325780820380516001836020036101000a031916815260200191505b509250505060405180910390fd5b505050900390565b6000828152600760205260409020611166908263ffffffff6114b016565b1561079657611173610dc1565b6001600160a01b0316816001600160a01b0316837f2f8788117e7eff1d82e926ec794901d17c78024a50270940304540a733656f0d60405160405180910390a45050565b60008281526007602052604090206111d5908263ffffffff6114c516565b15610796576111e2610dc1565b6001600160a01b0316816001600160a01b0316837ff6391f5c32d9c69d2a47ea670b442974b53935d1edc7fd64eb21e047a839171b60405160405180910390a45050565b600082820183811015610b87576040805162461bcd60e51b815260206004820152601b60248201527f536166654d6174683a206164646974696f6e206f766572666c6f770000000000604482015290519081900360640190fd5b6001600160a01b0382166112db576040805162461bcd60e51b815260206004820152601f60248201527f45524332303a206d696e7420746f20746865207a65726f206164647265737300604482015290519081900360640190fd5b6112e760008383610eb1565b6005546112fa908263ffffffff61122616565b6005556001600160a01b038216600090815260036020526040902054611326908263ffffffff61122616565b6001600160a01b03831660008181526003602090815260408083209490945583518581529351929391927fddf252ad1be2c89b69c2b068fc378daa952ba7f163c4a11628f55a4df523b3ef9281900390910190a35050565b6000610b8783836114da565b6000610b87836001600160a01b03841661153e565b6113aa838383610f43565b6113b26109d1565b15610f435760405162461bcd60e51b815260040180806020018281038252602a815260200180611892602a913960400191505060405180910390fd5b600061067682611556565b6001600160a01b03811661143e5760405162461bcd60e51b81526004018080602001828103825260268152602001806116df6026913960400191505060405180910390fd5b6008546040516001600160a01b038084169216907f8be0079c531659141344cd1fd0a4f28419497f9722a3daafe3b4186f6b6457e090600090a3600880546001600160a01b0319166001600160a01b0392909216919091179055565b6114a583838361139f565b610f4383838361139f565b6000610b87836001600160a01b03841661155a565b6000610b87836001600160a01b0384166115a4565b8154600090821061151c5760405162461bcd60e51b815260040180806020018281038252602281526020018061166b6022913960400191505060405180910390fd5b82600001828154811061152b57fe5b9060005260206000200154905092915050565b60009081526001919091016020526040902054151590565b5490565b6000611566838361153e565b61159c57508154600181810184556000848152602080822090930184905584548482528286019093526040902091909155610676565b506000610676565b6000818152600183016020526040812054801561166057835460001980830191908101906000908790839081106115d757fe5b90600052602060002001549050808760000184815481106115f457fe5b60009182526020808320909101929092558281526001898101909252604090209084019055865487908061162457fe5b60019003818190600052602060002001600090559055866001016000878152602001908152602001600020600090556001945050505050610676565b600091505061067656fe456e756d657261626c655365743a20696e646578206f7574206f6620626f756e647345524332303a207472616e7366657220746f20746865207a65726f2061646472657373416363657373436f6e74726f6c3a2073656e646572206d75737420626520616e2061646d696e20746f206772616e744f776e61626c653a206e6577206f776e657220697320746865207a65726f206164647265737345524332303a20617070726f766520746f20746865207a65726f206164647265737345524332303a207472616e7366657220616d6f756e7420657863656564732062616c616e6365416363657373436f6e74726f6c3a2073656e646572206d75737420626520616e2061646d696e20746f207265766f6b654d696e746572526f6c653a2063616c6c657220646f6573206e6f74206861766520746865204d696e74657220726f6c6545524332303a207472616e7366657220616d6f756e74206578636565647320616c6c6f77616e63654f776e61626c653a2063616c6c6572206973206e6f7420746865206f776e657245524332303a207472616e736665722066726f6d20746865207a65726f206164647265737345524332303a20617070726f76652066726f6d20746865207a65726f206164647265737345524332303a2064656372656173656420616c6c6f77616e63652062656c6f77207a65726f416363657373436f6e74726f6c3a2063616e206f6e6c792072656e6f756e636520726f6c657320666f722073656c6645524332305061757361626c653a20746f6b656e207472616e73666572207768696c6520706175736564a2646970667358221220b8f55f42395742e1a0d6b4298048fccaf6ece3e60898fb536083511dbd21939364736f6c63430006000033",
  "source": "pragma solidity ^0.6.0;\n\nimport \"./token/Detailed.sol\";\nimport \"./token/Capped.sol\";\n\ncontract Stars is ERC20Detailed, ERC20Capped {\n\n    string constant private NAME = \"SSS\";\n    string constant private SYMBOL = \"SSS\";\n    uint8 constant private DECIMALS = 18;\n    uint256 constant private CAP = 1000000000 * (10 ** uint256(DECIMALS));\n\n    constructor() public\n        ERC20Detailed(NAME, SYMBOL, DECIMALS)\n        ERC20Capped(CAP) {\n    }\n\n    /**\n     * @dev Function to mint tokens\n     * @param to The address that will receive the minted tokens.\n     * @param amount The amount of tokens to mint.\n     * @return A boolean that indicates if the operation was successful.\n     */\n    function mint(address to, uint256 amount) public virtual onlyMinter returns (bool) {\n        ERC20Capped._beforeTokenTransfer(address(0), to, amount);\n        ERC20._mint(to, amount);\n        return true;\n    }\n\n    /**\n     * @dev See {IERC20-transfer}.\n     *\n     * Requirements:\n     *\n     * - `recipient` cannot be the zero address.\n     * - the caller must have a balance of at least `amount`.\n     */\n    function transfer(address to, uint256 amount) public virtual override(ERC20, IERC20) returns (bool) {\n        ERC20Pausable._beforeTokenTransfer(address(0), to, amount);\n\n        ERC20._transfer(_msgSender(), to, amount);\n        return true;\n    }\n\n    /**\n     * @dev See {IERC20-transferFrom}.\n     *\n     * Emits an {Approval} event indicating the updated allowance. This is not\n     * required by the EIP. See the note at the beginning of {ERC20};\n     *\n     * Requirements:\n     * - `sender` and `recipient` cannot be the zero address.\n     * - `sender` must have a balance of at least `amount`.\n     * - the caller must have allowance for `sender`'s tokens of at least\n     * `amount`.\n     */\n    function transferFrom(address sender, address recipient, uint256 amount) public virtual override(ERC20, IERC20) returns (bool) {\n        ERC20Capped._beforeTokenTransfer(sender, recipient, amount);\n\n        _transfer(sender, recipient, amount);\n        _approve(sender, _msgSender(), allowance(sender, _msgSender()).sub(amount, \"ERC20: transfer amount exceeds allowance\"));\n        return true;\n    }\n}\n",
  "sourcePath": "/Applications/projects/nft/newdt/contracts/Stars.sol",
  "compiler": {
    "name": "solc",
    "version": "0.6.0+commit.26b70077.Emscripten.clang"
  },
  "schemaVersion": "3.4.3",
  "updatedAt": "2022-01-29T12:26:38.276Z",
  "devdoc": {
    "methods": {
      "addAdmin(bytes32,address)": {
        "details": "Create and ading new role.",
        "params": {
          "account": "account for adding to the role.",
          "role": "role account."
        }
      },
      "allowance(address,address)": {
        "details": "See {IERC20-allowance}."
      },
      "approve(address,uint256)": {
        "details": "See {IERC20-approve}.     * Requirements:     * - `spender` cannot be the zero address."
      },
      "balanceOf(address)": {
        "details": "See {IERC20-balanceOf}."
      },
      "cap()": {
        "details": "Returns the cap on the token's total supply."
      },
      "decimals()": {
        "details": "Returns the number of decimals used to get its user representation. For example, if `decimals` equals `2`, a balance of `505` tokens should be displayed to a user as `5,05` (`505 / 10 ** 2`).     * Tokens usually opt for a value of 18, imitating the relationship between Ether and Wei.     * NOTE: This information is only used for _display_ purposes: it in no way affects any of the arithmetic of the contract, including {IERC20-balanceOf} and {IERC20-transfer}."
      },
      "decreaseAllowance(address,uint256)": {
        "details": "Atomically decreases the allowance granted to `spender` by the caller.     * This is an alternative to {approve} that can be used as a mitigation for problems described in {IERC20-approve}.     * Emits an {Approval} event indicating the updated allowance.     * Requirements:     * - `spender` cannot be the zero address. - `spender` must have allowance for the caller of at least `subtractedValue`."
      },
      "finalize()": {
        "details": "block adding admins."
      },
      "getRoleAdmin(bytes32)": {
        "details": "Returns the admin role that controls `role`. See {grantRole} and {revokeRole}.     * To change a role's admin, use {_setRoleAdmin}."
      },
      "getRoleMember(bytes32,uint256)": {
        "details": "Returns one of the accounts that have `role`. `index` must be a value between 0 and {getRoleMemberCount}, non-inclusive.     * Role bearers are not sorted in any particular way, and their ordering may change at any point.     * WARNING: When using {getRoleMember} and {getRoleMemberCount}, make sure you perform all queries on the same block. See the following https://forum.openzeppelin.com/t/iterating-over-elements-on-enumerableset-in-openzeppelin-contracts/2296[forum post] for more information."
      },
      "getRoleMemberCount(bytes32)": {
        "details": "Returns the number of accounts that have `role`. Can be used together with {getRoleMember} to enumerate all bearers of a role."
      },
      "grantRole(bytes32,address)": {
        "details": "Grants `role` to `account`.     * If `account` had not been already granted `role`, emits a {RoleGranted} event.     * Requirements:     * - the caller must have ``role``'s admin role."
      },
      "hasRole(bytes32,address)": {
        "details": "Returns `true` if `account` has been granted `role`."
      },
      "increaseAllowance(address,uint256)": {
        "details": "Atomically increases the allowance granted to `spender` by the caller.     * This is an alternative to {approve} that can be used as a mitigation for problems described in {IERC20-approve}.     * Emits an {Approval} event indicating the updated allowance.     * Requirements:     * - `spender` cannot be the zero address."
      },
      "mint(address,uint256)": {
        "details": "Function to mint tokens",
        "params": {
          "amount": "The amount of tokens to mint.",
          "to": "The address that will receive the minted tokens."
        },
        "returns": {
          "_0": "A boolean that indicates if the operation was successful."
        }
      },
      "name()": {
        "details": "Returns the name of the token."
      },
      "owner()": {
        "details": "Returns the address of the current owner."
      },
      "paused()": {
        "details": "Returns true if the contract is paused, and false otherwise."
      },
      "renounceOwnership()": {
        "details": "Leaves the contract without owner. It will not be possible to call `onlyOwner` functions anymore. Can only be called by the current owner.     * NOTE: Renouncing ownership will leave the contract without an owner, thereby removing any functionality that is only available to the owner."
      },
      "renounceRole(bytes32,address)": {
        "details": "Revokes `role` from the calling account.     * Roles are often managed via {grantRole} and {revokeRole}: this function's purpose is to provide a mechanism for accounts to lose their privileges if they are compromised (such as when a trusted device is misplaced).     * If the calling account had been granted `role`, emits a {RoleRevoked} event.     * Requirements:     * - the caller must be `account`."
      },
      "revokeRole(bytes32,address)": {
        "details": "Revokes `role` from `account`.     * If `account` had been granted `role`, emits a {RoleRevoked} event.     * Requirements:     * - the caller must have ``role``'s admin role."
      },
      "symbol()": {
        "details": "Returns the symbol of the token, usually a shorter version of the name."
      },
      "totalSupply()": {
        "details": "See {IERC20-totalSupply}."
      },
      "transfer(address,uint256)": {
        "details": "See {IERC20-transfer}.     * Requirements:     * - `recipient` cannot be the zero address. - the caller must have a balance of at least `amount`."
      },
      "transferFrom(address,address,uint256)": {
        "details": "See {IERC20-transferFrom}.     * Emits an {Approval} event indicating the updated allowance. This is not required by the EIP. See the note at the beginning of {ERC20};     * Requirements: - `sender` and `recipient` cannot be the zero address. - `sender` must have a balance of at least `amount`. - the caller must have allowance for `sender`'s tokens of at least `amount`."
      },
      "transferOwnership(address)": {
        "details": "Transfers ownership of the contract to a new account (`newOwner`). Can only be called by the current owner."
      }
    }
  },
  "userdoc": {
    "methods": {}
  }
}