{
  "contractName": "DelnorteSwap",
  "abi": [
    {
      "inputs": [
        {
          "internalType": "address payable",
          "name": "wallet",
          "type": "address"
        },
        {
          "internalType": "contract IERC20",
          "name": "token",
          "type": "address"
        }
      ],
      "stateMutability": "nonpayable",
      "type": "constructor"
    },
    {
      "anonymous": false,
      "inputs": [],
      "name": "Finalized",
      "type": "event"
    },
    {
      "anonymous": false,
      "inputs": [
        {
          "indexed": true,
          "internalType": "address",
          "name": "previousOwner",
          "type": "address"
        },
        {
          "indexed": true,
          "internalType": "address",
          "name": "newOwner",
          "type": "address"
        }
      ],
      "name": "OwnershipTransferred",
      "type": "event"
    },
    {
      "anonymous": false,
      "inputs": [
        {
          "indexed": false,
          "internalType": "address",
          "name": "account",
          "type": "address"
        }
      ],
      "name": "Paused",
      "type": "event"
    },
    {
      "anonymous": false,
      "inputs": [
        {
          "indexed": true,
          "internalType": "bytes32",
          "name": "role",
          "type": "bytes32"
        },
        {
          "indexed": true,
          "internalType": "address",
          "name": "account",
          "type": "address"
        },
        {
          "indexed": true,
          "internalType": "address",
          "name": "sender",
          "type": "address"
        }
      ],
      "name": "RoleGranted",
      "type": "event"
    },
    {
      "anonymous": false,
      "inputs": [
        {
          "indexed": true,
          "internalType": "bytes32",
          "name": "role",
          "type": "bytes32"
        },
        {
          "indexed": true,
          "internalType": "address",
          "name": "account",
          "type": "address"
        },
        {
          "indexed": true,
          "internalType": "address",
          "name": "sender",
          "type": "address"
        }
      ],
      "name": "RoleRevoked",
      "type": "event"
    },
    {
      "anonymous": false,
      "inputs": [
        {
          "indexed": true,
          "internalType": "address",
          "name": "purchaser",
          "type": "address"
        },
        {
          "indexed": true,
          "internalType": "address",
          "name": "beneficiary",
          "type": "address"
        },
        {
          "indexed": false,
          "internalType": "uint256",
          "name": "value",
          "type": "uint256"
        },
        {
          "indexed": false,
          "internalType": "uint256",
          "name": "amount",
          "type": "uint256"
        }
      ],
      "name": "TokensPurchased",
      "type": "event"
    },
    {
      "anonymous": false,
      "inputs": [
        {
          "indexed": false,
          "internalType": "address",
          "name": "beneficiary",
          "type": "address"
        },
        {
          "indexed": false,
          "internalType": "uint256",
          "name": "amount",
          "type": "uint256"
        }
      ],
      "name": "TokensReleased",
      "type": "event"
    },
    {
      "anonymous": false,
      "inputs": [
        {
          "indexed": false,
          "internalType": "address",
          "name": "beneficiary",
          "type": "address"
        },
        {
          "indexed": false,
          "internalType": "uint256",
          "name": "amount",
          "type": "uint256"
        }
      ],
      "name": "TokensTransfered",
      "type": "event"
    },
    {
      "anonymous": false,
      "inputs": [
        {
          "indexed": false,
          "internalType": "address",
          "name": "beneficiary",
          "type": "address"
        },
        {
          "indexed": false,
          "internalType": "uint256",
          "name": "amount",
          "type": "uint256"
        }
      ],
      "name": "TokensWithdrawn",
      "type": "event"
    },
    {
      "anonymous": false,
      "inputs": [
        {
          "indexed": false,
          "internalType": "address",
          "name": "account",
          "type": "address"
        }
      ],
      "name": "Unpaused",
      "type": "event"
    },
    {
      "anonymous": false,
      "inputs": [
        {
          "indexed": false,
          "internalType": "bool",
          "name": "vested",
          "type": "bool"
        }
      ],
      "name": "VestingToggled",
      "type": "event"
    },
    {
      "inputs": [],
      "name": "DEFAULT_ADMIN_ROLE",
      "outputs": [
        {
          "internalType": "bytes32",
          "name": "",
          "type": "bytes32"
        }
      ],
      "stateMutability": "view",
      "type": "function"
    },
    {
      "inputs": [],
      "name": "MANAGER_ADMIN_ROLE",
      "outputs": [
        {
          "internalType": "bytes32",
          "name": "",
          "type": "bytes32"
        }
      ],
      "stateMutability": "view",
      "type": "function"
    },
    {
      "inputs": [],
      "name": "MANAGER_ROLE",
      "outputs": [
        {
          "internalType": "bytes32",
          "name": "",
          "type": "bytes32"
        }
      ],
      "stateMutability": "view",
      "type": "function"
    },
    {
      "inputs": [
        {
          "internalType": "bytes32",
          "name": "role",
          "type": "bytes32"
        },
        {
          "internalType": "address",
          "name": "account",
          "type": "address"
        }
      ],
      "name": "addAdmin",
      "outputs": [
        {
          "internalType": "bool",
          "name": "",
          "type": "bool"
        }
      ],
      "stateMutability": "nonpayable",
      "type": "function"
    },
    {
      "inputs": [
        {
          "internalType": "address",
          "name": "beneficiary",
          "type": "address"
        }
      ],
      "name": "buyTokens",
      "outputs": [],
      "stateMutability": "payable",
      "type": "function"
    },
    {
      "inputs": [],
      "name": "finalize",
      "outputs": [],
      "stateMutability": "nonpayable",
      "type": "function"
    },
    {
      "inputs": [
        {
          "internalType": "bytes32",
          "name": "role",
          "type": "bytes32"
        }
      ],
      "name": "getRoleAdmin",
      "outputs": [
        {
          "internalType": "bytes32",
          "name": "",
          "type": "bytes32"
        }
      ],
      "stateMutability": "view",
      "type": "function"
    },
    {
      "inputs": [
        {
          "internalType": "bytes32",
          "name": "role",
          "type": "bytes32"
        },
        {
          "internalType": "uint256",
          "name": "index",
          "type": "uint256"
        }
      ],
      "name": "getRoleMember",
      "outputs": [
        {
          "internalType": "address",
          "name": "",
          "type": "address"
        }
      ],
      "stateMutability": "view",
      "type": "function"
    },
    {
      "inputs": [
        {
          "internalType": "bytes32",
          "name": "role",
          "type": "bytes32"
        }
      ],
      "name": "getRoleMemberCount",
      "outputs": [
        {
          "internalType": "uint256",
          "name": "",
          "type": "uint256"
        }
      ],
      "stateMutability": "view",
      "type": "function"
    },
    {
      "inputs": [
        {
          "internalType": "bytes32",
          "name": "role",
          "type": "bytes32"
        },
        {
          "internalType": "address",
          "name": "account",
          "type": "address"
        }
      ],
      "name": "grantRole",
      "outputs": [],
      "stateMutability": "nonpayable",
      "type": "function"
    },
    {
      "inputs": [
        {
          "internalType": "bytes32",
          "name": "role",
          "type": "bytes32"
        },
        {
          "internalType": "address",
          "name": "account",
          "type": "address"
        }
      ],
      "name": "hasRole",
      "outputs": [
        {
          "internalType": "bool",
          "name": "",
          "type": "bool"
        }
      ],
      "stateMutability": "view",
      "type": "function"
    },
    {
      "inputs": [],
      "name": "owner",
      "outputs": [
        {
          "internalType": "address",
          "name": "",
          "type": "address"
        }
      ],
      "stateMutability": "view",
      "type": "function"
    },
    {
      "inputs": [],
      "name": "paused",
      "outputs": [
        {
          "internalType": "bool",
          "name": "",
          "type": "bool"
        }
      ],
      "stateMutability": "view",
      "type": "function"
    },
    {
      "inputs": [],
      "name": "renounceOwnership",
      "outputs": [],
      "stateMutability": "nonpayable",
      "type": "function"
    },
    {
      "inputs": [
        {
          "internalType": "bytes32",
          "name": "role",
          "type": "bytes32"
        },
        {
          "internalType": "address",
          "name": "account",
          "type": "address"
        }
      ],
      "name": "renounceRole",
      "outputs": [],
      "stateMutability": "nonpayable",
      "type": "function"
    },
    {
      "inputs": [
        {
          "internalType": "bytes32",
          "name": "role",
          "type": "bytes32"
        },
        {
          "internalType": "address",
          "name": "account",
          "type": "address"
        }
      ],
      "name": "revokeRole",
      "outputs": [],
      "stateMutability": "nonpayable",
      "type": "function"
    },
    {
      "inputs": [],
      "name": "token",
      "outputs": [
        {
          "internalType": "contract IERC20",
          "name": "",
          "type": "address"
        }
      ],
      "stateMutability": "view",
      "type": "function"
    },
    {
      "inputs": [
        {
          "internalType": "address",
          "name": "newOwner",
          "type": "address"
        }
      ],
      "name": "transferOwnership",
      "outputs": [],
      "stateMutability": "nonpayable",
      "type": "function"
    },
    {
      "inputs": [],
      "name": "wallet",
      "outputs": [
        {
          "internalType": "address payable",
          "name": "",
          "type": "address"
        }
      ],
      "stateMutability": "view",
      "type": "function"
    },
    {
      "inputs": [],
      "name": "weiRaised",
      "outputs": [
        {
          "internalType": "uint256",
          "name": "",
          "type": "uint256"
        }
      ],
      "stateMutability": "view",
      "type": "function"
    },
    {
      "stateMutability": "payable",
      "type": "receive"
    },
    {
      "inputs": [],
      "name": "name",
      "outputs": [
        {
          "internalType": "string",
          "name": "",
          "type": "string"
        }
      ],
      "stateMutability": "view",
      "type": "function"
    },
    {
      "inputs": [],
      "name": "symbol",
      "outputs": [
        {
          "internalType": "string",
          "name": "",
          "type": "string"
        }
      ],
      "stateMutability": "view",
      "type": "function"
    },
    {
      "inputs": [],
      "name": "decimals",
      "outputs": [
        {
          "internalType": "uint8",
          "name": "",
          "type": "uint8"
        }
      ],
      "stateMutability": "view",
      "type": "function"
    },
    {
      "inputs": [],
      "name": "timestamp",
      "outputs": [
        {
          "internalType": "uint256",
          "name": "",
          "type": "uint256"
        }
      ],
      "stateMutability": "view",
      "type": "function"
    },
    {
      "inputs": [],
      "name": "vested",
      "outputs": [
        {
          "internalType": "bool",
          "name": "",
          "type": "bool"
        }
      ],
      "stateMutability": "view",
      "type": "function"
    },
    {
      "inputs": [
        {
          "internalType": "address",
          "name": "owner",
          "type": "address"
        }
      ],
      "name": "timeOf",
      "outputs": [
        {
          "internalType": "uint256",
          "name": "",
          "type": "uint256"
        }
      ],
      "stateMutability": "view",
      "type": "function"
    },
    {
      "inputs": [
        {
          "internalType": "address",
          "name": "owner",
          "type": "address"
        }
      ],
      "name": "balanceOf",
      "outputs": [
        {
          "internalType": "uint256",
          "name": "",
          "type": "uint256"
        }
      ],
      "stateMutability": "view",
      "type": "function"
    },
    {
      "inputs": [
        {
          "internalType": "address",
          "name": "owner",
          "type": "address"
        }
      ],
      "name": "releasedOf",
      "outputs": [
        {
          "internalType": "uint256",
          "name": "",
          "type": "uint256"
        }
      ],
      "stateMutability": "view",
      "type": "function"
    },
    {
      "inputs": [
        {
          "internalType": "uint256",
          "name": "id",
          "type": "uint256"
        },
        {
          "internalType": "address",
          "name": "owner",
          "type": "address"
        }
      ],
      "name": "balanceOfStage",
      "outputs": [
        {
          "internalType": "uint256",
          "name": "",
          "type": "uint256"
        }
      ],
      "stateMutability": "view",
      "type": "function"
    },
    {
      "inputs": [
        {
          "internalType": "uint256",
          "name": "id",
          "type": "uint256"
        },
        {
          "internalType": "address",
          "name": "owner",
          "type": "address"
        }
      ],
      "name": "releasedOfStage",
      "outputs": [
        {
          "internalType": "uint256",
          "name": "",
          "type": "uint256"
        }
      ],
      "stateMutability": "view",
      "type": "function"
    },
    {
      "inputs": [],
      "name": "getCalendarLength",
      "outputs": [
        {
          "internalType": "uint256",
          "name": "",
          "type": "uint256"
        }
      ],
      "stateMutability": "view",
      "type": "function"
    },
    {
      "inputs": [
        {
          "internalType": "uint256",
          "name": "id",
          "type": "uint256"
        }
      ],
      "name": "getCalendar",
      "outputs": [
        {
          "internalType": "uint256",
          "name": "",
          "type": "uint256"
        },
        {
          "internalType": "uint256[2]",
          "name": "",
          "type": "uint256[2]"
        }
      ],
      "stateMutability": "view",
      "type": "function"
    },
    {
      "inputs": [
        {
          "internalType": "uint256",
          "name": "id",
          "type": "uint256"
        }
      ],
      "name": "getStage",
      "outputs": [
        {
          "internalType": "uint256",
          "name": "",
          "type": "uint256"
        },
        {
          "internalType": "uint256",
          "name": "",
          "type": "uint256"
        },
        {
          "internalType": "uint256",
          "name": "",
          "type": "uint256"
        }
      ],
      "stateMutability": "view",
      "type": "function"
    },
    {
      "inputs": [],
      "name": "getCurrentStage",
      "outputs": [
        {
          "internalType": "uint256",
          "name": "",
          "type": "uint256"
        }
      ],
      "stateMutability": "view",
      "type": "function"
    },
    {
      "inputs": [
        {
          "internalType": "uint256",
          "name": "stage",
          "type": "uint256"
        }
      ],
      "name": "setCurrentStage",
      "outputs": [
        {
          "internalType": "bool",
          "name": "",
          "type": "bool"
        }
      ],
      "stateMutability": "nonpayable",
      "type": "function"
    },
    {
      "inputs": [
        {
          "internalType": "bool",
          "name": "value",
          "type": "bool"
        }
      ],
      "name": "toggleVesting",
      "outputs": [],
      "stateMutability": "nonpayable",
      "type": "function"
    },
    {
      "inputs": [
        {
          "internalType": "address",
          "name": "to",
          "type": "address"
        },
        {
          "internalType": "uint256",
          "name": "value",
          "type": "uint256"
        }
      ],
      "name": "transferTokens",
      "outputs": [
        {
          "internalType": "bool",
          "name": "",
          "type": "bool"
        }
      ],
      "stateMutability": "nonpayable",
      "type": "function"
    },
    {
      "inputs": [
        {
          "internalType": "address",
          "name": "beneficiary",
          "type": "address"
        }
      ],
      "name": "releasableAmount",
      "outputs": [
        {
          "internalType": "uint256",
          "name": "",
          "type": "uint256"
        }
      ],
      "stateMutability": "view",
      "type": "function"
    },
    {
      "inputs": [
        {
          "internalType": "address",
          "name": "beneficiary",
          "type": "address"
        }
      ],
      "name": "withdrawTokens",
      "outputs": [],
      "stateMutability": "nonpayable",
      "type": "function"
    },
    {
      "inputs": [
        {
          "internalType": "address",
          "name": "beneficiary",
          "type": "address"
        }
      ],
      "name": "releaseTokens",
      "outputs": [],
      "stateMutability": "nonpayable",
      "type": "function"
    },
    {
      "inputs": [
        {
          "internalType": "uint256",
          "name": "supply",
          "type": "uint256"
        },
        {
          "internalType": "uint256",
          "name": "cap",
          "type": "uint256"
        },
        {
          "internalType": "uint256",
          "name": "rate",
          "type": "uint256"
        }
      ],
      "name": "addStage",
      "outputs": [
        {
          "internalType": "bool",
          "name": "",
          "type": "bool"
        }
      ],
      "stateMutability": "nonpayable",
      "type": "function"
    },
    {
      "inputs": [
        {
          "internalType": "uint256",
          "name": "time",
          "type": "uint256"
        },
        {
          "internalType": "uint256",
          "name": "ratesFirst",
          "type": "uint256"
        },
        {
          "internalType": "uint256",
          "name": "ratesSecond",
          "type": "uint256"
        }
      ],
      "name": "addCalendar",
      "outputs": [
        {
          "internalType": "bool",
          "name": "",
          "type": "bool"
        }
      ],
      "stateMutability": "nonpayable",
      "type": "function"
    },
    {
      "inputs": [
        {
          "internalType": "uint8",
          "name": "id",
          "type": "uint8"
        },
        {
          "internalType": "uint256",
          "name": "supply",
          "type": "uint256"
        },
        {
          "internalType": "uint256",
          "name": "cap",
          "type": "uint256"
        },
        {
          "internalType": "uint256",
          "name": "rate",
          "type": "uint256"
        }
      ],
      "name": "changeStage",
      "outputs": [
        {
          "internalType": "bool",
          "name": "",
          "type": "bool"
        }
      ],
      "stateMutability": "nonpayable",
      "type": "function"
    },
    {
      "inputs": [
        {
          "internalType": "uint8",
          "name": "id",
          "type": "uint8"
        },
        {
          "internalType": "uint256",
          "name": "time",
          "type": "uint256"
        },
        {
          "internalType": "uint256",
          "name": "rateFirst",
          "type": "uint256"
        },
        {
          "internalType": "uint256",
          "name": "rateSecond",
          "type": "uint256"
        }
      ],
      "name": "changeCalendar",
      "outputs": [
        {
          "internalType": "bool",
          "name": "",
          "type": "bool"
        }
      ],
      "stateMutability": "nonpayable",
      "type": "function"
    },
    {
      "inputs": [],
      "name": "pause",
      "outputs": [
        {
          "internalType": "bool",
          "name": "",
          "type": "bool"
        }
      ],
      "stateMutability": "nonpayable",
      "type": "function"
    },
    {
      "inputs": [],
      "name": "unpause",
      "outputs": [
        {
          "internalType": "bool",
          "name": "",
          "type": "bool"
        }
      ],
      "stateMutability": "nonpayable",
      "type": "function"
    }
  ],
  "bytecode": "0x60806040526000600560146101000a81548160ff0219169083151502179055506000600a556001600b60006101000a81548160ff0219169083151502179055503480156200004c57600080fd5b50604051620056a0380380620056a0833981810160405260408110156200007257600080fd5b810190808051906020019092919080519060200190929190505050818160016000806101000a81548160ff021916908315150217905550600073ffffffffffffffffffffffffffffffffffffffff168273ffffffffffffffffffffffffffffffffffffffff16141562000131576040517f08c379a00000000000000000000000000000000000000000000000000000000081526004018080602001828103825260258152602001806200567b6025913960400191505060405180910390fd5b600073ffffffffffffffffffffffffffffffffffffffff168173ffffffffffffffffffffffffffffffffffffffff161415620001b9576040517f08c379a0000000000000000000000000000000000000000000000000000000008152600401808060200182810382526024815260200180620056576024913960400191505060405180910390fd5b81600160006101000a81548173ffffffffffffffffffffffffffffffffffffffff021916908373ffffffffffffffffffffffffffffffffffffffff16021790555080600060016101000a81548173ffffffffffffffffffffffffffffffffffffffff021916908373ffffffffffffffffffffffffffffffffffffffff16021790555050506000600360006101000a81548160ff02191690831515021790555060006200026a620005f560201b60201c565b905080600560006101000a81548173ffffffffffffffffffffffffffffffffffffffff021916908373ffffffffffffffffffffffffffffffffffffffff1602179055508073ffffffffffffffffffffffffffffffffffffffff16600073ffffffffffffffffffffffffffffffffffffffff167f8be0079c531659141344cd1fd0a4f28419497f9722a3daafe3b4186f6b6457e060405160405180910390a3506200038560405180807f4d414e414745525f524f4c450000000000000000000000000000000000000000815250600c019050604051809103902060405180807f4d414e414745525f41444d494e5f524f4c45000000000000000000000000000081525060120190506040518091039020620005fd60201b60201c565b60096040518060600160405280600081526020016a021165458500521280000081526020016508a88c37e0008152509080600181540180825580915050600190039060005260206000209060050201600090919091909150600082015181600001556020820151816001015560408201518160020155505060096040518060600160405280600081526020016a02c1dc581118dc363400008152602001650cff265fb4008152509080600181540180825580915050600190039060005260206000209060050201600090919091909150600082015181600001556020820151816001015560408201518160020155505060096040518060600160405280600081526020016a0160ee32f8e7c7eecc0000815260200165137d8f899c008152509080600181540180825580915050600190039060005260206000209060050201600090919091909150600082015181600001556020820151816001015560408201518160020155505060086040518060400160405280636195632781526020016040518060400160405280601e8152602001601e8152508152509080600181540180825580915050600190039060005260206000209060030201600090919091909150600082015181600001556020820151816001019060026200056a9291906200061c565b50505060086040518060400160405280636195713781526020016040518060400160405280604681526020016046815250815250908060018154018082558091505060019003906000526020600020906003020160009091909190915060008201518160000155602082015181600101906002620005ea9291906200061c565b505050505062000689565b600033905090565b8060046000848152602001908152602001600020600201819055505050565b82600281019282156200064e579160200282015b828111156200064d57825182559160200191906001019062000630565b5b5090506200065d919062000661565b5090565b6200068691905b808211156200068257600081600090555060010162000668565b5090565b90565b614fbe80620006996000396000f3fe6080604052600436106102815760003560e01c806387b0be481161014f578063d0b48509116100c1578063ec8ac4d81161007a578063ec8ac4d814610fa6578063ed0ad32114610fea578063eedbe31d1461104f578063f2fde38b1461107a578063fc0c546a146110cb578063fea5657c1461112257610288565b8063d0b4850914610dba578063d13782a714610e1f578063d547741f14610e86578063eab98bf314610ee1578063ec23bc8a14610f50578063ec87621c14610f7b57610288565b806395d89b411161011357806395d89b4114610b9e578063a217fddf14610c2e578063b80777ea14610c59578063bbd4630314610c84578063bec3fa1714610cf8578063ca15c87314610d6b57610288565b806387b0be481461098f5780638da5cb5b146109e05780638ec0a8a914610a375780639010d07c14610aa657806391d1485414610b2b57610288565b806349df728c116101f3578063687fe91a116101ac578063687fe91a146107d457806370a0823114610852578063715018a6146108b75780637cfffb57146108ce57806383e3416b146109355780638456cb591461096057610288565b806349df728c146105ff5780634b1e0057146106505780634bb278f3146106c4578063521eb273146106db5780635c975abb146107325780636419bcdb1461076157610288565b8063313ce56711610245578063313ce5671461048957806336568abe146104ba57806338c67b73146105155780633f4ba83a146105685780634042b66f1461059757806342ddd4f6146105c257610288565b806306fdde031461028d5780631726cbc81461031d578063248a9ca3146103825780632e325020146103d15780632f2ff15d1461042e57610288565b3661028857005b600080fd5b34801561029957600080fd5b506102a2611151565b6040518080602001828103825283818151815260200191508051906020019080838360005b838110156102e25780820151818401526020810190506102c7565b50505050905090810190601f16801561030f5780820380516001836020036101000a031916815260200191505b509250505060405180910390f35b34801561032957600080fd5b5061036c6004803603602081101561034057600080fd5b81019080803573ffffffffffffffffffffffffffffffffffffffff16906020019092919050505061129e565b6040518082815260200191505060405180910390f35b34801561038e57600080fd5b506103bb600480360360208110156103a557600080fd5b8101908080359060200190929190505050611637565b6040518082815260200191505060405180910390f35b3480156103dd57600080fd5b5061040a600480360360208110156103f457600080fd5b8101908080359060200190929190505050611657565b60405180848152602001838152602001828152602001935050505060405180910390f35b34801561043a57600080fd5b506104876004803603604081101561045157600080fd5b8101908080359060200190929190803573ffffffffffffffffffffffffffffffffffffffff1690602001909291905050506116c7565b005b34801561049557600080fd5b5061049e611751565b604051808260ff1660ff16815260200191505060405180910390f35b3480156104c657600080fd5b50610513600480360360408110156104dd57600080fd5b8101908080359060200190929190803573ffffffffffffffffffffffffffffffffffffffff1690602001909291905050506117e0565b005b34801561052157600080fd5b5061054e6004803603602081101561053857600080fd5b8101908080359060200190929190505050611879565b604051808215151515815260200191505060405180910390f35b34801561057457600080fd5b5061057d61197c565b604051808215151515815260200191505060405180910390f35b3480156105a357600080fd5b506105ac611aa3565b6040518082815260200191505060405180910390f35b3480156105ce57600080fd5b506105fd600480360360208110156105e557600080fd5b81019080803515159060200190929190505050611aad565b005b34801561060b57600080fd5b5061064e6004803603602081101561062257600080fd5b81019080803573ffffffffffffffffffffffffffffffffffffffff169060200190929190505050611b99565b005b34801561065c57600080fd5b506106aa6004803603608081101561067357600080fd5b81019080803560ff169060200190929190803590602001909291908035906020019092919080359060200190929190505050611de0565b604051808215151515815260200191505060405180910390f35b3480156106d057600080fd5b506106d9611f0e565b005b3480156106e757600080fd5b506106f06120a4565b604051808273ffffffffffffffffffffffffffffffffffffffff1673ffffffffffffffffffffffffffffffffffffffff16815260200191505060405180910390f35b34801561073e57600080fd5b506107476120ce565b604051808215151515815260200191505060405180910390f35b34801561076d57600080fd5b506107ba6004803603604081101561078457600080fd5b8101908080359060200190929190803573ffffffffffffffffffffffffffffffffffffffff1690602001909291905050506120e5565b604051808215151515815260200191505060405180910390f35b3480156107e057600080fd5b5061080d600480360360208110156107f757600080fd5b8101908080359060200190929190505050612248565b6040518083815260200182600260200280838360005b8381101561083e578082015181840152602081019050610823565b505050509050019250505060405180910390f35b34801561085e57600080fd5b506108a16004803603602081101561087557600080fd5b81019080803573ffffffffffffffffffffffffffffffffffffffff1690602001909291905050506122e8565b6040518082815260200191505060405180910390f35b3480156108c357600080fd5b506108cc612389565b005b3480156108da57600080fd5b5061091b600480360360608110156108f157600080fd5b81019080803590602001909291908035906020019092919080359060200190929190505050612514565b604051808215151515815260200191505060405180910390f35b34801561094157600080fd5b5061094a612686565b6040518082815260200191505060405180910390f35b34801561096c57600080fd5b506109756126bf565b604051808215151515815260200191505060405180910390f35b34801561099b57600080fd5b506109de600480360360208110156109b257600080fd5b81019080803573ffffffffffffffffffffffffffffffffffffffff1690602001909291905050506127e7565b005b3480156109ec57600080fd5b506109f5612e66565b604051808273ffffffffffffffffffffffffffffffffffffffff1673ffffffffffffffffffffffffffffffffffffffff16815260200191505060405180910390f35b348015610a4357600080fd5b50610a9060048036036040811015610a5a57600080fd5b8101908080359060200190929190803573ffffffffffffffffffffffffffffffffffffffff169060200190929190505050612e90565b6040518082815260200191505060405180910390f35b348015610ab257600080fd5b50610ae960048036036040811015610ac957600080fd5b810190808035906020019092919080359060200190929190505050612ef6565b604051808273ffffffffffffffffffffffffffffffffffffffff1673ffffffffffffffffffffffffffffffffffffffff16815260200191505060405180910390f35b348015610b3757600080fd5b50610b8460048036036040811015610b4e57600080fd5b8101908080359060200190929190803573ffffffffffffffffffffffffffffffffffffffff169060200190929190505050612f28565b604051808215151515815260200191505060405180910390f35b348015610baa57600080fd5b50610bb3612f5a565b6040518080602001828103825283818151815260200191508051906020019080838360005b83811015610bf3578082015181840152602081019050610bd8565b50505050905090810190601f168015610c205780820380516001836020036101000a031916815260200191505b509250505060405180910390f35b348015610c3a57600080fd5b50610c436130a7565b6040518082815260200191505060405180910390f35b348015610c6557600080fd5b50610c6e6130ae565b6040518082815260200191505060405180910390f35b348015610c9057600080fd5b50610cde60048036036080811015610ca757600080fd5b81019080803560ff1690602001909291908035906020019092919080359060200190929190803590602001909291905050506130b6565b604051808215151515815260200191505060405180910390f35b348015610d0457600080fd5b50610d5160048036036040811015610d1b57600080fd5b81019080803573ffffffffffffffffffffffffffffffffffffffff169060200190929190803590602001909291905050506131ca565b604051808215151515815260200191505060405180910390f35b348015610d7757600080fd5b50610da460048036036020811015610d8e57600080fd5b81019080803590602001909291905050506135ab565b6040518082815260200191505060405180910390f35b348015610dc657600080fd5b50610e0960048036036020811015610ddd57600080fd5b81019080803573ffffffffffffffffffffffffffffffffffffffff1690602001909291905050506135d2565b6040518082815260200191505060405180910390f35b348015610e2b57600080fd5b50610e6c60048036036060811015610e4257600080fd5b8101908080359060200190929190803590602001909291908035906020019092919050505061361b565b604051808215151515815260200191505060405180910390f35b348015610e9257600080fd5b50610edf60048036036040811015610ea957600080fd5b8101908080359060200190929190803573ffffffffffffffffffffffffffffffffffffffff1690602001909291905050506137d4565b005b348015610eed57600080fd5b50610f3a60048036036040811015610f0457600080fd5b8101908080359060200190929190803573ffffffffffffffffffffffffffffffffffffffff16906020019092919050505061385e565b6040518082815260200191505060405180910390f35b348015610f5c57600080fd5b50610f656138c4565b6040518082815260200191505060405180910390f35b348015610f8757600080fd5b50610f906138d1565b6040518082815260200191505060405180910390f35b610fe860048036036020811015610fbc57600080fd5b81019080803573ffffffffffffffffffffffffffffffffffffffff16906020019092919050505061390a565b005b348015610ff657600080fd5b506110396004803603602081101561100d57600080fd5b81019080803573ffffffffffffffffffffffffffffffffffffffff169060200190929190505050613a8e565b6040518082815260200191505060405180910390f35b34801561105b57600080fd5b50611064613b2f565b6040518082815260200191505060405180910390f35b34801561108657600080fd5b506110c96004803603602081101561109d57600080fd5b81019080803573ffffffffffffffffffffffffffffffffffffffff169060200190929190505050613b39565b005b3480156110d757600080fd5b506110e0613c0f565b604051808273ffffffffffffffffffffffffffffffffffffffff1673ffffffffffffffffffffffffffffffffffffffff16815260200191505060405180910390f35b34801561112e57600080fd5b50611137613c38565b604051808215151515815260200191505060405180910390f35b606061115b613c0f565b73ffffffffffffffffffffffffffffffffffffffff166306fdde036040518163ffffffff1660e01b815260040160006040518083038186803b1580156111a057600080fd5b505afa1580156111b4573d6000803e3d6000fd5b505050506040513d6000823e3d601f19601f8201168201806040525060208110156111de57600080fd5b81019080805160405193929190846401000000008211156111fe57600080fd5b8382019150602082018581111561121457600080fd5b825186600182028301116401000000008211171561123157600080fd5b8083526020830192505050908051906020019080838360005b8381101561126557808201518184015260208101905061124a565b50505050905090810190601f1680156112925780820380516001836020036101000a031916815260200191505b50604052505050905090565b60006112a8614b87565b6112b0614ba7565b6040518060400160405280600081526020016000815250905060008090505b60088054905081101561146057600881815481106112e957fe5b90600052602060002090600302016040518060400160405290816000820154815260200160018201600280602002604051908101604052809291908260028015611348576020028201915b815481526020019060010190808311611334575b5050505050815250509250826000015142111561144e57600760008673ffffffffffffffffffffffffffffffffffffffff1673ffffffffffffffffffffffffffffffffffffffff1681526020019081526020016000205483600001511115611449576113e383602001516000600281106113be57fe5b6020020151836000600281106113d057fe5b6020020151613c4f90919063ffffffff16565b826000600281106113f057fe5b602002018181525050611432836020015160016002811061140d57fe5b60200201518360016002811061141f57fe5b6020020151613c4f90919063ffffffff16565b8260016002811061143f57fe5b6020020181815250505b611453565b611460565b80806001019150506112cf565b5060008090506000809050600080905060008090505b6009805490508110156116295761154c6009828154811061149357fe5b906000526020600020906005020160040160008a73ffffffffffffffffffffffffffffffffffffffff1673ffffffffffffffffffffffffffffffffffffffff16815260200190815260200160002054600983815481106114ef57fe5b906000526020600020906005020160030160008b73ffffffffffffffffffffffffffffffffffffffff1673ffffffffffffffffffffffffffffffffffffffff16815260200190815260200160002054613cd790919063ffffffff16565b9150600085826002811061155c57fe5b602002015111801561156e5750600082115b1561161c5761160460646115f687846002811061158757fe5b60200201516009858154811061159957fe5b906000526020600020906005020160030160008d73ffffffffffffffffffffffffffffffffffffffff1673ffffffffffffffffffffffffffffffffffffffff16815260200190815260200160002054613d2190919063ffffffff16565b613da790919063ffffffff16565b92506116198385613c4f90919063ffffffff16565b93505b8080600101915050611476565b508295505050505050919050565b600060046000838152602001908152602001600020600201549050919050565b6000806000611664614bc9565b6009858154811061167157fe5b906000526020600020906005020160405180606001604052908160008201548152602001600182015481526020016002820154815250509050806000015181602001518260400151935093509350509193909250565b6116ee60046000848152602001908152602001600020600201546116e9613df1565b612f28565b611743576040517f08c379a000000000000000000000000000000000000000000000000000000000815260040180806020018281038252602f815260200180614cbf602f913960400191505060405180910390fd5b61174d8282613df9565b5050565b600061175b613c0f565b73ffffffffffffffffffffffffffffffffffffffff1663313ce5676040518163ffffffff1660e01b815260040160206040518083038186803b1580156117a057600080fd5b505afa1580156117b4573d6000803e3d6000fd5b505050506040513d60208110156117ca57600080fd5b8101908080519060200190929190505050905090565b6117e8613df1565b73ffffffffffffffffffffffffffffffffffffffff168173ffffffffffffffffffffffffffffffffffffffff161461186b576040517f08c379a000000000000000000000000000000000000000000000000000000000815260040180806020018281038252602f815260200180614f2e602f913960400191505060405180910390fd5b6118758282613e8d565b5050565b60006118ba60405180807f4d414e414745525f524f4c450000000000000000000000000000000000000000815250600c019050604051809103902033612f28565b61190f576040517f08c379a0000000000000000000000000000000000000000000000000000000008152600401808060200182810382526032815260200180614e1b6032913960400191505060405180910390fd5b600980549050821061196c576040517f08c379a0000000000000000000000000000000000000000000000000000000008152600401808060200182810382526039815260200180614ecb6039913960400191505060405180910390fd5b81600a8190555060019050919050565b60006119bd60405180807f4d414e414745525f524f4c450000000000000000000000000000000000000000815250600c019050604051809103902033612f28565b611a12576040517f08c379a0000000000000000000000000000000000000000000000000000000008152600401808060200182810382526032815260200180614e1b6032913960400191505060405180910390fd5b600360009054906101000a900460ff16611a94576040517f08c379a00000000000000000000000000000000000000000000000000000000081526004018080602001828103825260148152602001807f5061757361626c653a206e6f742070617573656400000000000000000000000081525060200191505060405180910390fd5b611a9c613f21565b6001905090565b6000600254905090565b611aec60405180807f4d414e414745525f524f4c450000000000000000000000000000000000000000815250600c019050604051809103902033612f28565b611b41576040517f08c379a0000000000000000000000000000000000000000000000000000000008152600401808060200182810382526032815260200180614e1b6032913960400191505060405180910390fd5b80600b60006101000a81548160ff0219169083151502179055507f192f7e2cab543d06b1f180f41a0e6ab06b8e4efbbe52a5dce95f44039768eeda81604051808215151515815260200191505060405180910390a150565b600b60009054906101000a900460ff1615611bff576040517f08c379a000000000000000000000000000000000000000000000000000000000815260040180806020018281038252602b815260200180614d6b602b913960400191505060405180910390fd5b6000611c0a826122e8565b90506000611c1783613a8e565b90506000611c2e8284613cd790919063ffffffff16565b905060008111611c89576040517f08c379a0000000000000000000000000000000000000000000000000000000008152600401808060200182810382526034815260200180614d966034913960400191505060405180910390fd5b60008090505b600980549050811015611d645760098181548110611ca957fe5b906000526020600020906005020160030160008673ffffffffffffffffffffffffffffffffffffffff1673ffffffffffffffffffffffffffffffffffffffff1681526020019081526020016000205460098281548110611d0557fe5b906000526020600020906005020160040160008773ffffffffffffffffffffffffffffffffffffffff1673ffffffffffffffffffffffffffffffffffffffff168152602001908152602001600020819055508080600101915050611c8f565b50611d6f848261402a565b7f6352c5382c4a4578e712449ca65e83cdb392d045dfcf1cad9615189db2da244b8482604051808373ffffffffffffffffffffffffffffffffffffffff1673ffffffffffffffffffffffffffffffffffffffff1681526020018281526020019250505060405180910390a150505050565b6000611e2160405180807f4d414e414745525f524f4c450000000000000000000000000000000000000000815250600c019050604051809103902033612f28565b611e76576040517f08c379a0000000000000000000000000000000000000000000000000000000008152600401808060200182810382526032815260200180614e1b6032913960400191505060405180910390fd5b8360088660ff1681548110611e8757fe5b9060005260206000209060030201600001819055508260088660ff1681548110611ead57fe5b9060005260206000209060030201600101600060028110611eca57fe5b01819055508160088660ff1681548110611ee057fe5b9060005260206000209060030201600101600160028110611efd57fe5b018190555060019050949350505050565b611f16613df1565b73ffffffffffffffffffffffffffffffffffffffff16600560009054906101000a900473ffffffffffffffffffffffffffffffffffffffff1673ffffffffffffffffffffffffffffffffffffffff1614611fd8576040517f08c379a00000000000000000000000000000000000000000000000000000000081526004018080602001828103825260208152602001807f4f776e61626c653a2063616c6c6572206973206e6f7420746865206f776e657281525060200191505060405180910390fd5b600560149054906101000a900460ff161561205b576040517f08c379a000000000000000000000000000000000000000000000000000000000815260040180806020018281038252601e8152602001807f4d616e61676572526f6c653a20616c72656164792066696e616c697a6564000081525060200191505060405180910390fd5b6001600560146101000a81548160ff0219169083151502179055507f6823b073d48d6e3a7d385eeb601452d680e74bb46afe3255a7d778f3a9b1768160405160405180910390a1565b6000600160009054906101000a900473ffffffffffffffffffffffffffffffffffffffff16905090565b6000600360009054906101000a900460ff16905090565b60006120ef613df1565b73ffffffffffffffffffffffffffffffffffffffff16600560009054906101000a900473ffffffffffffffffffffffffffffffffffffffff1673ffffffffffffffffffffffffffffffffffffffff16146121b1576040517f08c379a00000000000000000000000000000000000000000000000000000000081526004018080602001828103825260208152602001807f4f776e61626c653a2063616c6c6572206973206e6f7420746865206f776e657281525060200191505060405180910390fd5b600560149054906101000a900460ff1615612234576040517f08c379a000000000000000000000000000000000000000000000000000000000815260040180806020018281038252601e8152602001807f4d616e61676572526f6c653a20616c72656164792066696e616c697a6564000081525060200191505060405180910390fd5b61223e8383614113565b6001905092915050565b6000612252614ba7565b61225a614b87565b6008848154811061226757fe5b906000526020600020906003020160405180604001604052908160008201548152602001600182016002806020026040519081016040528092919082600280156122c6576020028201915b8154815260200190600101908083116122b2575b5050505050815250509050806000015181602001518090509250925050915091565b6000806000905060008090505b60098054905081101561237f576123706009828154811061231257fe5b906000526020600020906005020160030160008673ffffffffffffffffffffffffffffffffffffffff1673ffffffffffffffffffffffffffffffffffffffff1681526020019081526020016000205483613c4f90919063ffffffff16565b915080806001019150506122f5565b5080915050919050565b612391613df1565b73ffffffffffffffffffffffffffffffffffffffff16600560009054906101000a900473ffffffffffffffffffffffffffffffffffffffff1673ffffffffffffffffffffffffffffffffffffffff1614612453576040517f08c379a00000000000000000000000000000000000000000000000000000000081526004018080602001828103825260208152602001807f4f776e61626c653a2063616c6c6572206973206e6f7420746865206f776e657281525060200191505060405180910390fd5b600073ffffffffffffffffffffffffffffffffffffffff16600560009054906101000a900473ffffffffffffffffffffffffffffffffffffffff1673ffffffffffffffffffffffffffffffffffffffff167f8be0079c531659141344cd1fd0a4f28419497f9722a3daafe3b4186f6b6457e060405160405180910390a36000600560006101000a81548173ffffffffffffffffffffffffffffffffffffffff021916908373ffffffffffffffffffffffffffffffffffffffff160217905550565b600061255560405180807f4d414e414745525f524f4c450000000000000000000000000000000000000000815250600c019050604051809103902033612f28565b6125aa576040517f08c379a0000000000000000000000000000000000000000000000000000000008152600401808060200182810382526032815260200180614e1b6032913960400191505060405180910390fd5b60008411612603576040517f08c379a000000000000000000000000000000000000000000000000000000000815260040180806020018281038252602c815260200180614d3f602c913960400191505060405180910390fd5b60086040518060400160405280868152602001604051806040016040528087815260200186815250815250908060018154018082558091505060019003906000526020600020906003020160009091909190915060008201518160000155602082015181600101906002612678929190614bea565b505050600190509392505050565b60405180807f4d414e414745525f41444d494e5f524f4c4500000000000000000000000000008152506012019050604051809103902081565b600061270060405180807f4d414e414745525f524f4c450000000000000000000000000000000000000000815250600c019050604051809103902033612f28565b612755576040517f08c379a0000000000000000000000000000000000000000000000000000000008152600401808060200182810382526032815260200180614e1b6032913960400191505060405180910390fd5b600360009054906101000a900460ff16156127d8576040517f08c379a00000000000000000000000000000000000000000000000000000000081526004018080602001828103825260108152602001807f5061757361626c653a207061757365640000000000000000000000000000000081525060200191505060405180910390fd5b6127e0614121565b6001905090565b6127ef614b87565b6127f7614ba7565b6040518060400160405280600081526020016000815250905060008090505b6008805490508110156129a6576008818154811061283057fe5b9060005260206000209060030201604051806040016040529081600082015481526020016001820160028060200260405190810160405280929190826002801561288f576020028201915b81548152602001906001019080831161287b575b50505050508152505092508260000151421061299457600760008573ffffffffffffffffffffffffffffffffffffffff1673ffffffffffffffffffffffffffffffffffffffff168152602001908152602001600020548360000151111561298f57612929836020015160006002811061290457fe5b60200201518360006002811061291657fe5b6020020151613c4f90919063ffffffff16565b8260006002811061293657fe5b602002018181525050612978836020015160016002811061295357fe5b60200201518360016002811061296557fe5b6020020151613c4f90919063ffffffff16565b8260016002811061298557fe5b6020020181815250505b612999565b6129a6565b8080600101915050612816565b5060008090506000809050600080905060008090505b600980549050811015612d4b57612a92600982815481106129d957fe5b906000526020600020906005020160040160008973ffffffffffffffffffffffffffffffffffffffff1673ffffffffffffffffffffffffffffffffffffffff1681526020019081526020016000205460098381548110612a3557fe5b906000526020600020906005020160030160008a73ffffffffffffffffffffffffffffffffffffffff1673ffffffffffffffffffffffffffffffffffffffff16815260200190815260200160002054613cd790919063ffffffff16565b91506000858260028110612aa257fe5b6020020151118015612ab45750600082115b15612d3e57612b4a6064612b3c878460028110612acd57fe5b602002015160098581548110612adf57fe5b906000526020600020906005020160030160008c73ffffffffffffffffffffffffffffffffffffffff1673ffffffffffffffffffffffffffffffffffffffff16815260200190815260200160002054613d2190919063ffffffff16565b613da790919063ffffffff16565b9250612bba8360098381548110612b5d57fe5b906000526020600020906005020160040160008a73ffffffffffffffffffffffffffffffffffffffff1673ffffffffffffffffffffffffffffffffffffffff16815260200190815260200160002054613c4f90919063ffffffff16565b60098281548110612bc757fe5b906000526020600020906005020160040160008973ffffffffffffffffffffffffffffffffffffffff1673ffffffffffffffffffffffffffffffffffffffff16815260200190815260200160002081905550612c2c8385613c4f90919063ffffffff16565b935060098181548110612c3b57fe5b906000526020600020906005020160030160008873ffffffffffffffffffffffffffffffffffffffff1673ffffffffffffffffffffffffffffffffffffffff1681526020019081526020016000205460098281548110612c9757fe5b906000526020600020906005020160040160008973ffffffffffffffffffffffffffffffffffffffff1673ffffffffffffffffffffffffffffffffffffffff168152602001908152602001600020541115612d3d576040517f08c379a000000000000000000000000000000000000000000000000000000000815260040180806020018281038252602b815260200180614cee602b913960400191505060405180910390fd5b5b80806001019150506129bc565b5060008311612da5576040517f08c379a0000000000000000000000000000000000000000000000000000000008152600401808060200182810382526034815260200180614d966034913960400191505060405180910390fd5b42600760008873ffffffffffffffffffffffffffffffffffffffff1673ffffffffffffffffffffffffffffffffffffffff16815260200190815260200160002081905550612df3868461402a565b7fc7798891864187665ac6dd119286e44ec13f014527aeeb2b8eb3fd413df931798684604051808373ffffffffffffffffffffffffffffffffffffffff1673ffffffffffffffffffffffffffffffffffffffff1681526020018281526020019250505060405180910390a1505050505050565b6000600560009054906101000a900473ffffffffffffffffffffffffffffffffffffffff16905090565b600060098381548110612e9f57fe5b906000526020600020906005020160040160008373ffffffffffffffffffffffffffffffffffffffff1673ffffffffffffffffffffffffffffffffffffffff16815260200190815260200160002054905092915050565b6000612f20826004600086815260200190815260200160002060000161422b90919063ffffffff16565b905092915050565b6000612f52826004600086815260200190815260200160002060000161424590919063ffffffff16565b905092915050565b6060612f64613c0f565b73ffffffffffffffffffffffffffffffffffffffff166395d89b416040518163ffffffff1660e01b815260040160006040518083038186803b158015612fa957600080fd5b505afa158015612fbd573d6000803e3d6000fd5b505050506040513d6000823e3d601f19601f820116820180604052506020811015612fe757600080fd5b810190808051604051939291908464010000000082111561300757600080fd5b8382019150602082018581111561301d57600080fd5b825186600182028301116401000000008211171561303a57600080fd5b8083526020830192505050908051906020019080838360005b8381101561306e578082015181840152602081019050613053565b50505050905090810190601f16801561309b5780820380516001836020036101000a031916815260200191505b50604052505050905090565b6000801b81565b600042905090565b60006130f760405180807f4d414e414745525f524f4c450000000000000000000000000000000000000000815250600c019050604051809103902033612f28565b61314c576040517f08c379a0000000000000000000000000000000000000000000000000000000008152600401808060200182810382526032815260200180614e1b6032913960400191505060405180910390fd5b8360098660ff168154811061315d57fe5b9060005260206000209060050201600001819055508260098660ff168154811061318357fe5b9060005260206000209060050201600101819055508160098660ff16815481106131a957fe5b90600052602060002090600502016002018190555060019050949350505050565b600061320b60405180807f4d414e414745525f524f4c450000000000000000000000000000000000000000815250600c019050604051809103902033612f28565b613260576040517f08c379a0000000000000000000000000000000000000000000000000000000008152600401808060200182810382526032815260200180614e1b6032913960400191505060405180910390fd5b600080905060008090505b6009805490508110156132b8576132a96009828154811061328857fe5b90600052602060002090600502016000015483613c4f90919063ffffffff16565b9150808060010191505061326b565b5060006132c3613c0f565b73ffffffffffffffffffffffffffffffffffffffff166370a08231306040518263ffffffff1660e01b8152600401808273ffffffffffffffffffffffffffffffffffffffff1673ffffffffffffffffffffffffffffffffffffffff16815260200191505060206040518083038186803b15801561333f57600080fd5b505afa158015613353573d6000803e3d6000fd5b505050506040513d602081101561336957600080fd5b81019080805190602001909291905050509050600073ffffffffffffffffffffffffffffffffffffffff168573ffffffffffffffffffffffffffffffffffffffff161415613402576040517f08c379a000000000000000000000000000000000000000000000000000000000815260040180806020018281038252602f815260200180614e9c602f913960400191505060405180910390fd5b816134168583613cd790919063ffffffff16565b101561346d576040517f08c379a000000000000000000000000000000000000000000000000000000000815260040180806020018281038252602a815260200180614f04602a913960400191505060405180910390fd5b7fa267b5cf59cf96d97abf36d29c63cf7bdef867c208ca8575c47f2cafda39abc98585604051808373ffffffffffffffffffffffffffffffffffffffff1673ffffffffffffffffffffffffffffffffffffffff1681526020018281526020019250505060405180910390a16134e0613c0f565b73ffffffffffffffffffffffffffffffffffffffff1663a9059cbb86866040518363ffffffff1660e01b8152600401808373ffffffffffffffffffffffffffffffffffffffff1673ffffffffffffffffffffffffffffffffffffffff16815260200182815260200192505050602060405180830381600087803b15801561356657600080fd5b505af115801561357a573d6000803e3d6000fd5b505050506040513d602081101561359057600080fd5b81019080805190602001909291905050509250505092915050565b60006135cb60046000848152602001908152602001600020600001614275565b9050919050565b6000600760008373ffffffffffffffffffffffffffffffffffffffff1673ffffffffffffffffffffffffffffffffffffffff168152602001908152602001600020549050919050565b600061365c60405180807f4d414e414745525f524f4c450000000000000000000000000000000000000000815250600c019050604051809103902033612f28565b6136b1576040517f08c379a0000000000000000000000000000000000000000000000000000000008152600401808060200182810382526032815260200180614e1b6032913960400191505060405180910390fd5b6000831161370a576040517f08c379a000000000000000000000000000000000000000000000000000000000815260040180806020018281038252602b815260200180614c94602b913960400191505060405180910390fd5b60008211613763576040517f08c379a000000000000000000000000000000000000000000000000000000000815260040180806020018281038252602c815260200180614f5d602c913960400191505060405180910390fd5b600960405180606001604052808681526020018581526020018481525090806001815401808255809150506001900390600052602060002090600502016000909190919091506000820151816000015560208201518160010155604082015181600201555050600190509392505050565b6137fb60046000848152602001908152602001600020600201546137f6613df1565b612f28565b613850576040517f08c379a0000000000000000000000000000000000000000000000000000000008152600401808060200182810382526030815260200180614dca6030913960400191505060405180910390fd5b61385a8282613e8d565b5050565b60006009838154811061386d57fe5b906000526020600020906005020160030160008373ffffffffffffffffffffffffffffffffffffffff1673ffffffffffffffffffffffffffffffffffffffff16815260200190815260200160002054905092915050565b6000600880549050905090565b60405180807f4d414e414745525f524f4c450000000000000000000000000000000000000000815250600c019050604051809103902081565b6000809054906101000a900460ff1661398b576040517f08c379a000000000000000000000000000000000000000000000000000000000815260040180806020018281038252601f8152602001807f5265656e7472616e637947756172643a207265656e7472616e742063616c6c0081525060200191505060405180910390fd5b60008060006101000a81548160ff02191690831515021790555060003490506139b4828261428a565b60006139bf8261431b565b90506139d682600254613c4f90919063ffffffff16565b6002819055506139e68382614384565b8273ffffffffffffffffffffffffffffffffffffffff163373ffffffffffffffffffffffffffffffffffffffff167f6faf93231a456e552dbc9961f58d9713ee4f2e69d15f1975b050ef0911053a7b8484604051808381526020018281526020019250505060405180910390a3613a5d83836144d8565b613a656144dc565b613a6f8383614547565b505060016000806101000a81548160ff02191690831515021790555050565b6000806000905060008090505b600980549050811015613b2557613b1660098281548110613ab857fe5b906000526020600020906005020160040160008673ffffffffffffffffffffffffffffffffffffffff1673ffffffffffffffffffffffffffffffffffffffff1681526020019081526020016000205483613c4f90919063ffffffff16565b91508080600101915050613a9b565b5080915050919050565b6000600a54905090565b613b41613df1565b73ffffffffffffffffffffffffffffffffffffffff16600560009054906101000a900473ffffffffffffffffffffffffffffffffffffffff1673ffffffffffffffffffffffffffffffffffffffff1614613c03576040517f08c379a00000000000000000000000000000000000000000000000000000000081526004018080602001828103825260208152602001807f4f776e61626c653a2063616c6c6572206973206e6f7420746865206f776e657281525060200191505060405180910390fd5b613c0c8161454b565b50565b60008060019054906101000a900473ffffffffffffffffffffffffffffffffffffffff16905090565b6000600b60009054906101000a900460ff16905090565b600080828401905083811015613ccd576040517f08c379a000000000000000000000000000000000000000000000000000000000815260040180806020018281038252601b8152602001807f536166654d6174683a206164646974696f6e206f766572666c6f77000000000081525060200191505060405180910390fd5b8091505092915050565b6000613d1983836040518060400160405280601e81526020017f536166654d6174683a207375627472616374696f6e206f766572666c6f770000815250614691565b905092915050565b600080831415613d345760009050613da1565b6000828402905082848281613d4557fe5b0414613d9c576040517f08c379a0000000000000000000000000000000000000000000000000000000008152600401808060200182810382526021815260200180614dfa6021913960400191505060405180910390fd5b809150505b92915050565b6000613de983836040518060400160405280601a81526020017f536166654d6174683a206469766973696f6e206279207a65726f000000000000815250614751565b905092915050565b600033905090565b613e21816004600085815260200190815260200160002060000161481790919063ffffffff16565b15613e8957613e2e613df1565b73ffffffffffffffffffffffffffffffffffffffff168173ffffffffffffffffffffffffffffffffffffffff16837f2f8788117e7eff1d82e926ec794901d17c78024a50270940304540a733656f0d60405160405180910390a45b5050565b613eb5816004600085815260200190815260200160002060000161484790919063ffffffff16565b15613f1d57613ec2613df1565b73ffffffffffffffffffffffffffffffffffffffff168173ffffffffffffffffffffffffffffffffffffffff16837ff6391f5c32d9c69d2a47ea670b442974b53935d1edc7fd64eb21e047a839171b60405160405180910390a45b5050565b600360009054906101000a900460ff16613fa3576040517f08c379a00000000000000000000000000000000000000000000000000000000081526004018080602001828103825260148152602001807f5061757361626c653a206e6f742070617573656400000000000000000000000081525060200191505060405180910390fd5b6000600360006101000a81548160ff0219169083151502179055507f5db9ee0a495bf2e6ff9c91a7834c1ba4fdd244a5e8aa4e537bd38aeae4b073aa613fe7613df1565b604051808273ffffffffffffffffffffffffffffffffffffffff1673ffffffffffffffffffffffffffffffffffffffff16815260200191505060405180910390a1565b600060019054906101000a900473ffffffffffffffffffffffffffffffffffffffff1673ffffffffffffffffffffffffffffffffffffffff1663a9059cbb83836040518363ffffffff1660e01b8152600401808373ffffffffffffffffffffffffffffffffffffffff1673ffffffffffffffffffffffffffffffffffffffff16815260200182815260200192505050602060405180830381600087803b1580156140d357600080fd5b505af11580156140e7573d6000803e3d6000fd5b505050506040513d60208110156140fd57600080fd5b8101908080519060200190929190505050505050565b61411d8282613df9565b5050565b600360009054906101000a900460ff16156141a4576040517f08c379a00000000000000000000000000000000000000000000000000000000081526004018080602001828103825260108152602001807f5061757361626c653a207061757365640000000000000000000000000000000081525060200191505060405180910390fd5b6001600360006101000a81548160ff0219169083151502179055507f62e78cea01bee320cd4e420270b5ea74000d11b0c9f74754ebdbfc544b05a2586141e8613df1565b604051808273ffffffffffffffffffffffffffffffffffffffff1673ffffffffffffffffffffffffffffffffffffffff16815260200191505060405180910390a1565b600061423a8360000183614877565b60001c905092915050565b600061426d836000018373ffffffffffffffffffffffffffffffffffffffff1660001b6148fa565b905092915050565b60006142838260000161491d565b9050919050565b600360009054906101000a900460ff161561430d576040517f08c379a00000000000000000000000000000000000000000000000000000000081526004018080602001828103825260108152602001807f5061757361626c653a207061757365640000000000000000000000000000000081525060200191505060405180910390fd5b614317828261492e565b5050565b600061437d600261436f6009600a548154811061433457fe5b906000526020600020906005020160020154614361670de0b6b3a764000087613d2190919063ffffffff16565b613da790919063ffffffff16565b613da790919063ffffffff16565b9050919050565b60006009600a548154811061439557fe5b9060005260206000209060050201905080600101546143c1838360000154613c4f90919063ffffffff16565b1115614418576040517f08c379a0000000000000000000000000000000000000000000000000000000008152600401808060200182810382526025815260200180614e4d6025913960400191505060405180910390fd5b61442f828260000154613c4f90919063ffffffff16565b81600001819055506000816003019050614490838260008773ffffffffffffffffffffffffffffffffffffffff1673ffffffffffffffffffffffffffffffffffffffff16815260200190815260200160002054613c4f90919063ffffffff16565b8160008673ffffffffffffffffffffffffffffffffffffffff1673ffffffffffffffffffffffffffffffffffffffff1681526020019081526020016000208190555050505050565b5050565b600160009054906101000a900473ffffffffffffffffffffffffffffffffffffffff1673ffffffffffffffffffffffffffffffffffffffff166108fc349081150290604051600060405180830381858888f19350505050158015614544573d6000803e3d6000fd5b50565b5050565b600073ffffffffffffffffffffffffffffffffffffffff168173ffffffffffffffffffffffffffffffffffffffff1614156145d1576040517f08c379a0000000000000000000000000000000000000000000000000000000008152600401808060200182810382526026815260200180614d196026913960400191505060405180910390fd5b8073ffffffffffffffffffffffffffffffffffffffff16600560009054906101000a900473ffffffffffffffffffffffffffffffffffffffff1673ffffffffffffffffffffffffffffffffffffffff167f8be0079c531659141344cd1fd0a4f28419497f9722a3daafe3b4186f6b6457e060405160405180910390a380600560006101000a81548173ffffffffffffffffffffffffffffffffffffffff021916908373ffffffffffffffffffffffffffffffffffffffff16021790555050565b600083831115829061473e576040517f08c379a00000000000000000000000000000000000000000000000000000000081526004018080602001828103825283818151815260200191508051906020019080838360005b838110156147035780820151818401526020810190506146e8565b50505050905090810190601f1680156147305780820380516001836020036101000a031916815260200191505b509250505060405180910390fd5b5060008385039050809150509392505050565b600080831182906147fd576040517f08c379a00000000000000000000000000000000000000000000000000000000081526004018080602001828103825283818151815260200191508051906020019080838360005b838110156147c25780820151818401526020810190506147a7565b50505050905090810190601f1680156147ef5780820380516001836020036101000a031916815260200191505b509250505060405180910390fd5b50600083858161480957fe5b049050809150509392505050565b600061483f836000018373ffffffffffffffffffffffffffffffffffffffff1660001b614a2f565b905092915050565b600061486f836000018373ffffffffffffffffffffffffffffffffffffffff1660001b614a9f565b905092915050565b6000818360000180549050116148d8576040517f08c379a0000000000000000000000000000000000000000000000000000000008152600401808060200182810382526022815260200180614c726022913960400191505060405180910390fd5b8260000182815481106148e757fe5b9060005260206000200154905092915050565b600080836001016000848152602001908152602001600020541415905092915050565b600081600001805490509050919050565b600073ffffffffffffffffffffffffffffffffffffffff168273ffffffffffffffffffffffffffffffffffffffff1614156149b4576040517f08c379a000000000000000000000000000000000000000000000000000000000815260040180806020018281038252602a815260200180614e72602a913960400191505060405180910390fd5b6000811415614a2b576040517f08c379a00000000000000000000000000000000000000000000000000000000081526004018080602001828103825260198152602001807f43726f776473616c653a20776569416d6f756e7420697320300000000000000081525060200191505060405180910390fd5b5050565b6000614a3b83836148fa565b614a94578260000182908060018154018082558091505060019003906000526020600020016000909190919091505582600001805490508360010160008481526020019081526020016000208190555060019050614a99565b600090505b92915050565b60008083600101600084815260200190815260200160002054905060008114614b7b5760006001820390506000600186600001805490500390506000866000018281548110614aea57fe5b9060005260206000200154905080876000018481548110614b0757fe5b9060005260206000200181905550600183018760010160008381526020019081526020016000208190555086600001805480614b3f57fe5b60019003818190600052602060002001600090559055866001016000878152602001908152602001600020600090556001945050505050614b81565b60009150505b92915050565b604051806040016040528060008152602001614ba1614c2a565b81525090565b6040518060400160405280600290602082028038833980820191505090505090565b60405180606001604052806000815260200160008152602001600081525090565b8260028101928215614c19579160200282015b82811115614c18578251825591602001919060010190614bfd565b5b509050614c269190614c4c565b5090565b6040518060400160405280600290602082028038833980820191505090505090565b614c6e91905b80821115614c6a576000816000905550600101614c52565b5090565b9056fe456e756d657261626c655365743a20696e646578206f7574206f6620626f756e647344656c6e6f727465537761703a20436170206d7573742062652067726561746572207468616e207a65726f416363657373436f6e74726f6c3a2073656e646572206d75737420626520616e2061646d696e20746f206772616e7444656c6e6f72746543726f776473616c653a20707572636861736520616d6f756e742065786365656465644f776e61626c653a206e6577206f776e657220697320746865207a65726f206164647265737344656c6e6f727465537761703a2054696d65206d7573742062652067726561746572207468616e207a65726f44656c6e6f72746543726f776473616c653a206c6f636b65642062792076657374696e6720706572696f6444656c6e6f72746543726f776473616c653a2062656e6566696369617279206973206e6f742064756520616e7920746f6b656e73416363657373436f6e74726f6c3a2073656e646572206d75737420626520616e2061646d696e20746f207265766f6b65536166654d6174683a206d756c7469706c69636174696f6e206f766572666c6f774d616e61676572526f6c653a2063616c6c657220646f6573206e6f74206861766520746865204d616e6167657220726f6c6544656c6e6f72746543726f776473616c653a2073746167652063617020657863656564656443726f776473616c653a2062656e656669636961727920697320746865207a65726f206164647265737344656c6e6f72746543726f776473616c653a207472616e7366657220746f20746865207a65726f206164647265737344656c6e6f72746543726f776473616c653a206e65772073746167652069732067726561746572207468616e2073746167657320636f756e7444656c6e6f72746543726f776473616c653a207472616e7366657220746f206d75636820746f6b656e73416363657373436f6e74726f6c3a2063616e206f6e6c792072656e6f756e636520726f6c657320666f722073656c6644656c6e6f727465537761703a2052617465206d7573742062652067726561746572207468616e207a65726fa2646970667358221220da585274a61db26463ed1692cdcfe153f8fbcdd8d6c08327f3f6dfeecd0a26f364736f6c6343000600003343726f776473616c653a20746f6b656e20697320746865207a65726f206164647265737343726f776473616c653a2077616c6c657420697320746865207a65726f2061646472657373",
  "source": "pragma solidity ^0.6.0;\n\nimport \"./math/SafeMath.sol\";\nimport \"./access/roles/ManagerRole.sol\";\nimport \"./token/Detailed.sol\";\nimport \"./DTV.sol\";\nimport \"./utils/ReentrancyGuard.sol\";\nimport \"./utils/PausableCrowdsale.sol\";\n\n\ncontract DelnorteSwap is PausableCrowdsale, ManagerRole {\n    using SafeMath for uint256;\n\n    // Count ETH transfer to player\n    mapping(address => uint256) private _wagers;\n\n    event TokensReleased(address beneficiary, uint256 amount);\n    event TokensWithdrawn(address beneficiary, uint256 amount);\n    event TokensTransfered(address beneficiary, uint256 amount);\n    event VestingToggled(bool vested);\n\n    struct TimelockData {\n        // Stage opening time\n        uint256 time;\n        // Rates to unlock for crowdsale stages\n        uint256[2] rates;\n    }\n\n    struct StageData {\n        // Total number of supply tokens on certain stage\n        uint256 supply;\n        // Max amount of tokens to be contributed\n        uint256 cap;\n        // How many token units a buyer gets per TRX\n        uint256 rate;\n        // Tokens amount purchased by the buyer\n        mapping (address => uint256) balances;\n        // Tokens amount released by the buyer\n        mapping (address => uint256) released;\n    }\n\n    // The last time of the token release by the buyer.\n    mapping (address => uint256) private _times;\n\n    // The vesting schedule\n    TimelockData[] private _calendar;\n\n    // The crowdsale stages\n    StageData[] private _stages;\n\n    // A current crowdsale stage\n    uint256 private _currentStage = 0;\n\n    // Lock/Unlock by vesting period\n    bool private _vested = true;\n\n    constructor(address payable wallet, IERC20 token) public Crowdsale(wallet, token) {\n        _stages.push(StageData({\n        supply: 0,\n        cap: 2500000 * (10 ** 18),\n        rate: 9520000000000\n        }));\n\n        _stages.push(StageData({\n        supply: 0,\n        cap: 3333333 * (10 ** 18),\n        rate: 14290000000000\n        }));\n\n        _stages.push(StageData({\n        supply: 0,\n        cap: 1666667 * (10 ** 18),\n        rate: 21430000000000\n        }));\n\n        _calendar.push(TimelockData({ time: uint256(1637180199), rates: [uint256(30), 30] }));\n        _calendar.push(TimelockData({ time: uint256(1637183799), rates: [uint256(70), 70] }));\n        // _calendar.push(TimelockData({ time: uint256(1836205675), rates: [uint256(0), 70] }));\n        // _calendar.push(TimelockData({ time: uint256(1836205675), rates: [uint256(0), 30] }));\n    }\n\n    /**\n    * @return the name of the token.\n    */\n    function name() public view virtual returns (string memory) {\n        return ERC20Detailed(address(token())).name();\n    }\n\n    /**\n    * @return the symbol of the token.\n    */\n    function symbol() public view virtual returns (string memory) {\n        return ERC20Detailed(address(token())).symbol();\n    }\n\n    /**\n    * @return the number of decimals of the token.\n    */\n    function decimals() public view virtual returns (uint8) {\n        return ERC20Detailed(address(token())).decimals();\n    }\n\n    /**\n    * @return uint256 representing current block timestamp as seconds since unix epoch\n    */\n    function timestamp() public view virtual returns (uint256) {\n        return block.timestamp;\n    }\n\n    /**\n    * @dev Returns true if the contract is lock by vesting logic, and false otherwise.\n    */\n    function vested() public view virtual returns (bool) {\n        return _vested;\n    }\n\n    /**\n    * @return the last time of the token release.\n    */\n    function timeOf(address owner) public view virtual returns (uint256) {\n        return _times[owner];\n    }\n\n    /**\n    * @dev Gets the balance of the specified address.\n    * @param owner The address to query the balance of.\n    * @return uint256 representing the amount owned by the passed address.\n    */\n    function balanceOf(address owner) public view virtual returns (uint256) {\n        uint256 balance = 0;\n        for (uint256 i = 0; i < _stages.length; i++) {\n        balance = balance.add(_stages[i].balances[owner]);\n        }\n        return balance;\n    }\n\n    /**\n    * @dev Gets the released token amount of the specified address.\n    * @param owner The address to query the release of.\n    * @return uint256 representing the amount released by the passed address.\n    */\n    function releasedOf(address owner) public view virtual returns (uint256) {\n        uint256 release = 0;\n        for (uint256 i = 0; i < _stages.length; i++) {\n        release = release.add(_stages[i].released[owner]);\n        }\n        return release;\n    }\n\n    /**\n    * @dev Gets the balance of the specified address at a certain stage.\n    * @param id The stage identifier\n    * @param owner The address to query the balance of.\n    * @return uint256 representing the amount owned by the passed address.\n    */\n    function balanceOfStage(uint256 id, address owner) public view virtual returns (uint256) {\n        return _stages[id].balances[owner];\n    }\n\n    /**\n    * @dev Gets the release of the specified address at a certain stage.\n    * @param id The stage identifier\n    * @param owner The address to query the release of.\n    * @return uint256 representing the amount released by the passed address.\n    */\n    function releasedOfStage(uint256 id, address owner) public view virtual returns (uint256) {\n        return _stages[id].released[owner];\n    }\n\n    /**\n    * @return uint256 representing the calender length.\n    */\n    function getCalendarLength() public view virtual returns (uint256) {\n        return _calendar.length;\n    }\n\n    /**\n    * @dev Gets the calendar certain stage data.\n    * @param id The stage identifier\n    * @return (uint256 time, uint256[2]) Stage start time and rates\n    */\n    function getCalendar(uint256 id) public view virtual returns (uint256, uint256[2] memory) {\n        TimelockData memory timelock = _calendar[id];\n        return (timelock.time, timelock.rates);\n    }\n\n    /**\n    * @dev Gets the stage data by identifier\n    * @return (uint256, uint256, uint256) total supply, stage cap & stage rate\n    */\n    function getStage(uint256 id) public view virtual returns (uint256, uint256, uint256) {\n        StageData memory stage = _stages[id];\n        return (stage.supply, stage.cap, stage.rate);\n    }\n\n    /**\n    * @dev Gets the current crowdsale stage identifier\n    * @return uint256 representing stage identifier\n    */\n    function getCurrentStage() public view virtual returns (uint256) {\n        return _currentStage;\n    }\n\n    /**\n    * @dev Set next crowdsale stage\n    * @param stage The next stage identifier\n    */\n    function setCurrentStage(uint256 stage) public virtual onlyManager returns (bool) {\n        require(stage < _stages.length, \"DelnorteCrowdsale: new stage is greater than stages count\");\n        _currentStage = stage;\n        return true;\n    }\n\n    /**\n    * @dev Lock/Unlock vesting period\n    * @param value Locked by vesting period if true\n    */\n    function toggleVesting(bool value) public virtual onlyManager {\n        _vested = value;\n        emit VestingToggled(value);\n    }\n    /**\n    * @dev Transfer token for a specified addresses.\n    * @param to The address to transfer to.\n    * @param value The amount to be transferred.\n    */\n    function transferTokens(address to, uint256 value) public virtual onlyManager returns (bool) {\n        uint256 totalSupply = 0;\n        for (uint256 i = 0; i < _stages.length; i++) {\n        totalSupply = totalSupply.add(_stages[i].supply);\n        }\n\n        uint256 balance = token().balanceOf(address(this));\n\n        require(to != address(0), \"DelnorteCrowdsale: transfer to the zero address\");\n        require(balance.sub(value) >= totalSupply, \"DelnorteCrowdsale: transfer to much tokens\");\n\n        emit TokensTransfered(to, value);\n\n        return token().transfer(to, value);\n    }\n\n    /**\n    * @dev Calculates the amount that has already vested but hasn't been released yet.\n    * @param beneficiary Whose tokens will be vested\n    */\n    function releasableAmount(address beneficiary) public view virtual returns (uint256) {\n        TimelockData memory timelock;\n        uint256[2] memory rates = [uint256(0),  0];\n        for (uint256 i = 0; i < _calendar.length; i++) {\n            timelock = _calendar[i];\n            if (block.timestamp > timelock.time) {\n            if (timelock.time > _times[beneficiary]) {\n                rates[0] = rates[0].add(timelock.rates[0]);\n                rates[1] = rates[1].add(timelock.rates[1]);\n            }\n            } else {\n            break;\n            }\n        }\n\n        uint256 amount = 0;\n        uint256 available = 0;\n        uint256 unreleased = 0;\n        for (uint256 i = 0; i < _stages.length; i++) {\n        unreleased = _stages[i].balances[beneficiary].sub(_stages[i].released[beneficiary]);\n        if (rates[i] > 0 && unreleased > 0) {\n            available = _stages[i].balances[beneficiary].mul(rates[i]).div(100);\n            amount = amount.add(available);\n        }\n        }\n\n        return amount;\n    }\n\n    /**\n    * @dev Withraw tokens after crowdsale ends.\n    * @param beneficiary Whose tokens will be withdrawn.\n    */\n    function withdrawTokens(address beneficiary) public virtual {\n        require(!_vested, \"DelnorteCrowdsale: locked by vesting period\");\n\n        uint256 balance = balanceOf(beneficiary);\n        uint256 released = releasedOf(beneficiary);\n\n        uint256 amount = balance.sub(released);\n\n        require(amount > 0, \"DelnorteCrowdsale: beneficiary is not due any tokens\");\n\n        for (uint256 i = 0; i < _stages.length; i++) {\n        _stages[i].released[beneficiary] = _stages[i].balances[beneficiary];\n        }\n\n        _deliverTokens(beneficiary, amount);\n\n        emit TokensWithdrawn(beneficiary, amount);\n    }\n\n    /**\n    * @dev Release tokens after crowdsale ends.\n    * @param beneficiary Whose tokens will be withdrawn.\n    */\n    function releaseTokens(address beneficiary) public virtual {\n        TimelockData memory timelock;\n        uint256[2] memory rates = [uint256(0),  0];\n        for (uint256 i = 0; i < _calendar.length; i++) {\n            timelock = _calendar[i];\n            if (block.timestamp >= timelock.time) {\n            if (timelock.time > _times[beneficiary]) {\n                rates[0] = rates[0].add(timelock.rates[0]);\n                rates[1] = rates[1].add(timelock.rates[1]);\n            }\n            } else {\n            break;\n            }\n        }\n\n        uint256 amount = 0;\n        uint256 available = 0;\n        uint256 unreleased = 0;\n        for (uint256 i = 0; i < _stages.length; i++) {\n        unreleased = _stages[i].balances[beneficiary].sub(_stages[i].released[beneficiary]);\n        if (rates[i] > 0 && unreleased > 0) {\n            available = _stages[i].balances[beneficiary].mul(rates[i]).div(100);\n\n            _stages[i].released[beneficiary] = _stages[i].released[beneficiary].add(available);\n            amount = amount.add(available);\n\n            require(_stages[i].released[beneficiary] <= _stages[i].balances[beneficiary], \"DelnorteCrowdsale: purchase amount exceeded\");\n        }\n        }\n\n        require(amount > 0, \"DelnorteCrowdsale: beneficiary is not due any tokens\");\n\n        _times[beneficiary] = block.timestamp;\n        _deliverTokens(beneficiary, amount);\n\n        emit TokensReleased(beneficiary, amount);\n    }\n\n    /**\n    * @dev Override to extend the way in which eth is converted to tokens.\n    * @param weiAmount Value in wei to be converted into tokens\n    * @return Number of tokens that can be purchased with the specified _weiAmount\n    */\n    function _getTokenAmount(uint256 weiAmount) internal view virtual override(Crowdsale) returns (uint256) {\n        /* return weiAmount.mul(_stages[_currentStage].rate).div(1000000); */\n        return (weiAmount.mul(1000000000000000000).div(_stages[_currentStage].rate)).div(2);\n    }\n\n    /**\n    * @dev Overrides parent by storing due balances, and delivering tokens to the vault instead of the end user. This\n    * ensures that the tokens will be available by the time they are withdrawn (which may not be the case if\n    * `_deliverTokens` was called later).\n    * @param beneficiary Token purchaser\n    * @param tokenAmount Amount of tokens purchased\n    */\n    function _processPurchase(address beneficiary, uint256 tokenAmount) internal virtual override(Crowdsale) {\n        StageData storage stage = _stages[_currentStage];\n\n        require(stage.supply.add(tokenAmount) <= stage.cap, \"DelnorteCrowdsale: stage cap exceeded\");\n\n        stage.supply = stage.supply.add(tokenAmount);\n\n        mapping(address => uint256) storage balances = stage.balances;\n        balances[beneficiary] = balances[beneficiary].add(tokenAmount);\n    }\n\n    /**\n    * @dev Add stage for crowdsale.\n    * @param supply ount supply token.\n    * @param cap The maximum number of tokens available for sale at this stage.\n    * @param rate wei price per token unit.\n    */\n    function addStage(uint256 supply, uint256 cap, uint256 rate) public virtual onlyManager returns (bool) {\n        require(cap > 0, 'DelnorteSwap: Cap must be greater than zero');\n        require(rate > 0, 'DelnorteSwap: Rate must be greater than zero');\n        \n        _stages.push(StageData({\n            supply: supply,\n            cap: cap,\n            rate: rate\n        }));\n        \n        return true;\n    }\n    \n    /**\n    * @dev Add calendar unlock token.\n    * @param time Time unlock token.\n    * @param ratesFirst Share of unlocking at this stage.\n    * @param ratesSecond Share of unlocking at this stage.\n    */\n    function addCalendar(uint256 time, uint256 ratesFirst, uint256 ratesSecond) public virtual onlyManager returns (bool) {\n        require(time > 0, 'DelnorteSwap: Time must be greater than zero');\n\n        _calendar.push(TimelockData({\n            time: time,\n            rates: [ratesFirst, ratesSecond]\n        }));\n        \n        return true;\n    }\n    \n    /**\n    * @dev Change stage buy token.\n    * @param id Id changes stage.\n    * @param supply ount supply token.\n    * @param cap The maximum number of tokens available for sale at this stage.\n    * @param rate wei price per token unit.\n    */\n    function changeStage(uint8 id, uint256 supply, uint256 cap, uint256 rate) public virtual onlyManager returns (bool) {\n        _stages[id].supply = supply;\n        _stages[id].cap = cap;\n        _stages[id].rate = rate;\n        \n        return true;\n    }\n    \n    /**\n    * @dev Change calendar payouts.\n    * @param id Id changes calendar.\n    * @param rateFirst Share of unlocking at this stage.\n    * @param rateSecond Share of unlocking at this stage.\n    */\n    function changeCalendar(uint8 id, uint256 time, uint256 rateFirst, uint256 rateSecond) public virtual onlyManager returns (bool) {\n        _calendar[id].time = time;\n        _calendar[id].rates[0] = rateFirst;\n        _calendar[id].rates[1] = rateSecond;\n        \n        return true;\n    }\n\n    /**\n     * @dev Called by a pauser to pause, triggers stopped state.\n     */\n    function pause() public virtual onlyManager whenNotPaused returns (bool) {\n        Pausable._pause();\n        return true;\n    }\n\n    /**\n     * @dev Called by a pauser to unpause, returns to normal state.\n     */\n    function unpause() public virtual onlyManager whenPaused returns (bool) {\n        Pausable._unpause();\n        return true;\n    }\n}",
  "sourcePath": "/Applications/projects/nft/newdt/contracts/DelnorteSwap.sol",
  "compiler": {
    "name": "solc",
    "version": "0.6.0+commit.26b70077.Emscripten.clang"
  },
  "schemaVersion": "3.4.3",
  "updatedAt": "2021-11-20T16:30:35.076Z",
  "devdoc": {
    "methods": {
      "addAdmin(bytes32,address)": {
        "details": "Create and ading new role.",
        "params": {
          "account": "account for adding to the role.",
          "role": "role account."
        }
      },
      "addCalendar(uint256,uint256,uint256)": {
        "details": "Add calendar unlock token.",
        "params": {
          "ratesFirst": "Share of unlocking at this stage.",
          "ratesSecond": "Share of unlocking at this stage.",
          "time": "Time unlock token."
        }
      },
      "addStage(uint256,uint256,uint256)": {
        "details": "Add stage for crowdsale.",
        "params": {
          "cap": "The maximum number of tokens available for sale at this stage.",
          "rate": "wei price per token unit.",
          "supply": "ount supply token."
        }
      },
      "balanceOf(address)": {
        "details": "Gets the balance of the specified address.",
        "params": {
          "owner": "The address to query the balance of."
        },
        "returns": {
          "_0": "uint256 representing the amount owned by the passed address."
        }
      },
      "balanceOfStage(uint256,address)": {
        "details": "Gets the balance of the specified address at a certain stage.",
        "params": {
          "id": "The stage identifier",
          "owner": "The address to query the balance of."
        },
        "returns": {
          "_0": "uint256 representing the amount owned by the passed address."
        }
      },
      "buyTokens(address)": {
        "details": "low level token purchase ***DO NOT OVERRIDE*** This function has a non-reentrancy guard, so it shouldn't be called by another `nonReentrant` function.",
        "params": {
          "beneficiary": "Recipient of the token purchase"
        }
      },
      "changeCalendar(uint8,uint256,uint256,uint256)": {
        "details": "Change calendar payouts.",
        "params": {
          "id": "Id changes calendar.",
          "rateFirst": "Share of unlocking at this stage.",
          "rateSecond": "Share of unlocking at this stage."
        }
      },
      "changeStage(uint8,uint256,uint256,uint256)": {
        "details": "Change stage buy token.",
        "params": {
          "cap": "The maximum number of tokens available for sale at this stage.",
          "id": "Id changes stage.",
          "rate": "wei price per token unit.",
          "supply": "ount supply token."
        }
      },
      "finalize()": {
        "details": "Block adding admins."
      },
      "getCalendar(uint256)": {
        "details": "Gets the calendar certain stage data.",
        "params": {
          "id": "The stage identifier"
        },
        "returns": {
          "_0": "(uint256 time, uint256[2]) Stage start time and rates"
        }
      },
      "getCurrentStage()": {
        "details": "Gets the current crowdsale stage identifier",
        "returns": {
          "_0": "uint256 representing stage identifier"
        }
      },
      "getRoleAdmin(bytes32)": {
        "details": "Returns the admin role that controls `role`. See {grantRole} and {revokeRole}.     * To change a role's admin, use {_setRoleAdmin}."
      },
      "getRoleMember(bytes32,uint256)": {
        "details": "Returns one of the accounts that have `role`. `index` must be a value between 0 and {getRoleMemberCount}, non-inclusive.     * Role bearers are not sorted in any particular way, and their ordering may change at any point.     * WARNING: When using {getRoleMember} and {getRoleMemberCount}, make sure you perform all queries on the same block. See the following https://forum.openzeppelin.com/t/iterating-over-elements-on-enumerableset-in-openzeppelin-contracts/2296[forum post] for more information."
      },
      "getRoleMemberCount(bytes32)": {
        "details": "Returns the number of accounts that have `role`. Can be used together with {getRoleMember} to enumerate all bearers of a role."
      },
      "getStage(uint256)": {
        "details": "Gets the stage data by identifier",
        "returns": {
          "_0": "(uint256, uint256, uint256) total supply, stage cap & stage rate"
        }
      },
      "grantRole(bytes32,address)": {
        "details": "Grants `role` to `account`.     * If `account` had not been already granted `role`, emits a {RoleGranted} event.     * Requirements:     * - the caller must have ``role``'s admin role."
      },
      "hasRole(bytes32,address)": {
        "details": "Returns `true` if `account` has been granted `role`."
      },
      "owner()": {
        "details": "Returns the address of the current owner."
      },
      "pause()": {
        "details": "Called by a pauser to pause, triggers stopped state."
      },
      "paused()": {
        "details": "Returns true if the contract is paused, and false otherwise."
      },
      "releasableAmount(address)": {
        "details": "Calculates the amount that has already vested but hasn't been released yet.",
        "params": {
          "beneficiary": "Whose tokens will be vested"
        }
      },
      "releaseTokens(address)": {
        "details": "Release tokens after crowdsale ends.",
        "params": {
          "beneficiary": "Whose tokens will be withdrawn."
        }
      },
      "releasedOf(address)": {
        "details": "Gets the released token amount of the specified address.",
        "params": {
          "owner": "The address to query the release of."
        },
        "returns": {
          "_0": "uint256 representing the amount released by the passed address."
        }
      },
      "releasedOfStage(uint256,address)": {
        "details": "Gets the release of the specified address at a certain stage.",
        "params": {
          "id": "The stage identifier",
          "owner": "The address to query the release of."
        },
        "returns": {
          "_0": "uint256 representing the amount released by the passed address."
        }
      },
      "renounceOwnership()": {
        "details": "Leaves the contract without owner. It will not be possible to call `onlyOwner` functions anymore. Can only be called by the current owner.     * NOTE: Renouncing ownership will leave the contract without an owner, thereby removing any functionality that is only available to the owner."
      },
      "renounceRole(bytes32,address)": {
        "details": "Revokes `role` from the calling account.     * Roles are often managed via {grantRole} and {revokeRole}: this function's purpose is to provide a mechanism for accounts to lose their privileges if they are compromised (such as when a trusted device is misplaced).     * If the calling account had been granted `role`, emits a {RoleRevoked} event.     * Requirements:     * - the caller must be `account`."
      },
      "revokeRole(bytes32,address)": {
        "details": "Revokes `role` from `account`.     * If `account` had been granted `role`, emits a {RoleRevoked} event.     * Requirements:     * - the caller must have ``role``'s admin role."
      },
      "setCurrentStage(uint256)": {
        "details": "Set next crowdsale stage",
        "params": {
          "stage": "The next stage identifier"
        }
      },
      "toggleVesting(bool)": {
        "details": "Lock/Unlock vesting period",
        "params": {
          "value": "Locked by vesting period if true"
        }
      },
      "transferOwnership(address)": {
        "details": "Transfers ownership of the contract to a new account (`newOwner`). Can only be called by the current owner."
      },
      "transferTokens(address,uint256)": {
        "details": "Transfer token for a specified addresses.",
        "params": {
          "to": "The address to transfer to.",
          "value": "The amount to be transferred."
        }
      },
      "unpause()": {
        "details": "Called by a pauser to unpause, returns to normal state."
      },
      "vested()": {
        "details": "Returns true if the contract is lock by vesting logic, and false otherwise."
      },
      "withdrawTokens(address)": {
        "details": "Withraw tokens after crowdsale ends.",
        "params": {
          "beneficiary": "Whose tokens will be withdrawn."
        }
      }
    }
  },
  "userdoc": {
    "methods": {}
  }
}